:100000000C9470030C9498030C9498030C9498032C
:100010000C9498030C9498030C9498030C949803F4
:100020000C9498030C9498030C940E090C947D097D
:100030000C9498030C9498030C9498030C949803D4
:100040000C9498030C9498030C9498030C949803C4
:100050000C9498030C9498030C9498030C94AF0B95
:100060000C9498030C9498030C9498030C949803A4
:100070000C9498030C9498030C9498030C94980394
:100080000C9498030C9498030C9498030C94980384
:100090000C9498030C9498030C9498030C94980374
:1000A0000C9498030C9498030C949803000000009F
:1000B000003E5B4F5B3E3E6B4F6B3E1C3E7C3E1CEE
:1000C000183C7E3C181C577D571C1C5E7F5E1C0034
:1000D000183C1800FFE7C3E7FF0018241800FFE7EB
:1000E000DBE7FF30483A060E2629792926407F05AE
:1000F0000507407F05253F5A3CE73C5A7F3E1C1CC4
:1001000008081C1C3E7F14227F22145F5F005F5F83
:1001100006097F017F006689956A6060606060946F
:10012000A2FFA29408047E040810207E2010080874
:100130002A1C08081C2A08081E101010100C1E0C7F
:100140001E0C30383E3830060E3E0E060000000011
:100150000000005F00000007000700147F147F14F8
:10016000242A7F2A1223130864623649562050003D
:1001700008070300001C2241000041221C002A1C29
:100180007F1C2A08083E0808008070300008080814
:100190000808000060600020100804023E51494534
:1001A0003E00427F400072494949462141494D3352
:1001B0001814127F1027454545393C4A49493141B9
:1001C000211109073649494936464949291E000087
:1001D00014000000403400000008142241141414DC
:1001E0001414004122140802015909063E415D59C8
:1001F0004E7C1211127C7F494949363E41414122D1
:100200007F4141413E7F494949417F090909013EFA
:10021000414151737F0808087F00417F4100204021
:10022000413F017F081422417F404040407F021C33
:10023000027F7F0408107F3E4141413E7F0909094A
:10024000063E4151215E7F09192946264949493216
:1002500003017F01033F4040403F1F2040201F3FDC
:100260004038403F63140814630304780403615961
:10027000494D43007F4141410204081020004141A3
:10028000417F04020102044040404040000307084F
:100290000020545478407F2844443838444444284B
:1002A000384444287F385454541800087E090218F2
:1002B000A4A49C787F0804047800447D400020407A
:1002C000403D007F1028440000417F40007C0478BE
:1002D00004787C080404783844444438FC18242406
:1002E0001818242418FC7C08040408485454542486
:1002F00004043F44243C4040207C1C2040201C3C03
:100300004030403C44281028444C9090907C4464F9
:10031000544C44000836410000007700000041368C
:10032000080002010204023C2623263C1EA1A16112
:10033000123A4040207A3854545559215555794144
:100340002154547841215554784020545579400C1B
:100350001E527212395555555939545454593955FC
:100360005454580000457C410002457D420001453F
:100370007C40F0292429F0F0282528F07C545545AC
:10038000002054547C547C0A097F4932494949323F
:100390003248484832324A4848303A4141217A3A54
:1003A00042402078009DA0A07D39444444393D401E
:1003B00040403D3C24FF2424487E4943662B2FFCCB
:1003C0002F2BFF0929F620C0887E09032054547979
:1003D000410000447D413048484A32384040227A4A
:1003E000007A0A0A727D0D19317D2629292F2826C7
:1003F0002929292630484D402038080808080808CF
:100400000808382F10C8ACBA2F102834FA00007B27
:10041000000008142A142222142A1408950022002D
:1004200095AA005500AAAA55AA55AA000000FF00E7
:10043000101010FF00141414FF001010FF00FF1024
:1004400010F010F0141414FC001414F700FF000056
:10045000FF00FF1414F404FC141417101F10101FD5
:10046000101F1414141F00101010F0000000001FC3
:10047000101010101F10101010F010000000FF10CE
:100480001010101010101010FF10000000FF1400CA
:1004900000FF00FF00001F10170000FC04F41414FC
:1004A0001710171414F404F40000FF00F7141414C8
:1004B00014141414F700F7141414171410101F1048
:1004C0001F141414F4141010F010F000001F101F6B
:1004D0000000001F14000000FC140000F010F010D9
:1004E00010FF10FF141414FF141010101F00000050
:1004F00000F010FFFFFFFFFFF0F0F0F0F0FFFFFF54
:100500000000000000FFFF0F0F0F0F0F38444438AA
:10051000447C2A2A3E147E02020606027E027E02E5
:1005200063554941633844443C04407E201E200604
:10053000027E020299A5E7A5991C2A492A1C4C7241
:1005400001724C304A4D4D303048784830BC625AC8
:10055000463D3E494949007E0101017E2A2A2A2A58
:100560002A44445F444440514A444040444A514034
:100570000000FF0103E080FF000008086B6B0836F5
:1005800012362436060F090F060000181800000066
:100590001010003040FF0101001F01011E00191D55
:1005A0001712003C3C3C3C0000000000F0F89C8E20
:1005B0008783878E9CF8F00000FEFF03030303038C
:1005C000070EFCF80000FEFF0303030303070EFC05
:1005D000F80000FFFF00000000000000FFFF000027
:1005E000FEFF8383838383C7EE7C380000F8FC0E14
:1005F00007030303070EFCF800003F7FE0C0808084
:10060000C0E07F3FFFFF01010101010101FFFF0089
:1006100000FFFF0C0C0C0C1C3E77E3C100007FFFB9
:10062000C0C0C0C0C0E0703F1F00001F3F70E0C0EE
:10063000C0C0E0703F1F00007FFFC1C1C1C1C1E366
:10064000773E1C00001F3F70E0C0C0C0E0703F1F3D
:10065000000000000001FFFF01000000D5F08D1434
:10066000A1C881CFD9F1AF2000080B00020202001F
:100670000009040000010202000005240010010529
:100680002401010104240206052406000107058156
:100690000310004009040100020A000000070502DF
:1006A0000240000007058302400000040309041211
:1006B000010002EF020140412336800001010203E4
:1006C0000141726475696E6F204C4C430041726445
:1006D00075696E6F204C656F6E6172646F002C0CD3
:1006E00011241FBECFEFDAE0DEBFCDBF12E0A0E0E5
:1006F000B1E0E0EAF7E202C005900D92A032B10746
:10070000D9F726E0A0E2B2E001C01D92A53EB207F3
:10071000E1F713E0C0E7D3E004C02197FE010E9497
:10072000B413CF36D107C9F70E94490C0C94CE13ED
:100730000C940000E1E9F2E0A0E0B8E000800EBC1B
:100740008111012C1197A0FDFDCF0192B9F70DB4D5
:100750000895480F592F511D1416150684F5803839
:1007600091056CF597FF02C090E080E0413851059B
:1007700014F040E850E0481BFB01E770FF2721E040
:1007800001C0220FEA95EAF777FF02C0695F7F4F49
:10079000FB0133E0F595E7953A95E1F7F695FE2FE5
:1007A000EE27F795E795E80FF91FEF56FD4F4150FB
:1007B00030F08191DF011197822B8C93F8CF08954F
:1007C000FC0180919002882311F13FB7F89482E0F8
:1007D0008093E9002091F200822F90E0181619060C
:1007E00014F481E090E0882339F0289844E640939F
:1007F0008F024091F1004083222339F02091F200D2
:10080000211103C02BE62093E8003FBF08958FEF2E
:100810009FEF08952FB7F89483E08093E9009091BB
:10082000E800892F807295FF04C09091F20080E467
:10083000891B2FBF08958091870281110DC082E02E
:100840008093830284E08093840210928602109247
:10085000850281E08093870283E892E00895CF9338
:10086000DF931F92CDB7DEB76983DC01ED91FC9178
:100870000280F381E02D41E050E0BE016F5F7F4FC9
:1008800009950F90DF91CF91089583E08093E9005F
:100890008091F200882319F08AE38093E80008959C
:1008A0000E940A0490E00895CF93DF931F92CDB782
:1008B000DEB7FC018485958597FD08C02FEF3FEFDB
:1008C000358724870F90DF91CF910895CE0101964F
:1008D0000E94E003019719F4898190E0F3CF8FEF34
:1008E0009FEFF0CF0F931F93CF93DF931F92CDB75E
:1008F000DEB78C01FC018485958597FF0BC0CE0186
:1009000001960E94E003019771F4898190E0F8015B
:1009100095878487F801848595850F90DF91CF9125
:100920001F910F9108958FEF9FEFF1CFFC01848508
:10093000958597FD0BC09FB7F89482E08093E900FE
:100940008091F2009FBF90E0019608959FB7F894C0
:1009500082E08093E9008091F2009FBF90E00895CB
:1009600040917D0250917E0220917B0230917C0269
:1009700042175307B4F49091E8009570E1F3909119
:10098000E80092FD19C08093F10080917D02909162
:100990007E0201968F739927892B19F48EEF80932D
:1009A000E80080917D0290917E02019690937E02F4
:1009B00080937D0281E0089580E00895DF92EF92B8
:1009C000FF920F931F93CF93DF93D82E8A01EB01F1
:1009D0007B01E40EF51ECE15DF0559F0D7FE12C0DF
:1009E000FE0184910E94B00421968111F4CF0FEF93
:1009F0001FEFC801DF91CF911F910F91FF90EF90F2
:100A0000DF9008958881EECF0F931F93CF93DF93EC
:100A10001F92CDB7DEB782E0898342E450E069E6F9
:100A200076E080E80E94DE040E941B04DC0112963E
:100A30000D911C910115110589F0D801ED91FC91E2
:100A40000280F381E02DBE016F5F7F4FC8010995E1
:100A500097FD04C0F80100851185ECCF89810F90C6
:100A6000DF91CF911F910F910895615030F0209147
:100A7000F100FC0120830196F8CF289884E680934A
:100A80008F0208953FB7F894809177029091780291
:100A9000A0917902B0917A0226B5A89B05C02F3F9C
:100AA00019F00196A11DB11D3FBFBA2FA92F982F94
:100AB0008827BC01CD01620F711D811D911D42E08F
:100AC000660F771F881F991F4A95D1F708958F9257
:100AD0009F92AF92BF92CF92DF92EF92FF926B0103
:100AE0007C010E9442054B015C01C114D104E10468
:100AF000F104B9F00E944205681979098A099B0935
:100B0000683E73408105910580F321E0C21AD10847
:100B1000E108F10888EE880E83E0981EA11CB11C44
:100B2000E4CFFF90EF90DF90CF90BF90AF909F9079
:100B30008F9008958F929F92AF92BF92CF92DF9243
:100B4000EF92FF920F931F93CF93DF936C017B0182
:100B50008A0180910C01882309F45CC08091900285
:100B6000882309F457C08091820280FF05C08091DC
:100B7000E00082608093E000E801B12C8AEFA82EAB
:100B800093E0892E2AE3922E209711F4BB20D9F10D
:100B90000E940A0481110AC0AA94AA20D9F161E036
:100BA00070E080E090E00E946705EECF8C171D0694
:100BB00011F00CF08C2F9FB7F8948092E9002091EF
:100BC000E80025FD02C09FBFDFCF282F30E0C21B09
:100BD000D30BF701815020F041914093F100FACFFF
:100BE000E20EF31EBB2021F09092E800B12CEBCF77
:100BF0008091E80085FDE7CF9092E800BB24B39494
:100C0000209709F3F3CF5D9884E680938102101654
:100C100011063CF081E090E0F6019383828310E0BE
:100C200000E0C801DF91CF911F910F91FF90EF90ED
:100C3000DF90CF90BF90AF909F908F900895AF922C
:100C4000BF92CF92DF92EF92FF920F931F93CF93B9
:100C5000DF936C017B018B01040F151FEB015E011B
:100C6000AE18BF08C017D10759F06991D601ED91B0
:100C7000FC910190F081E02DC6010995892B79F74F
:100C8000C501DF91CF911F910F91FF90EF90DF9001
:100C9000CF90BF90AF9008952D9A0895BC0190E039
:100CA00080E00C9467058FB18095807F669B88609B
:100CB0001C9B8460089590916E02982329F4909172
:100CC0006F02982381E009F480E00895CF93C82F44
:100CD0000E945306982F9C2381E09C1380E0CF91C3
:100CE000089580E00C949A0380389105B8F460343C
:100CF0007105A0F420E191E061FD94E060FD990FA1
:100D000062FD9295687F269FD0011124A80FAF56EF
:100D1000BD4F8C9140FF03C0892B8C930895909513
:100D20008923FBCF2F923F924F925F926F927F92D7
:100D30008F929F92AF92BF92CF92DF92EF92FF92EB
:100D40000F931F93CF93DF93EC018B017A0169011D
:100D5000C61AD70AD7FE03C0D194C194D10847015F
:100D60008C1A9D0A97FE03C09194819491088C146B
:100D70009D0454F49E2D8F2D7901292F382F9C2FFF
:100D80008D2FE801092F182FEC16FD0654F4902F33
:100D9000812F8901292F382F9C2F8D2FE701E92ED4
:100DA000F82E17012C1A3D0A2901401A510A57FE44
:100DB00003C0519441945108310137FE03C08FEFB5
:100DC000681A780A759467948FEF021713070CF46A
:100DD00081E0A82E880FBB08EC16FD06A4F041E0C8
:100DE000BE01C8018C149D0414F0B801CE010E940C
:100DF00074066418750877FE04C00A0D1B1D620C8A
:100E0000731C2196E9CFDF91CF911F910F91FF9035
:100E1000EF90DF90CF90BF90AF909F908F907F909A
:100E20006F905F904F903F902F9008958F929F9278
:100E3000AF92BF92CF92DF92EF92FF920F931F93E8
:100E4000CF93DF93EC016B015A0149010E94920696
:100E50009701A801B401C5010E9492069601AE0156
:100E6000B701C801DF91CF911F910F91FF90EF90D3
:100E7000DF90CF90BF90AF909F908F900C94920690
:100E80008F929F92AF92BF92CF92DF92EF92FF929A
:100E90000F931F93CF93DF935C01EB01042FE22E9E
:100EA0006034710510F40E94A903EC0EFD2EF11CB4
:100EB000B701615071096034710520F4402FC501FC
:100EC0000E94A903D7FF02C0D0E0C0E04E01670135
:100ED00081E4E816F1041CF080E4C82ED12C8C14B7
:100EE0009D044CF441E0B401C5010E9474068FEFEB
:100EF000881A980AECCF0A0D1B2D111D01501109FB
:100F0000CC15DD053CF441E0BE01C8010E94740629
:100F10002196F6CFDF91CF911F910F91FF90EF9027
:100F2000DF90CF90BF90AF909F908F900895AF9239
:100F3000BF92CF92DF92EF92FF920F931F93CF93C6
:100F4000DF9347305105D8F4FA01EB016C01E55508
:100F5000F84F0C94B413B207CA07D307DB07E307B3
:100F6000EB07F9077B018CE0E80EF11CA601445F5A
:100F70005F4F86019E01BE01C6010E941607DF91E8
:100F8000CF911F910F91FF90EF90DF90CF90BF9086
:100F9000AF900895AC01445F5F4F7B018CE0E80E99
:100FA000F11C8A01E7CF7B018AE0E80EF11CA60163
:100FB000465F5F4FDECF7B0188E0E80EF11CA601A3
:100FC000485F5F4FD6CFAC01485F5F4F7B0188E041
:100FD000E80EF11CE6CF28E048E0DF91CF911F91A9
:100FE0000F91FF90EF90DF90CF90BF90AF900C9457
:100FF00040077C018AE0E80EF11C9B01A701C601B5
:101000000E9492068E010A5F1F4F56018CE0A80EC7
:10101000B11C9801A501BE01C7010E94920676018C
:1010200082E0E80EF11C9801A701B801C5010E94F9
:1010300092069E01A601B801C701DF91CF911F91D1
:101040000F91FF90EF90DF90CF90BF90AF900C94F6
:1010500092068F929F92AF92BF92CF92DF92EF92C1
:10106000FF920F931F93CF93DF936D3089F0C09061
:101070006C02D0906D026A30D1F410926B02109223
:101080006A0288E0C80ED11CD0926D02C0926C0238
:1010900081E090E0DF91CF911F910F91FF90EF9051
:1010A000DF90CF90BF90AF909F908F900895009168
:1010B0006A0210916B02E5E06E9FE0011124C455B5
:1010C000DF4F4801F12CF5E0E12CFF1629F0CE01AD
:1010D0000196FE01E490EC01B12CA12C4E2D417043
:1010E000B6016A0D7B1DC4010E947406E694FFEFF1
:1010F000AF1ABF0A88E0A816B10481F7F394EFEFA6
:101100008E1A9E0AF6E0FF12DECF0A5F1F4F109381
:101110006B0200936A02BCCF089590E080E00895CE
:101120008F929F92AF92BF920F931F93CF93DF93B3
:10113000CDB7DEB7A1970FB6F894DEBF0FBECDBF17
:1011400019A2423008F44AE08E010F5D1F4F842E31
:10115000912CB12CA12CA50194010E947E13E62FA5
:10116000B901CA01EA3044F5E05DD801EE938D0182
:10117000232B242B252B79F790E080E0109769F042
:10118000FD0101900020E9F73197AF014A1B5B0B8D
:10119000BD0181EE96E00E941F06A1960FB6F8945D
:1011A000DEBF0FBECDBFDF91CF911F910F91BF90DA
:1011B000AF909F908F900895E95CD7CFCF92DF9248
:1011C000EF92FF92CF93DF936B017C016DE281EE92
:1011D00096E00E942908EC0166277727CB016C195D
:1011E0007D098E099F094AE00E9490088C0F9D1F7F
:1011F000DF91CF91FF90EF90DF90CF900895FC01A9
:1012000001900020E9F73197AF01481B590BBC0151
:1012100081EE96E00C941F060C9468131F920F92B7
:101220000FB60F9211248F939F938091E1009091BC
:10123000E100937F9093E10083FF0FC01092E900DB
:1012400091E09093EB001092EC0092E39093ED000C
:101250001092900298E09093F00082FF22C093E0F9
:101260009093E9009091F200992319F09AE39093FA
:10127000E80090918102992341F090918102915070
:1012800090938102911101C05D9A90918F029923F0
:1012900041F090918F02915090938F02911101C073
:1012A000289A84FF18C08091E2008E7E816080932E
:1012B000E2008091E1008F7E8093E10080918202C4
:1012C0008E7E8061809382029F918F910F900FBEDE
:1012D0000F901F90189580FFF7CF8091E2008E7ECF
:1012E00080618093E2008091E1008E7E8093E10036
:1012F000809182028E7E8160E5CF1F920F920FB6A1
:101300000F921124CF92DF92EF92FF920F931F93CF
:101310002F933F934F935F936F937F938F939F93FD
:10132000AF93BF93EF93FF93CF93DF93CDB7DEB728
:101330006C97DEBFCDBF1092E9008091E80083FF7B
:1013400025C068E0CE0145960E94350582EF809366
:10135000E8008D8987FF39C09091E80090FFFCCFAD
:10136000982F907609F034C19E894F89588D2F8926
:10137000F88C911131C0803861F5809180028093A2
:10138000F1001092F1008EEF8093E8006C960FB69A
:10139000F894DEBF0FBECDBFDF91CF91FF91EF91EB
:1013A000BF91AF919F918F917F916F915F914F917D
:1013B0003F912F911F910F91FF90EF90DF90CF9071
:1013C0000F900FBE0F901F9018959EEF9093E8001E
:1013D000C7CF1092F100D5CF913059F48111D3CFFE
:1013E0004130510581F6809180028D7F809380028B
:1013F000CACF933049F48111C6CF4130510519F657
:10140000809180028260F2CF953041F48091E800B3
:1014100080FFFCCF20682093E300B5CF963009F021
:10142000A9C00B8D1C8D22E01092E90010927E0263
:1014300010927D02F2122EC010927C0210927B025A
:101440000E9404051F8299E09983FA8291E09E83AD
:1014500090EA98879AEF998720917D0230917E02D9
:10146000275F3F4F3C832B838D831092E9001092BE
:101470007E0210927D0210937C0200937B0249E071
:1014800050E0BE016F5F7F4F80E00E94DE040E944B
:10149000040579CF10937C0200937B020E941B0409
:1014A000DC0112960D911C910115110509F451C131
:1014B000D801ED91FC910480F581E02DBE016B5EB9
:1014C0007F4FC8010995009709F03EC1F8010085DA
:1014D0001185EACFF3E0FF120EC08F89882309F44B
:1014E00040C0823061F440E860E18DEC96E00E94FB
:1014F000F90B811148CF81E28093EB0047CF813017
:1015000029F440E86BE081EC96E0F1CF833099F765
:101510000E941B04DC011296ED90FC908E010F5F7F
:101520001F4F6801E114F10479F0D701ED91FC91AE
:101530000680F781E02DB801C7010995080F111D3C
:10154000F701E084F184EECFD8011C92F6010190FE
:101550000020E9F73197BF016C197D0940E0C60111
:10156000C6CF6BEA76E0FB01449150E080E80E9430
:10157000DE0409CF973009F4BECF983021F481E022
:101580008093F10000CF993009F0FDCE837009F00F
:10159000B2CFEEE0F1E081E031E096E32191222349
:1015A00071F08093E9003093EB00DF0111972C91EB
:1015B0002093EC009093ED008F5F873079F78EE7F2
:1015C0008093EA001092EA008F8980939002DBCE2C
:1015D0008B8D9C8D1092E90010927E0210927D02FC
:1015E00090937C0280937B02898D811192C08E89B9
:1015F0009D89913A49F4813209F07DCF47E050E06E
:1016000065E071E080E0B3CF913209F074CF8332AE
:1016100069F48F89988DB0E0A0E0809301019093E8
:101620000201A0930301B0930401ADCE803269F4AE
:101630008091E80082FFFCCF67E085E091E00E94A6
:1016400035058BEF8093E8009ECE823209F09BCE69
:101650008F8980930C01EEEFFFE7859194918B3F8A
:101660009C4D51F1E0E0F8E0809105019091060178
:10167000A0910701B0910801803B9440A105B105FC
:10168000F1F480910C0180FD1AC0EE3F8AE0F8076A
:1016900089F587E797E79183808380916000809345
:1016A0007F0288E19BE00FB6F894A89580936000D4
:1016B0000FBE9093600067CEEEEFFAE0D5CF808149
:1016C00091818737974709F05ECEA8958091600099
:1016D00088618093600080917F0280936000EE3F7C
:1016E0002AE0F20789F08091FE0A9091FF0A918327
:1016F000808349CE808191818737980751F29093FA
:10170000FF0A8093FE0AC5CF1092FF0A1092FE0ACC
:101710003ACE0E941B04DC0112960D911C9101151A
:10172000110509F4E8CED801ED91FC910190F0810A
:10173000E02DBE016B5E7F4FC8010995811123CE5C
:10174000F80100851185EBCF181619060CF41BCE95
:10175000D2CEF1E0FF12BECE6FEA76E004CF1F9248
:101760000F920FB60F9211242F933F938F939F9355
:10177000AF93BF938091730290917402A091750210
:10178000B09176023091720223E0230F2D3758F585
:101790000196A11DB11D2093720280937302909354
:1017A0007402A0937502B0937602809177029091B3
:1017B0007802A0917902B0917A020196A11DB11D23
:1017C0008093770290937802A0937902B0937A0283
:1017D000BF91AF919F918F913F912F910F900FBE2D
:1017E0000F901F90189526E8230F0296A11DB11D9A
:1017F000D2CFEF92FF920F931F93CF93DF93F82EE8
:10180000192FE62E042F81E0860F880F0E94B00466
:1018100083E00E94B004CF2DD12FEC0EFD2EF11CE1
:10182000CE15DF05B9F007FF13C0FE0184910E94B9
:10183000B004182F80E00E94B0048123219681110A
:10184000EFCFDF91CF911F910F91FF90EF9008950F
:101850008881EDCF81E0F5CFE1E9F6E013821282D5
:1018600088EE93E0A0E0B0E084839583A683B783FD
:1018700088E191E0918380838FEF9FEF9587848744
:10188000E1EEF6E0138212828AE291E09183808396
:101890000895789484B5826084BD84B5816084BDE8
:1018A00085B5826085BD85B5816085BD80916E00FE
:1018B000816080936E00109281008091810082602F
:1018C000809381008091810081608093810080916C
:1018D000800081608093800080919100826080937D
:1018E000910080919100816080939100809190009F
:1018F0008160809390008091C10084608093C100DA
:101900008091C10082608093C1008091C10081609C
:101910008093C1008091C30081608093C300809157
:10192000C00082608093C0008091C200816080937B
:10193000C20080917A00846080937A0080917A005E
:10194000826080937A0080917A00816080937A002F
:1019500080917A00806880937A00109290021092B1
:101960008002109282028091D70081608093D7001C
:1019700080EA8093D80089B5806189BD89B582608D
:1019800089BD09B400FEFDCF61E070E080E090E029
:101990000E9467058091D8008F7C80618093D80079
:1019A0008091E000807F8093E0008091E1008E7E56
:1019B0008093E1008DE08093E200559A209A81ECBB
:1019C00080937C0085B1806F85B984B1877E84B9AE
:1019D00084B1876E84B95E9A5F988AB1806D8AB946
:1019E000769A6E9881B3806F81BB899880B38D7031
:1019F00080BB80E58CBD81E08DBD85E090E00E94DC
:101A00004E065F9A85E090E00E944E065E985C98D4
:101A1000ECE5F6E089E696E024912EBD00000DB4D9
:101A200007FEFDCF31968E179F07B1F75C9A81E8CC
:101A300080936400809165008160809365000E94BE
:101A4000710680E80E9466068823A9F05C9885EA02
:101A50008EBD00000DB407FEFDCF5C9A2E982F9826
:101A60002D988091640080628093640081E083BF40
:101A7000889513BEFCCF84E00E946606882309F493
:101A800048C02D9884E80E9466068823E1F00E94F1
:101A90004C0688EC90E00E944E062F9882E090E081
:101AA0000E9468138F3F29F06FEF82E090E00E9460
:101AB000701384EF91E00E944E062F9A84E80E94F2
:101AC00066068111FBCF84E10E9466068823E1F05F
:101AD0000E944C0688EC90E00E944E062E9882E010
:101AE00090E00E946813882329F060E082E090E093
:101AF0000E94701384EF91E00E944E062E9A84E1BA
:101B00000E9466068111FBCF88EC90E00E944E0691
:101B1000B2CF0E944C0682E090E00E940C0988231C
:101B200009F477C03E9A3F9A81E090E00E940C0948
:101B3000482F4470942E81FF12C041112E98C1EF9E
:101B4000DFEF08E010E068E5862E80E40E9466067C
:101B5000882309F461C02E9A2F9A0E944C0682E3D2
:101B600090E00E944E060E9453068111F8CF81E258
:101B700080930001E7E2F2E090E080E072E16CE047
:101B8000AC0143705527749F9001759F300D11244F
:101B9000265F3F4F31832083AC015595479555957E
:101BA0004795649F9001659F300D1124235D3F4F41
:101BB000338322839583848316821086178201964D
:101BC000399687309105E1F642E0A42EB12C9AE5D2
:101BD000C92ED12C24E0222E312C30E3832E912CDF
:101BE0008FB7F8944091730250917402609175021E
:101BF000709176028FBFC0912202CC2309F4CDC030
:101C00001092220280E090E0892B51F30E940000A4
:101C1000DECF3E983F9888CF992029F0C430D10577
:101C200011F42E9A2F9881E00E949A039E01D7FF0B
:101C300004C0222733272C1B3D0B27703327CE01EE
:101C4000D7FD079653E0959587955A95E1F7D7FF0D
:101C500005C00197F801E21BF30B9F01BC017695CB
:101C6000762F6627779567956F567D4FF12CE12C7F
:101C70003801621A730A8E3FFFEF9F0709F43DC0D7
:101C80008E9CD0018F9CB00D112450E040E0A455F3
:101C9000BA4F5B01E0E8AE0EB11C8F3F980791F0A0
:101CA000FD01E40FF51FE4916B01C40ED51EF0E0B9
:101CB0002F01022E01C0440C0A94EAF7F601548861
:101CC0004528448A2115310599F0FD01E40FF51FDF
:101CD000E4916501C40ED51EF0E02F01062C02C070
:101CE000559447940A94E2F7F60154884528448AAB
:101CF0004F5F5F4F4835510581F6019660587F4F21
:101D0000EA94EF2809F045C00E9471068FE090E048
:101D10000E944E062196C931D10509F016CF9920AF
:101D200011F02F9A2D9880E991E00E944E060E94B2
:101D30004C0681E090E00E940C0980FF10CF8AE001
:101D400090E00E940C099FEF980F9E3F08F007CF8C
:101D500022E330E030936B0220936A0228E330E004
:101D600030936D0220936C02CBE0D0E0682F81EEBF
:101D700096E00E942908CE010E940C092196C131EB
:101D8000D105A1F70E94710688EE93E00E944E06ED
:101D9000E6CEEE24E394F12C6ECF80912302942FB3
:101DA000981B892F90910001891748F48F5F89173C
:101DB00008F028CF81E083BF889513BE23CF81E050
:101DC000809322024093230280912002909121026D
:101DD0000196909321028093200280916F0280935C
:101DE0006E020E94530680936F02E1E9F2E0C11196
:101DF000CFEF0024C193C193C193C1930394D1F752
:101E000010926D0210926C0210926B0210926A0294
:101E1000C0917002D0917102C130D10509F409C19D
:101E200034F4CD2B09F46AC00E947106EBCEC230A7
:101E3000D10509F4F5C12397B9F788E290E09093B2
:101E40006B0280936A02B0926D02A0926C0280EEE7
:101E500091E00E94FF082CE030E04FE750E06CE09A
:101E600070E090E080E00E9492068AE090E090931B
:101E70006B0280936A0280E190E090936D02809300
:101E80006C028DEE91E00E94FF080AE010E0D0E0C5
:101E9000C0E0AE0162E370E0C8010E94970721969E
:101EA0000F5E1F4FC730D105A1F724E144E469E17B
:101EB00070E08EE190E00E94400783E290E0909312
:101EC0006B0280936A028CE190E090936D028093A4
:101ED0006C0285E092E00E94FF0885E090E090931C
:101EE0006B0280936A028AE390E090936D02809384
:101EF0006C0280E192E00E94FF0887C183E290E0DB
:101F000090936B0280936A02E8E0F0E0F0936D0238
:101F1000E0936C0282E391E00E94FF0884E190E08C
:101F200090936B0280936A0282E190E090936D023D
:101F300080936C028AE391E00E94FF082EE130E07A
:101F40004FE750E06EE170E090E080E00E94920682
:101F500049E150E050936B0240936A0281E290E0C5
:101F600090936D0280936C02809168029091690257
:101F7000892B09F051C089E491E00E94FF0889E1B2
:101F800090E090936B0280936A028AE290E09093D3
:101F90006D0280936C0280916802909169020197B2
:101FA000F1F581E691E00E94FF0880E10E945B0666
:101FB000882369F08091680290916902019662E03D
:101FC00070E00E94A013909369028093680280E8F9
:101FD0000E945B06882369F08091680290916902F3
:101FE000019662E070E00E94A013909369028093D2
:101FF000680288E00E945B06882309F415CF80916F
:10200000680290916902892B69F4E1E0F0E0F093B5
:102010007102E093700208CF85E591E0AECF8BE6C8
:1020200091E0C1CF83E090E09093710280937002C1
:10203000FBCE49E150E050936B0240936A02B092AC
:102040006D02A0926C0285E791E00E94FF082CE0EF
:1020500030E04FE750E06CE070E090E080E00E94FC
:102060009206412C512C3201439484E1F82EC20196
:102070000197EC01C370DD27B5E0CC0FDD1FBA95E9
:10208000E1F79C013595279535952795F29EB0018E
:10209000F39E700D11248B010E5E1F4F209166027E
:1020A000309167028217930741F4605F7F4F2EE003
:1020B0004CE1CE0103960E9440072D96D0936B020F
:1020C000C0936A0210936D0200936C024AE0C30150
:1020D000B2010E9490085FEF451A550A650A750A19
:1020E00089E0481651046104710409F6EFE0F0E05C
:1020F000F0936B02E0936A0247E350E050936D0265
:1021000040936C0282E891E00E94FF0880E40E9404
:102110005B06882369F080916602909167020196C0
:1021200068E070E00E94A0139093670280936602BB
:1021300080E20E945B06882369F08091660290919C
:102140006702079668E070E00E94A0139093670210
:102150008093660280E10E945B06882361F0809193
:10216000660290916702843091052CF40496909356
:1021700067028093660280E80E945B06882361F014
:102180008091660290916702843091052CF004974B
:10219000909367028093660288E00E945B06882322
:1021A000A1F1B0927102A0927002E7E2F2E090E039
:1021B00080E072E16CE0AC0143705527749F9001A0
:1021C000759F300D1124265F3F4F31832083AC0172
:1021D0005595479555954795649F9001659F300D9E
:1021E0001124235D3F4F338322839583848316829A
:1021F000108617820196399687309105E1F6109284
:102200002602109225021092240284E00E945B06AE
:10221000882309F409CE109271021092700204CE44
:1022200020E430E045E550E070E060E085E590E0D6
:102230000E9492062DE230E045E550E06DE270E04C
:1022400090E080E00E949206D0926B02C0926A02F7
:10225000D0936D02C0936C0281E991E00E94FF0867
:102260008091660290916702B1010E94A0138130B3
:10227000910509F42AC10CF0F1C0892B09F41CC1A5
:102280002EE147E36AE070E08FE090E00E944007B3
:10229000C7E2D2E08E81882341F04C815D816A8162
:1022A0007B81888199810E949707299652E0C636E2
:1022B000D50781F780912402882391F0409125026F
:1022C0005091260289E0849FF001859FF00D112432
:1022D000E95DFD4F62817381808191810E94970742
:1022E00023E145E56DE270E090E080E00E94400768
:1022F000B0926B02A0926A028FE290E090936D021E
:1023000080936C0288E991E00E94FF086091660268
:10231000709167026F5F7F4F072E000C880B990B3F
:1023200097FF0CC10E94DE08E8E2F0E0F0936B0238
:10233000E0936A024FE250E050936D0240936C02CA
:102340008DE991E00E94FF088091240281110AC06A
:1023500040912502509126026FE270E08EE390E0FA
:102360000E94970788E590E090936B0280936A0241
:1023700090926D0280926C0282EA91E00E94FF08C6
:1023800080912402D0926B02C0926A028111DAC05D
:1023900088E390E090936D0280936C028CEA91E068
:1023A0000E94FF08D0926B02C0926A0290926D0266
:1023B00080926C028AEB91E00E94FF0880912402D7
:1023C0008111D5C080E40E945B06882369F080916A
:1023D000250290912602019667E070E00E94A0130A
:1023E000909326028093250280E20E945B06882358
:1023F00069F08091250290912602069667E070E0D0
:102400000E94A013909326028093250288E00E94E8
:102410005B068823B9F081E0809324028091250235
:102420009091260229E0289FF001299FF00D1124A8
:10243000E95DFD4F8AE290E09183808349E150E0BD
:102440005383428384E00E945B06882309F4ECCC2A
:1024500080912402882309F4D8CDE6CC82309105FE
:1024600009F443C0039709F00BCF21E130E049E6BE
:1024700050E061E270E08DE590E00E94920621E27A
:1024800030E045E750E061E170E089E690E00E94CD
:10249000920621E230E04DE550E061E270E085E730
:1024A00090E00E94920629E130E041E750E069E1C6
:1024B00070E081E690E03FC02EE14EE16AE070E01E
:1024C0008AE590E00E944007DBCE33E2E32EF12C58
:1024D00008E710E02FE030E049E650E063E270E00A
:1024E0008AE590E00E941607CBCE24E130E043E776
:1024F00050E064E170E085E590E00E94920621E200
:1025000030E048E750E064E170E083E790E00E944B
:10251000920621E230E04AE550E061E270E088E7AF
:1025200090E00E94920624E130E045E550E061E24F
:1025300070E08AE590E00E949206A2CE4AE00E94F6
:102540009008F2CE88E390E090936D0280936C0245
:1025500085EC91E00E94FF08D0926B02C0926A0263
:1025600090926D0280926C0284ED91E025CF80E222
:102570000E9466068823A1F0809125029091260290
:1025800029E0289FF001299FF00D1124E95DFD4FFE
:1025900080819181803191051CF001979183808326
:1025A00080E40E9466068823A1F080912502909124
:1025B000260229E0289FF001299FF00D1124E95DF2
:1025C000FD4F808191818C3391051CF4019691839C
:1025D000808380E80E9466068823A1F0809125020E
:1025E0009091260229E0289FF001299FF00D1124E7
:1025F000E95DFD4F828193818B3091051CF001973D
:102600009383828380E10E9466068823A1F08091F3
:1026100025029091260229E0289FF001299FF00DC4
:102620001124E95DFD4F82819381833291051CF471
:1026300001969383828388E00E945B068823A1F041
:10264000809125029091260229E0289FF001299F80
:10265000F00D1124E95DFD4F878190850196B10150
:102660000E94A0139087878384E00E945B068823E2
:1026700009F4DACB209125023091260289E0829F6D
:10268000F001839FF00D1124E95DFD4FC901B101F7
:102690000E94A01362E1689FA001699F500D112460
:1026A000465F5F4F51834083C90137FD039695957F
:1026B0008795959587954CE0489F9001499F300DEF
:1026C0001124235D3F4F3383228310922402BACE1C
:1026D000F999FECF92BD81BDF89A992780B50895EA
:1026E000262FF999FECF1FBA92BD81BD20BD0FB62E
:1026F000F894FA9AF99A0FBE01960895A1E21A2E5B
:10270000AA1BBB1BFD010DC0AA1FBB1FEE1FFF1F95
:10271000A217B307E407F50720F0A21BB30BE40BE5
:10272000F50B661F771F881F991F1A9469F760952C
:102730007095809590959B01AC01BD01CF010895E6
:1027400097FB072E16F4009407D077FD09D00E945E
:10275000BA1307FC05D03EF4909581959F4F0895DC
:10276000709561957F4F0895EE0FFF1F0590F491CE
:10277000E02D0994AA1BBB1B51E107C0AA1FBB1F78
:10278000A617B70710F0A61BB70B881F991F5A95FD
:10279000A9F780959095BC01CD010895F894FFCFDD
:1027A00010FFFFFFFF00E100000000000000C180FB
:1027B00081000000000000002F049A055004450429
:1027C0009604540472040000000029081F068D08B6
:1027D0008C0854414E4752414D00434C415353499C
:1027E000432050555A5A4C45003E20504C415920E8
:1027F00047414D45002020504C41592047414D450F
:10280000003E2053414E44424F5800202053414E39
:1028100044424F580053454C454354204C4556457F
:102820004C00413A506C61792020423A4261636B1E
:1028300000544152474554004C766C5F004375721A
:102840003A00434F4E54524F4C533A00413A47726C
:10285000616220423A4261636B004C2F523A5365E9
:102860006C65637400413A526F7420423A43616E62
:1028700063656C004172726F77733A4D6F766500D5
:1028800053414E44424F58204D4F444500437265DA
:1028900061746520796F7572206F776E206465733F
:1028A00069676E21004275696C6420417265610040
:1028B000423A4D656E7520413A436C656172000085
:00000001FF
