:100000000C9470030C9498030C9498030C9498032C
:100010000C9498030C9498030C9498030C949803F4
:100020000C9498030C9498030C94AA0A0C94190B42
:100030000C9498030C9498030C9498030C949803D4
:100040000C9498030C9498030C9498030C949803C4
:100050000C9498030C9498030C9498030C944B0DF7
:100060000C9498030C9498030C9498030C949803A4
:100070000C9498030C9498030C9498030C94980394
:100080000C9498030C9498030C9498030C94980384
:100090000C9498030C9498030C9498030C94980374
:1000A0000C9498030C9498030C949803000000009F
:1000B000003E5B4F5B3E3E6B4F6B3E1C3E7C3E1CEE
:1000C000183C7E3C181C577D571C1C5E7F5E1C0034
:1000D000183C1800FFE7C3E7FF0018241800FFE7EB
:1000E000DBE7FF30483A060E2629792926407F05AE
:1000F0000507407F05253F5A3CE73C5A7F3E1C1CC4
:1001000008081C1C3E7F14227F22145F5F005F5F83
:1001100006097F017F006689956A6060606060946F
:10012000A2FFA29408047E040810207E2010080874
:100130002A1C08081C2A08081E101010100C1E0C7F
:100140001E0C30383E3830060E3E0E060000000011
:100150000000005F00000007000700147F147F14F8
:10016000242A7F2A1223130864623649562050003D
:1001700008070300001C2241000041221C002A1C29
:100180007F1C2A08083E0808008070300008080814
:100190000808000060600020100804023E51494534
:1001A0003E00427F400072494949462141494D3352
:1001B0001814127F1027454545393C4A49493141B9
:1001C000211109073649494936464949291E000087
:1001D00014000000403400000008142241141414DC
:1001E0001414004122140802015909063E415D59C8
:1001F0004E7C1211127C7F494949363E41414122D1
:100200007F4141413E7F494949417F090909013EFA
:10021000414151737F0808087F00417F4100204021
:10022000413F017F081422417F404040407F021C33
:10023000027F7F0408107F3E4141413E7F0909094A
:10024000063E4151215E7F09192946264949493216
:1002500003017F01033F4040403F1F2040201F3FDC
:100260004038403F63140814630304780403615961
:10027000494D43007F4141410204081020004141A3
:10028000417F04020102044040404040000307084F
:100290000020545478407F2844443838444444284B
:1002A000384444287F385454541800087E090218F2
:1002B000A4A49C787F0804047800447D400020407A
:1002C000403D007F1028440000417F40007C0478BE
:1002D00004787C080404783844444438FC18242406
:1002E0001818242418FC7C08040408485454542486
:1002F00004043F44243C4040207C1C2040201C3C03
:100300004030403C44281028444C9090907C4464F9
:10031000544C44000836410000007700000041368C
:10032000080002010204023C2623263C1EA1A16112
:10033000123A4040207A3854545559215555794144
:100340002154547841215554784020545579400C1B
:100350001E527212395555555939545454593955FC
:100360005454580000457C410002457D420001453F
:100370007C40F0292429F0F0282528F07C545545AC
:10038000002054547C547C0A097F4932494949323F
:100390003248484832324A4848303A4141217A3A54
:1003A00042402078009DA0A07D39444444393D401E
:1003B00040403D3C24FF2424487E4943662B2FFCCB
:1003C0002F2BFF0929F620C0887E09032054547979
:1003D000410000447D413048484A32384040227A4A
:1003E000007A0A0A727D0D19317D2629292F2826C7
:1003F0002929292630484D402038080808080808CF
:100400000808382F10C8ACBA2F102834FA00007B27
:10041000000008142A142222142A1408950022002D
:1004200095AA005500AAAA55AA55AA000000FF00E7
:10043000101010FF00141414FF001010FF00FF1024
:1004400010F010F0141414FC001414F700FF000056
:10045000FF00FF1414F404FC141417101F10101FD5
:10046000101F1414141F00101010F0000000001FC3
:10047000101010101F10101010F010000000FF10CE
:100480001010101010101010FF10000000FF1400CA
:1004900000FF00FF00001F10170000FC04F41414FC
:1004A0001710171414F404F40000FF00F7141414C8
:1004B00014141414F700F7141414171410101F1048
:1004C0001F141414F4141010F010F000001F101F6B
:1004D0000000001F14000000FC140000F010F010D9
:1004E00010FF10FF141414FF141010101F00000050
:1004F00000F010FFFFFFFFFFF0F0F0F0F0FFFFFF54
:100500000000000000FFFF0F0F0F0F0F38444438AA
:10051000447C2A2A3E147E02020606027E027E02E5
:1005200063554941633844443C04407E201E200604
:10053000027E020299A5E7A5991C2A492A1C4C7241
:1005400001724C304A4D4D303048784830BC625AC8
:10055000463D3E494949007E0101017E2A2A2A2A58
:100560002A44445F444440514A444040444A514034
:100570000000FF0103E080FF000008086B6B0836F5
:1005800012362436060F090F060000181800000066
:100590001010003040FF0101001F01011E00191D55
:1005A0001712003C3C3C3C0000000000F0F89C8E20
:1005B0008783878E9CF8F00000FEFF03030303038C
:1005C000070EFCF80000FEFF0303030303070EFC05
:1005D000F80000FFFF00000000000000FFFF000027
:1005E000FEFF8383838383C7EE7C380000F8FC0E14
:1005F00007030303070EFCF800003F7FE0C0808084
:10060000C0E07F3FFFFF01010101010101FFFF0089
:1006100000FFFF0C0C0C0C1C3E77E3C100007FFFB9
:10062000C0C0C0C0C0E0703F1F00001F3F70E0C0EE
:10063000C0C0E0703F1F00007FFFC1C1C1C1C1E366
:10064000773E1C00001F3F70E0C0C0C0E0703F1F3D
:10065000000000000001FFFF01000000D5F08D1434
:10066000A1C881CFD9F1AF2000080B00020202001F
:100670000009040000010202000005240010010529
:100680002401010104240206052406000107058156
:100690000310004009040100020A000000070502DF
:1006A0000240000007058302400000040309041211
:1006B000010002EF020140412336800001010203E4
:1006C0000141726475696E6F204C4C430041726445
:1006D00075696E6F204C656F6E6172646F00C80D36
:1006E00011241FBECFEFDAE0DEBFCDBF12E0A0E0E5
:1006F000B1E0E4E3F4E302C005900D92AA34B1073F
:10070000D9F727E0AAE4B2E001C01D92AC33B207EA
:10071000E1F713E0C0E7D3E004C02197FE010E9497
:10072000FE19CF36D107C9F70E94E50D0C94181AAF
:100730000C940000480F592F511D1416150684F50E
:10074000803891056CF597FF02C090E080E0413859
:10075000510514F040E850E0481BFB01E770FF270B
:1007600021E001C0220FEA95EAF777FF02C0695F36
:100770007F4FFB0133E0F595E7953A95E1F7F69564
:10078000FE2FEE27F795E795E80FF91FE851FD4F8B
:10079000415030F08191DF011197822B8C93F8CF7B
:1007A0000895E8EEF2E0A0E0B8E000800EBC811110
:1007B000012C1197A0FDFDCF0192B9F70DB408955A
:1007C000FC018091E702882311F13FB7F89482E0A1
:1007D0008093E9002091F200822F90E0181619060C
:1007E00014F481E090E0882339F0289844E640939F
:1007F000E6024091F1004083222339F02091F2007B
:10080000211103C02BE62093E8003FBF08958FEF2E
:100810009FEF08952FB7F89483E08093E9009091BB
:10082000E800892F807295FF04C09091F20080E467
:10083000891B2FBF08958091DE0281110DC082E0D7
:100840008093DA0284E08093DB021092DD02109242
:10085000DC0281E08093DE028AED92E00895CF937E
:10086000DF931F92CDB7DEB76983DC01ED91FC9178
:100870000280F381E02D41E050E0BE016F5F7F4FC9
:1008800009950F90DF91CF91089583E08093E9005F
:100890008091F200882319F08AE38093E80008959C
:1008A0000E940A0490E00895CF93DF931F92CDB782
:1008B000DEB7FC018485958597FD08C02FEF3FEFDB
:1008C000358724870F90DF91CF910895CE0101964F
:1008D0000E94E003019719F4898190E0F3CF8FEF34
:1008E0009FEFF0CF0F931F93CF93DF931F92CDB75E
:1008F000DEB78C01FC018485958597FF0BC0CE0186
:1009000001960E94E003019771F4898190E0F8015B
:1009100095878487F801848595850F90DF91CF9125
:100920001F910F9108958FEF9FEFF1CFFC01848508
:10093000958597FD0BC09FB7F89482E08093E900FE
:100940008091F2009FBF90E0019608959FB7F894C0
:1009500082E08093E9008091F2009FBF90E00895CB
:100960004091D4025091D5022091D2023091D3020D
:1009700042175307B4F49091E8009570E1F3909119
:10098000E80092FD19C08093F1008091D40290910B
:10099000D50201968F739927892B19F48EEF8093D6
:1009A000E8008091D4029091D50201969093D502EF
:1009B0008093D40281E0089580E00895DF92EF9261
:1009C000FF920F931F93CF93DF93D82E8A01EB01F1
:1009D0007B01E40EF51ECE15DF0559F0D7FE12C0DF
:1009E000FE0184910E94B00421968111F4CF0FEF93
:1009F0001FEFC801DF91CF911F910F91FF90EF90F2
:100A0000DF9008958881EECF0F931F93CF93DF93EC
:100A10001F92CDB7DEB782E0898342E450E069E6F9
:100A200076E080E80E94DE040E941B04DC0112963E
:100A30000D911C910115110589F0D801ED91FC91E2
:100A40000280F381E02DBE016F5F7F4FC8010995E1
:100A500097FD04C0F80100851185ECCF89810F90C6
:100A6000DF91CF911F910F910895615030F0209147
:100A7000F100FC0120830196F8CF289884E680934A
:100A8000E60208953FB7F8948091CE029091CF028C
:100A9000A091D002B091D10226B5A89B05C02F3FEE
:100AA00019F00196A11DB11D3FBFBA2FA92F982F94
:100AB0008827BC01CD01620F711D811D911D42E08F
:100AC000660F771F881F991F4A95D1F708958F9257
:100AD0009F92AF92BF92CF92DF92EF92FF926B0103
:100AE0007C010E9442054B015C01C114D104E10468
:100AF000F104B9F00E944205681979098A099B0935
:100B0000683E73408105910580F321E0C21AD10847
:100B1000E108F10888EE880E83E0981EA11CB11C44
:100B2000E4CFFF90EF90DF90CF90BF90AF909F9079
:100B30008F9008958F929F92AF92BF92CF92DF9243
:100B4000EF92FF920F931F93CF93DF936C017B0182
:100B50008A0180910C01882309F45CC08091E7022E
:100B6000882309F457C08091D90280FF05C0809185
:100B7000E00082608093E000E801B12C8AEFA82EAB
:100B800093E0892E2AE3922E209711F4BB20D9F10D
:100B90000E940A0481110AC0AA94AA20D9F161E036
:100BA00070E080E090E00E946705EECF8C171D0694
:100BB00011F00CF08C2F9FB7F8948092E9002091EF
:100BC000E80025FD02C09FBFDFCF282F30E0C21B09
:100BD000D30BF701815020F041914093F100FACFFF
:100BE000E20EF31EBB2021F09092E800B12CEBCF77
:100BF0008091E80085FDE7CF9092E800BB24B39494
:100C0000209709F3F3CF5D9884E68093D8021016FD
:100C100011063CF081E090E0F6019383828310E0BE
:100C200000E0C801DF91CF911F910F91FF90EF90ED
:100C3000DF90CF90BF90AF909F908F9008952FB787
:100C4000F8946091CA027091CB028091CC0290918D
:100C5000CD022FBF0895AF92BF92CF92DF92EF9255
:100C6000FF920F931F93CF93DF936C017B018B0156
:100C7000040F151FEB015E01AE18BF08C017D107A6
:100C800059F06991D601ED91FC910190F081E02D30
:100C9000C6010995892B79F7C501DF91CF911F9185
:100CA0000F91FF90EF90DF90CF90BF90AF9008959D
:100CB0002D9A0895BC0190E080E00C9467058FB1F7
:100CC0008095807F669B88601C9B846008959091CE
:100CD000C502982329F09091C602982381E009F07B
:100CE00080E008959091C502982329F49091C6025E
:100CF000982381E009F480E00895CF93C82F0E94E3
:100D00005F06982F9C2381E09C1380E0CF9108958B
:100D100080E00C94D10380389105B8F460347105FB
:100D2000A0F420E191E061FD94E060FD990F62FD87
:100D30009295687F269FD0011124A80FA851BD4F1E
:100D40008C9140FF03C0892B8C9308959095892343
:100D5000FBCF8F929F92AF92BF92CF92DF92EF9292
:100D6000FF920F931F93CF93DF935C01EB01042F4E
:100D7000E22E6034710510F40E949A03EC0EFD2EF1
:100D8000F11CB701615071096034710520F4402FE6
:100D9000C5010E949A03D7FF02C0D0E0C0E04E0117
:100DA000670181E4E816F1041CF080E4C82ED12C20
:100DB0008C149D044CF441E0B401C5010E948B06E3
:100DC0008FEF881A980AECCF0A0D1B2D111D0150C8
:100DD0001109CC15DD053CF441E0BE01C8010E94BB
:100DE0008B062196F6CFDF91CF911F910F91FF9047
:100DF000EF90DF90CF90BF90AF909F908F9008952D
:100E0000EF92FF920F931F93CF93DF93EC017C013E
:100E1000E60EF11CCE15DF0574F407E310E041E0A7
:100E2000B801CE010E948B060F5F1F4F0B331105D7
:100E3000B1F72196EFCFDF91CF911F910F91FF90E6
:100E4000EF900895CF92DF92EF92FF920F931F934E
:100E5000CF93DF93EC018B0188819981AA81BB81BB
:100E6000892B8A2B8B2B31F40E941F066883798390
:100E70008A839B830E941F06C880D980EA80FB80FA
:100E80009B01AC012C193D094E095F0969017A01EA
:100E900038EEC31633E0D306E104F10408F524E08C
:100EA00044E167E370E0C8010E94A906A4E1B0E054
:100EB000A70196010E94AE1928EE33E040E050E011
:100EC0000E94B919622FC8010E94000780E0DF91DB
:100ED000CF911F910F91FF90EF90DF90CF900895E9
:100EE000188219821A821B8281E0F1CF2F923F92E1
:100EF0004F925F926F927F928F929F92AF92BF922A
:100F0000CF92DF92EF92FF920F931F93CF93DF93D5
:100F1000EC018B017A016901C61AD70AD7FE03C01A
:100F2000D194C194D10847018C1A9D0A97FE03C041
:100F30009194819491088C149D0454F49E2D8F2DCE
:100F40007901292F382F9C2F8D2FE801092F182F79
:100F5000EC16FD0654F4902F812F8901292F382F8C
:100F60009C2F8D2FE701E92EF82E17012C1A3D0A30
:100F70002901401A510A57FE03C051944194510867
:100F8000310137FE03C08FEF681A780A75946794B1
:100F90008FEF021713070CF481E0A82E880FBB080F
:100FA000EC16FD06A4F041E0BE01C8018C149D04BE
:100FB00014F0B801CE010E948B066418750877FE04
:100FC00004C00A0D1B1D620C731C2196E9CFDF9132
:100FD000CF911F910F91FF90EF90DF90CF90BF9036
:100FE000AF909F908F907F906F905F904F903F90C9
:100FF0002F9008958F929F92AF92BF92CF92DF92DF
:10100000EF92FF920F931F93CF93DF93EC016B014D
:101010005A0149010E9476079701A801B401C50150
:101020000E9476079601AE01B701C801DF91CF910A
:101030001F910F91FF90EF90DF90CF90BF90AF90F6
:101040009F908F900C9476078F929F92AF92BF9251
:10105000CF92DF92EF92FF920F931F93CF93DF9384
:101060006D3089F0C090C302D090C4026A30D1F4D0
:101070001092C2021092C10288E0C80ED11CD09218
:10108000C402C092C30281E090E0DF91CF911F9132
:101090000F91FF90EF90DF90CF90BF90AF909F9017
:1010A0008F9008950091C1021091C202E5E06E9FF9
:1010B000E0011124C455DF4F4801F12CF5E0E12C8B
:1010C000FF1629F0CE010196FE01E490EC01B12C4F
:1010D000A12C4E2D4170B6016A0D7B1DC4010E94EA
:1010E0008B06E694FFEFAF1ABF0A88E0A816B1049A
:1010F00081F7F394EFEF8E1A9E0AF6E0FF12DECF2F
:101100000A5F1F4F1093C2020093C102BCCF089523
:1011100090E080E00895AF92BF92CF92DF92EF927D
:10112000FF920F931F93CF93DF936C017B01FA0122
:10113000C801D601CD91DC91C41BD50BDB01AD906C
:10114000BC90A21AB30A64E070E00E94EA198230EF
:101150009105D1F083309105F9F0019751F4EA1926
:10116000FB09D601ED93FC932C0F3D1FF701318352
:101170002083DF91CF911F910F91FF90EF90DF902F
:10118000CF90BF90AF900895EC1BFD0BD601ED936F
:10119000FC932A193B09EACFEA0DFB1DD601ED931A
:1011A000FC932C1B3D0BE2CFAF92BF92CF92DF920C
:1011B000EF92FF920F931F93CF93DF93CDB7DEB7DC
:1011C00060970FB6F894DEBF0FBECDBF4730510514
:1011D00008F050C07901FA01EF50F74F6C010C9400
:1011E000FE19F8084B095A09710988099709010A7B
:1011F00026E0C20ED11C5B0126E0A20EB11C9A8330
:1012000089837C836B839C01245F3F4F3E832D83C6
:1012100078876F839A878987645F7F4F7C876B8726
:1012200087019501A601BE016D5F7F4FCE0101963A
:101230000E948B089501A601BE01695F7F4FCE0118
:1012400005960E948B089501A601BE01655F7F4F40
:10125000CE0109960E948B08EB84FC8409851A85CF
:101260002F8138854D815E816B817C8189819A8156
:101270000E94FA0760960FB6F894DEBF0FBECDBF8E
:10128000DF91CF911F910F91FF90EF90DF90CF9062
:10129000BF90AF90089526E0C20ED11C5B0126E0FE
:1012A000A20EB11C9A8389837C836B830C969E83E8
:1012B0008D83AECF25E0C20ED11C5B0125E0A20ECE
:1012C000B11C9A8389837C836B839C01265F3F4F8B
:1012D0003E832D8378876F839A878987665F7F4FE8
:1012E0009DCF24E0C20ED11C5B0124E0A20EB11CF4
:1012F0009A8389837C836B839C01285F3F4F3E8365
:101300002D8378876F839A878987685F7F4F86CF21
:1013100024E0C20ED11C5B0124E0A20EB11C9A8312
:1013200089837C836B8308969E838D83EACF24E038
:10133000C20ED11C5B0124E0A20EB11C9A838983EA
:101340007C836B839C01285F3F4F3E832D8378878E
:101350006F833A872987685F7F4F7C876B879E877B
:101360008D87788B6F8787019501A601BE016D5F20
:101370007F4FCE0101960E948B089501A601BE0108
:10138000695F7F4FCE0105960E948B089501A601EB
:10139000BE01655F7F4FCE0109960E948B089501C3
:1013A000A601BE01615F7F4FCE010D960E948B08A2
:1013B0002F8138854D815E816B817C8189819A8105
:1013C0000E9476072B853C8549855A856F817885F3
:1013D0008D819E810E9476072F8538894D855E8597
:1013E0006B857C8589859A850E9476072B813C8157
:1013F00049815A816F8578898D859E850E947607FF
:1014000039CF26E0C20ED11C5B0123E0A20EB11C35
:101410009A8389837C836B839C01265F3F4F3E8345
:101420002D8378876F832E5F3F4F3A8729876A5FC6
:101430007F4F7C876B87029692CF8F929F92AF925D
:10144000BF920F931F93CF93DF93CDB7DEB7A197D2
:101450000FB6F894DEBF0FBECDBF19A2423008F41C
:101460004AE08E010F5D1F4F842E912CB12CA12CD0
:10147000A50194010E94B919E62FB901CA01EA3009
:1014800044F5E05DD801EE938D01232B242B252B11
:1014900079F790E080E0109769F0FD01019000205D
:1014A000E9F73197AF014A1B5B0BBD0188E397E079
:1014B0000E942B06A1960FB6F894DEBF0FBECDBFDB
:1014C000DF91CF911F910F91BF90AF909F908F9020
:1014D0000895E95CD7CFFC0101900020E9F731972E
:1014E000AF01481B590BBC0188E397E00C942B0615
:1014F000CF92DF92EF92FF92CF93DF936C01990F1F
:10150000EE08FF08F7FE19C06DE288E397E00E943D
:101510002408EC0166277727CB016C197D098E0919
:101520009F094AE00E941D0A8C0F9D1FDF91CF91F9
:10153000FF90EF90DF90CF9008954AE0C701B60189
:10154000DF91CF91FF90EF90DF90CF900C941D0A28
:101550000C9498191F920F920FB60F9211248F932B
:101560009F938091E1009091E100937F9093E1003F
:1015700083FF0FC01092E90091E09093EB0010926E
:10158000EC0092E39093ED001092E70298E09093C4
:10159000F00082FF22C093E09093E9009091F20066
:1015A000992319F09AE39093E8009091D802992337
:1015B00041F09091D80291509093D802911101C0BE
:1015C0005D9A9091E602992341F09091E602915044
:1015D0009093E602911101C0289A84FF18C080916F
:1015E000E2008E7E81608093E2008091E1008F7E38
:1015F0008093E1008091D9028E7E80618093D90230
:101600009F918F910F900FBE0F901F90189580FFA4
:10161000F7CF8091E2008E7E80618093E20080911E
:10162000E1008E7E8093E1008091D9028E7E816000
:10163000E5CF1F920F920FB60F921124CF92DF9237
:10164000EF92FF920F931F932F933F934F935F93CC
:101650006F937F938F939F93AF93BF93EF93FF937A
:10166000CF93DF93CDB7DEB76C97DEBFCDBF1092BF
:10167000E9008091E80083FF25C068E0CE0145962F
:101680000E94350582EF8093E8008D8987FF39C07D
:101690009091E80090FFFCCF982F907609F034C12C
:1016A0009E894F89588D2F89F88C911131C08038CF
:1016B00061F58091D7028093F1001092F1008EEFD6
:1016C0008093E8006C960FB6F894DEBF0FBECDBFD6
:1016D000DF91CF91FF91EF91BF91AF919F918F914A
:1016E0007F916F915F914F913F912F911F910F913A
:1016F000FF90EF90DF90CF900F900FBE0F901F9054
:1017000018959EEF9093E800C7CF1092F100D5CFC7
:10171000913059F48111D3CF4130510581F6809138
:10172000D7028D7F8093D702CACF933049F48111BD
:10173000C6CF4130510519F68091D7028260F2CFB1
:10174000953041F48091E80080FFFCCF2068209321
:10175000E300B5CF963009F0A9C00B8D1C8D22E0B7
:101760001092E9001092D5021092D402F2122EC00B
:101770001092D3021092D2020E9404051F8299E0B7
:101780009983FA8291E09E8390EA98879AEF9987ED
:101790002091D4023091D502275F3F4F3C832B83A9
:1017A0008D831092E9001092D5021092D40210930A
:1017B000D3020093D20249E050E0BE016F5F7F4F39
:1017C00080E00E94DE040E94040579CF1093D302CA
:1017D0000093D2020E941B04DC0112960D911C9111
:1017E0000115110509F451C1D801ED91FC91048056
:1017F000F581E02DBE016B5E7F4FC8010995009712
:1018000009F03EC1F80100851185EACFF3E0FF122F
:101810000EC08F89882309F440C0823061F440E80B
:1018200060E18DEC96E00E94950D811148CF81E238
:101830008093EB0047CF813029F440E86BE081ECE6
:1018400096E0F1CF833099F70E941B04DC011296D9
:10185000ED90FC908E010F5F1F4F6801E114F104C1
:1018600079F0D701ED91FC910680F781E02DB80168
:10187000C7010995080F111DF701E084F184EECF2F
:10188000D8011C92F60101900020E9F73197BF01C1
:101890006C197D0940E0C601C6CF6BEA76E0FB011A
:1018A000449150E080E80E94DE0409CF973009F4AB
:1018B000BECF983021F481E08093F10000CF9930C1
:1018C00009F0FDCE837009F0B2CFE1E9F1E081E0EB
:1018D00031E096E32191222371F08093E900309367
:1018E000EB00DF0111972C912093EC009093ED0019
:1018F0008F5F873079F78EE78093EA001092EA00D5
:101900008F898093E702DBCE8B8D9C8D1092E9004E
:101910001092D5021092D4029093D3028093D202F7
:10192000898D811192C08E899D89913A49F48132C5
:1019300009F07DCF47E050E065E071E080E0B3CF93
:10194000913209F074CF833269F48F89988DB0E0B9
:10195000A0E08093010190930201A0930301B09352
:101960000401ADCE803269F48091E80082FFFCCFA3
:1019700067E085E091E00E9435058BEF8093E800F9
:101980009ECE823209F09BCE8F8980930C01EEEFC0
:10199000FFE7859194918B3F9C4D51F1E0E0F8E099
:1019A0008091050190910601A0910701B091080175
:1019B000803B9440A105B105F1F480910C0180FDBC
:1019C0001AC0EE3F8AE0F80789F587E797E7918329
:1019D0008083809160008093D60288E19BE00FB6FF
:1019E000F894A895809360000FBE9093600067CE36
:1019F000EEEFFAE0D5CF808191818737974709F0E4
:101A00005ECEA8958091600088618093600080918F
:101A1000D60280936000EE3F2AE0F20789F08091C1
:101A2000FE0A9091FF0A9183808349CE8081918143
:101A30008737980751F29093FF0A8093FE0AC5CF2B
:101A40001092FF0A1092FE0A3ACE0E941B04DC019B
:101A500012960D911C910115110509F4E8CED801DB
:101A6000ED91FC910190F081E02DBE016B5E7F4F06
:101A7000C8010995811123CEF80100851185EBCFAE
:101A8000181619060CF41BCED2CEF1E0FF12BECE12
:101A90006FEA76E004CF1F920F920FB60F921124D7
:101AA0002F933F938F939F93AF93BF938091CA02DD
:101AB0009091CB02A091CC02B091CD023091C9029D
:101AC00023E0230F2D3758F50196A11DB11D20935A
:101AD000C9028093CA029093CB02A093CC02B09328
:101AE000CD028091CE029091CF02A091D002B09110
:101AF000D1020196A11DB11D8093CE029093CF0219
:101B0000A093D002B093D102BF91AF919F918F91DA
:101B10003F912F910F900FBE0F901F90189526E8C0
:101B2000230F0296A11DB11DD2CFEF92FF920F930A
:101B30001F93CF93DF93F82E192FE62E042F81E009
:101B4000860F880F0E94B00483E00E94B004CF2D5E
:101B5000D12FEC0EFD2EF11CCE15DF05B9F007FFDD
:101B600013C0FE0184910E94B004182F80E00E94EF
:101B7000B004812321968111EFCFDF91CF911F9186
:101B80000F91FF90EF9008958881EDCF81E0F5CF20
:101B9000E8EEF6E01382128288EE93E0A0E0B0E077
:101BA00084839583A683B7838BE991E091838083B7
:101BB0008FEF9FEF95878487E8E3F7E01382128227
:101BC0008DEA91E0918380830895CF93DF9300D0D5
:101BD00000D01F92CDB7DEB7789484B5826084BD03
:101BE00084B5816084BD85B5826085BD85B5816021
:101BF00085BD80916E00816080936E00109281009F
:101C00008091810082608093810080918100816059
:101C1000809381008091800081608093800080911A
:101C20009100826080939100809191008160809307
:101C30009100809190008160809390008091C1001C
:101C400084608093C1008091C10082608093C10054
:101C50008091C10081608093C1008091C300816048
:101C60008093C3008091C00082608093C000809107
:101C7000C20081608093C20080917A00846080936A
:101C80007A0080917A00826080937A0080917A0055
:101C9000816080937A0080917A00806880937A00D6
:101CA0001092E7021092D7021092D9028091D700C9
:101CB00081608093D70080EA8093D80089B58061E5
:101CC00089BD89B5826089BD09B400FEFDCF61E0A0
:101CD00070E080E090E00E9467058091D8008F7CE2
:101CE00080618093D8008091E000807F8093E00045
:101CF0008091E1008E7E8093E1008DE08093E20090
:101D0000559A209A81EC80937C0085B1806F85B9CB
:101D100084B1877E84B984B1876E84B95E9A5F98F6
:101D20008AB1806D8AB9769A6E9881B3806F81BBD3
:101D3000899880B38D7080BB80E58CBD81E08DBDBE
:101D400085E090E00E945A065F9A85E090E00E944C
:101D50005A065E985C98ECE5F6E089E696E02491F8
:101D60002EBD00000DB407FEFDCF31968E179F07E4
:101D7000B1F75C9A81E8809364008091650081608E
:101D8000809365000E94880680E80E947D06882373
:101D9000A9F05C9885EA8EBD00000DB407FEFDCF6A
:101DA0005C9A2E982F982D98809164008062809381
:101DB000640081E083BF889513BEFCCF84E00E945D
:101DC0007D06882309F448C02D9884E80E947D068A
:101DD0008823E1F00E94580688EC90E00E945A06A1
:101DE0002F9882E090E00E9498198F3F29F06FEFC2
:101DF00082E090E00E94A01984EF91E00E945A06D0
:101E00002F9A84E80E947D068111FBCF84E10E9415
:101E10007D068823E1F00E94580688EC90E00E943D
:101E20005A062E9882E090E00E949819882329F0A3
:101E300060E082E090E00E94A01984EF91E00E94AF
:101E40005A062E9A84E10E947D068111FBCF88EC10
:101E500090E00E945A06B2CF0E94580682E090E0BD
:101E60000E94A80A882309F474C03E9A3F9A81E030
:101E700090E00E94A80A282F2470922E81FF14C09F
:101E800021112E9841EF5FEF5A83498308E010E05B
:101E900078E5872E80E40E947D06882309F45CC0E3
:101EA0002E9A2F9A0E94580682E390E00E945A06CA
:101EB0000E945F068111F8CF81E280930001EEE776
:101EC000F2E090E080E072E16CE0AC0143705527F5
:101ED000749F9001759F300D1124265F3F4F318311
:101EE0002083AC015595479555954795649F900182
:101EF000659F300D1124235D3F4F338322839583EB
:101F00008483168210861782019639968730910550
:101F1000E1F6B4EF8B2E99249394A12CB12C19E106
:101F2000412E512CF2E06F2E712CA7E32A2E312C7A
:101F30000E941F0670914C027983772309F4DFC059
:101F400010924C0280E090E0892B91F30E940000F7
:101F5000E9CF3E983F988BCF992039F069817A81FB
:101F60006430710511F42E9A2F9881E00E94D103FC
:101F700029813A8137FF03C03195219531092770B6
:101F8000332789819A8197FD079663E09595879518
:101F90006A95E1F7A981BA81B7FF05C00197F801F9
:101FA000E21BF30B9F01BC017695762F6627779590
:101FB000679568517D4FF12CE12C3801621A730A44
:101FC0008E3FFFEF9F0709F43DC08E9CD0018F9C90
:101FD000B00D112450E040E0A455BA4F5B01E0E899
:101FE000AE0EB11C8F3F980791F0FD01E40FF51F75
:101FF000E4916B01C40ED51EF0E02F01022E01C04A
:10200000440C0A94EAF7F60154884528448A2115BD
:10201000310599F0FD01E40FF51FE4916501C40E4F
:10202000D51EF0E02F01062C02C0559447940A9467
:10203000E2F7F60154884528448A4F5F5F4F4835E0
:10204000510581F6019660587F4FEA94EF2809F018
:1020500052C00E9488068FE090E00E945A062981B3
:102060003A812F5F3F4F3A8329832931310509F0A7
:1020700011CF992011F02F9A2D9880E991E00E94BC
:102080005A060E94580681E090E00E94A80A80FF4C
:102090000BCF8AE090E00E94A80A9FEF980F9E3F26
:1020A00008F002CF22E330E03093C2022093C10255
:1020B00028E330E03093C4022093C3024BE050E0A9
:1020C0005A834983682F88E397E00E942408898116
:1020D0009A810E94A80A69817A816F5F7F4F7A8313
:1020E00069836131710571F70E94880688EE93E07B
:1020F0000E945A06D9CEEE24E394F12C61CF809150
:102100004D02962F981B892F90910001891748F452
:102110008F5F891708F016CF81E083BF889513BEC3
:1021200011CF81E080934C0260934D0280914A026E
:1021300090914B02019690934B0280934A028091BA
:10214000C6028093C5020E945F068093C602E8EE35
:10215000F2E0A981A111AFEF0024A193A193A19373
:10216000A1930394D1F71092C4021092C30210926B
:10217000C2021092C1028091C7029091C8028130C0
:10218000910509F499C08230910509F4B6C1892BF3
:1021900009F086C083E290E09093C2028093C1026E
:1021A000E8E0F0E0F093C402E093C30285EB91E035
:1021B0000E946B0A84E190E09093C2028093C10276
:1021C00082E190E09093C4028093C3028DEB91E092
:1021D0000E946B0A2EE130E04FE750E06EE170E0C4
:1021E00090E080E00E9476075092C2024092C102C5
:1021F00081E290E09093C4028093C3028091BF0279
:102200009091C002892B09F04EC08CEC91E00E94A5
:102210006B0A5092C2024092C1028AE290E090930F
:10222000C4028093C3028091BF029091C0020197C3
:10223000E9F584EE91E00E946B0A80E10E9472064B
:10224000882361F08091BF029091C0020196B30192
:102250000E94EA199093C0028093BF0280E80E9416
:102260007206882361F08091BF029091C0020196AE
:10227000B3010E94EA199093C0028093BF0288E0E4
:102280000E947206882361F08091BF029091C00283
:10229000892B79F481E090E09093C8028093C70283
:1022A0000E9488064FCE88ED91E0B1CF8EEE91E08E
:1022B000C2CF83E090E0F0CF5092C2024092C102C0
:1022C0007092C4026092C30288EF91E00E946B0A90
:1022D0002CE030E04FE750E06CE070E090E080E010
:1022E0000E9476071A821982E4E1DE2E09811A81A2
:1022F0000370112765E0000F111F6A95E1F78981CE
:102300009A819595879595958795D89EB001D99E88
:10231000700D11247B01F2E1EF0EF11C8091BD02E2
:102320009091BE0229813A812817390741F4605FF4
:102330007F4F2EE04CE1C80103960E94A906035F7F
:102340001F4F1093C2020093C102F092C402E092A8
:10235000C30249815A814F5F5F4F5A834983CA0143
:102360000E94780A69817A816830710509F0BECFD0
:102370008FE090E09093C2028093C1023092C40239
:102380002092C30285E092E00E946B0A80E40E94E2
:102390007206882369F08091BD029091BE02019679
:1023A00069817A810E94EA199093BE028093BD02EE
:1023B00080E20E947206882369F08091BD029091AC
:1023C000BE02079668E070E00E94EA199093BE0290
:1023D0008093BD0280E10E947206882361F08091A3
:1023E000BD029091BE02843091052CF40496909326
:1023F000BE028093BD0280E80E947206882361F0CD
:102400008091BD029091BE02843091052CF004971A
:102410009093BE028093BD0288E00E9472068823DA
:1024200009F460C07092C8026092C702ABE6B2E0E5
:10243000BA83A9838091BD029091BE024EE0489F6D
:102440009001499F300D1124EEE7F2E090E080E02A
:1024500002E11CE0BC0163707727069FA001079F83
:10246000500D1124465F5F4F51834083BC01759529
:10247000679575956795169FA001179F500D1124BC
:10248000435D5F4F53834283958384831682108616
:102490001782DC01AA0FBB1FA20FB31FA05EBE4FA5
:1024A0004D915C91A981BA814D935D93BA83A983C3
:1024B000019639968730910569F61092670210925D
:1024C0006602EFEFFFEFF0936902E093680210926B
:1024D0006A0285E0EDE0F1E0A9E7B2E001900D923B
:1024E0008A95E1F784E00E947206882309F4D8CE29
:1024F0001092C8021092C702D3CE24E630E0309387
:10250000C2022093C1029093C4028093C30284E16B
:1025100092E00E946B0AE0916602F0916702EE0F72
:10252000FF1FE559FD4F808191810E94780A82E367
:1025300090E09093C2028093C1021092C402109264
:10254000C30289E192E00E946B0AE0916602F09179
:102550006702E730F105D0F4E055FD4E0C94FE190A
:10256000B7123C1542154C1556155C156515A8E0BB
:10257000EA2EF12C06E410E022E030E04CE450E0DA
:1025800062E070E086E490E00E94FA0785E090E067
:102590009093C2028093C1027092C4026092C302FF
:1025A0008DE192E00E946B0A8091BD029091BE0283
:1025B00001960E94780A2CE030E04FE750E06CE092
:1025C00070E090E080E00E9476074091BD0250915B
:1025D000BE025A8349834130510509F49FC24230FB
:1025E000510509F4B3C2452B09F0E6C228E230E0F8
:1025F00042E350E068E270E080E590E00E947607F8
:1026000029E130E042E350E068E270E082E390E0EC
:102610000E94760727E130E041E350E069E170E095
:1026200081E390E00E94760724E130E04FE250E041
:1026300067E170E081E390E00E94760729E130E0F5
:102640004FE250E064E170E08FE290E00E94760794
:1026500029E130E04BE250E069E170E08FE290E088
:102660000E94760729E130E04BE250E069E170E03A
:102670008BE290E00E94760726E130E049E250E0EC
:1026800069E170E08BE290E00E9476072BE130E098
:1026900049E250E066E170E089E290E00E9476074E
:1026A0002EE130E047E250E06BE170E089E290E03B
:1026B0000E94760720E230E047E250E06EE170E0F1
:1026C00087E290E00E94760720E230E04BE250E0A3
:1026D00060E270E087E290E00E9476072BE230E053
:1026E0004BE250E060E270E08BE290E00E947607FF
:1026F00021E330E042E350E06BE270E08BE290E0F7
:102700000E94760727E330E042E350E061E370E0A7
:1027100082E390E00E94760727E330E045E350E053
:1027200067E370E082E390E00E94760721E330E007
:1027300045E350E067E370E085E390E00E947607B0
:1027400027E330E047E350E061E370E087E390E0A7
:102750000E94760727E330E04AE350E067E370E049
:1027600087E390E00E94760721E330E04AE350E0FF
:1027700067E370E08AE390E00E94760727E330E0A9
:1027800041E450E061E370E081E490E00E9476076C
:1027900027E330E044E450E067E370E081E490E058
:1027A0000E94760721E330E044E450E067E370E004
:1027B00084E490E00E94760727E330E046E450E0AE
:1027C00061E370E086E490E00E94760727E330E062
:1027D00049E450E067E370E086E490E00E94760709
:1027E00021E330E049E450E067E370E089E490E001
:1027F0000E94760721E330E047E350E061E370E0B8
:1028000085E390E00E94760721E330E041E450E068
:1028100061E370E08AE390E00E94760721E330E014
:102820004BE450E061E370E089E490E00E947607B9
:102830002DE230E04DE450E061E370E08BE490E0A5
:102840000E9476072DE230E040E550E06DE270E056
:102850008DE490E00E94760728E230E040E550E009
:102860006DE270E080E590E00E9476070DEB12E0EB
:102870006EE772E07A836983A981BA8116968C919A
:102880001697882381F017962D913C9118971496EE
:102890004D915C91159712966D917C9113978D9146
:1028A0009C910E94D408E981FA813996FA83E983E0
:1028B0000E171F0709F7F0916A02F983FF23B1F0A1
:1028C000809168029091690229E0289FF001299F78
:1028D000F00D1124E258FD4F278130854481558148
:1028E00062817381808191810E94D40820917D0250
:1028F0002B83222379F0398131110CC060917B0246
:1029000070917C0222E042E08091790290917A02FB
:102910000E94A90680E80E947D06882329F080E1B4
:102920000E947D068111B6CC88E00E947206882341
:1029300079F00E941F0660934E0270934F028093BD
:1029400050029093510281E08093560210925802F7
:1029500084E00E947206882379F00E941F0660932B
:10296000520270935302809354029093550281E077
:1029700080935702109259024981411174C35B81BF
:10298000511138C0809156028823A1F188E00E943D
:102990007D06882379F10E941F0600914E02109156
:1029A0004F0220915002309151026B017C01C01AFC
:1029B000D10AE20AF30A64EFC61661E0D606E10422
:1029C000F10408F00FC124E044E167E370E082E322
:1029D00090E00E94A906A4E1B0E0A70196010E9440
:1029E000AE19A50194010E94B919622F82E390E00B
:1029F0000E94000780915702882309F412C1709148
:102A00007D02798384E00E947D06882309F409C150
:102A10000E941F060091520210915302209154020D
:102A2000309155026B017C01C01AD10AE20AF30A07
:102A30008981882309F49AC194EFC91691E0D906D7
:102A4000E104F10408F0E4C024E044E167E370E04D
:102A500080E590E00E94A906A4E1B0E0A7019601FC
:102A60000E94AE19A50194010E94B919622F80E558
:102A700090E00E940007D5C0F8E0EF2EF12C0CE4A6
:102A800010E07ACDE7E0EE2EF12C06E410E022E033
:102A900030E04BE450E074CD76E0E72EF12C06E414
:102AA00010E022E030E04AE450E06ACD66E0E62E35
:102AB000F12C0AE410E0F5CF24E044E062E070E09D
:102AC00086E490E00E94A90661CD22E030E04BE46C
:102AD00050E062E070E086E490E00E94760725E036
:102AE00030E04CE450E062E070E08BE490E00E9463
:102AF000760725E030E047E450E065E070E08CE4E4
:102B000090E00E94760722E030E046E450E065E085
:102B100070E087E490E00E94760738CD2AE044E137
:102B20006EE170E088E290E00E94A90658E2E52E8E
:102B3000F12C0CE310E023E230E046E450E06EE1DB
:102B400070E08CE390E00E94FA0790CE23E2E22E40
:102B5000F12C0CE310E023E230E048E250E069E1C0
:102B600070E082E390E00E94FA073DE2E32EF12C50
:102B700001E410E02DE230E043E250E06EE170E06D
:102B800082E390E00E94FA0747E3E42EF12C06E48A
:102B900010E027E330E04EE150E068E270E082E3CD
:102BA00090E00E94FA0725E046E067E370E08FE2DC
:102BB00090E00E94A9065ACE83E290E09093C20270
:102BC0008093C1028EE190E09093C4028093C3028F
:102BD00082E292E00E946B0A89819A8101960E94AA
:102BE000780A44CE80915802811104CF81E080930D
:102BF000580280937D0280E490E090937A02809363
:102C0000790285E290E090937C0280937B02F2CE81
:102C10008091590281110AC081E08093590210927B
:102C20007D0280917D02882309F47AC180E20E94AE
:102C30007D06882361F08091790290917A028B3031
:102C400091052CF0019790937A028093790280E4A9
:102C50000E947D06882361F08091790290917A022A
:102C6000863791052CF4019690937A02809379022D
:102C700080E80E947D06882361F080917B0290911C
:102C80007C02853191052CF0019790937C02809312
:102C90007B0280E10E947D06882361F080917B02A7
:102CA00090917C02873391052CF4019690937C02DD
:102CB00080937B0288E00E946706882309F4A1C004
:102CC000C0905602CC2009F49CC0D0905802D1107C
:102CD00094C0EEE7F2E01D821C8286818111A3C0C0
:102CE0008091790290917A029C012F5F3F4F3A8345
:102CF000298349815A81481759070CF494C02091BF
:102D00007B0230917C0289010F5F1F4F021713076E
:102D10000CF487C0E080F1806481758167307105B3
:102D200008F04CC0AB01475E5E4FDA014C91042EB7
:102D3000000C550B6E5E7E4FDB016C91062E000C75
:102D4000770B8E159F057CF04E0D5F1D48175907B8
:102D500054F042815381241735072CF0460F571F3A
:102D60004217530784F52F5F3F4FD0CFA8EECA1606
:102D7000A3E0DA06E104F10498F424E044E167E317
:102D800070E080E590E00E94A906A4E1B0E0A70110
:102D900096010E94AE1928EE33E040E050E064CE88
:102DA000809159028111BCC081E08093590281E079
:102DB00090E09093C8028093C70233CF48E050E080
:102DC00068E070E0BECFEC81FD81F0936902E09392
:102DD000680281E080936A0210927D02DC2C1092DE
:102DE000C2021092C1023092C4022092C302DD20BE
:102DF00031F189E292E00E946B0A10925602109221
:102E0000580284E00E946706882309F449CA809129
:102E10005702882309F444CA1092570210925902AB
:102E20003FCA019666CF2C813D812F5F3F4F3D8386
:102E30002C8339962730310509F04FCFD0CF84E36A
:102E400092E00E946B0A1092C2021092C10240E30B
:102E500050E05093C4024093C3028FE392E00E947B
:102E60006B0A8091790290917A020E94780A82E43A
:102E700092E00E946B0A80917B0290917C020E94FA
:102E8000780A88E290E09093C2028093C10260E3E6
:102E900070E07093C4026093C30284E492E00E94E5
:102EA0006B0A80917E0290917F020E94780A82E4F0
:102EB00092E00E946B0A80918002909181020E94B0
:102EC000780A87E292E00E946B0A809182029091D8
:102ED000830287309105F0F4875E9E4FDC018C9170
:102EE000082E000C990B0E94780A88E492E00E9458
:102EF0006B0A80918202909183028730910568F479
:102F00008E5E9E4FFC018081082E000C990B0E9462
:102F1000780A73CF88E090E0E6CF88E090E0F7CFC2
:102F200080E40E947206882369F080916602909185
:102F30006702019667E070E00E94EA1990936702C9
:102F40008093660280E20E947206882369F0809175
:102F5000660290916702069667E070E00E94EA19A7
:102F6000909367028093660288E00E946706882338
:102F700009F447CF80915602882309F442CF80910B
:102F8000580281113ACF6091660270916702AB01DD
:102F9000440F551FFA01E559FD4F2081318112166A
:102FA00013060CF02ACFEEE7F2E090E080E0A68175
:102FB000A11124C0A9E0A89FF001A99FF00D112440
:102FC000E258FD4F7583648360E470E07183608331
:102FD00065E270E073836283168210861782909395
:102FE00069028093680281E080936A0245595D4FCF
:102FF00021503109DA012D933C93FFCE0196399689
:1030000087309105A1F6F9CE28E030E065C028E0D0
:1030100030E0AEC010925E0210925F021092600229
:103020001092610257C1209168023091690249E013
:10303000429FC001439F900D112482589D4F21E073
:10304000DC0116962C9310926A021092560210928E
:10305000580240C110926202109263021092640200
:10306000109265021DC980E20E947D068823A1F0AE
:10307000809168029091690229E0289FF001299FC0
:10308000F00D1124E258FD4F808191818B30910524
:103090001CF001979183808380E40E947D06882341
:1030A00071F1609168027091690289E0869FF00178
:1030B000879FF00D1124E258FD4F8081918124817A
:1030C00035812730310508F09FCF275E3E4FF9014B
:1030D0002081022E000C330B46E750E0421B530BBD
:1030E0008417950764F449E0469F9001479F300D8F
:1030F000112422583D4F0196D9018D939C9380E86D
:103100000E947D068823A1F0809168029091690257
:1031100029E0289FF001299FF00D1124E258FD4F6E
:1031200082819381853191051CF00197938382837D
:1031300080E10E947D06882379F1409168025091D8
:10314000690289E0849FF001859FF00D1124E25807
:10315000FD4F82819381248135812730310508F02C
:1031600056CF2E5E3E4FF9012081022E000C330B0C
:10317000B101621B730B8617970774F469E0649FB3
:103180009001659F300D112422583D4F0196D901C1
:1031900013969C938E9312970E941F066B017C01DD
:1031A00080915A0290915B02A0915C02B0915D0205
:1031B000A7019601281B390B4A0B5B0BDA01C901E9
:1031C0008D329140A105B10508F476C084E00E94DB
:1031D00067068823B1F180915702882391F10E94FC
:1031E0001F06009152021091530220915402309117
:1031F0005502601B710B820B930B6C327140810581
:103200009105E8F4809168029091690229E0289F75
:10321000F001299FF00D1124E258FD4F8781908520
:10322000019664E070E00E94EA1990878783C0925B
:103230005A02D0925B02E0925C02F0925D02109220
:10324000570288E00E9467068823B1F180915602F8
:10325000882391F10E941F0600914E0210914F02A7
:103260002091500230915102601B710B820B930B25
:103270006C32714081059105E8F48091680290916B
:10328000690229E0289FF001299FF00D1124E258DE
:10329000FD4F87819085039664E070E00E94EA19F3
:1032A00090878783C0925A02D0925B02E0925C02C0
:1032B000F0925D021092560288E00E947D068823FB
:1032C00009F4A8CE62E370E08EE592E00E94220746
:1032D0008111A9CE84E00E947D06882309F4BACE2C
:1032E00060E570E082E692E00E942207882311F4F4
:1032F0000C945011809168029091690229E0289FF6
:10330000D001299FB00D1124A258BD4F1496ED9104
:10331000FC91159716961C9210926A02EE0FFF1FF1
:10332000E559FD4F8081918101969183808374CD11
:10333000F999FECF92BD81BDF89A992780B508957D
:10334000262FF999FECF1FBA92BD81BD20BD0FB6C1
:10335000F894FA9AF99A0FBE019608950E94DB1923
:10336000A59F900DB49F900DA49F800D911D1124D9
:103370000895A1E21A2EAA1BBB1BFD010DC0AA1FB6
:10338000BB1FEE1FFF1FA217B307E407F50720F0CE
:10339000A21BB30BE40BF50B661F771F881F991F49
:1033A0001A9469F760957095809590959B01AC0192
:1033B000BD01CF010895A29FB001B39FC001A39F9B
:1033C000700D811D1124911DB29F700D811D11245E
:1033D000911D089597FB072E16F4009407D077FDF2
:1033E00009D00E94041A07FC05D03EF490958195FF
:1033F0009F4F0895709561957F4F0895EE0FFF1FC1
:103400000590F491E02D0994AA1BBB1B51E107C064
:10341000AA1FBB1FA617B70710F0A61BB70B881F64
:10342000991F5A95A9F780959095BC01CD010895F3
:04343000F894FFCF3E
:1034340010FFFFFFFF00E100000000000040002536
:1034440000000C0C0A080808060C0C0A0808080CF2
:10345400020002000100020002000100010001005C
:103464000100010001000100010001000200000050
:103474000100000002000100000001000100000042
:103484000200000001000100000000000200020030
:103494000200010000000200020000000000000021
:1034A4000000010001000000010001000000010013
:1034B4000100000002000100010001000000010001
:1034C40000C18081000000000000002F049A055014
:1034D4000445049604540472040000000024082BDC
:1034E400068808870854414E4752414D00434C41D9
:1034F400535349432050555A5A4C45003E20504C92
:1035040041592047414D45002020504C4159204706
:10351400414D45003E2053414E44424F5800202027
:1035240053414E44424F580053454C454354204C5C
:103534004556454C00413A506C61792020423A424C
:1035440061636B00636E743A0073683A006C766C66
:103554005F004C4556454C20004849543A2074724B
:10356400756520004849543A2066616C73650043D0
:0A3574003A002C0050303A007800B5
:00000001FF
