:100000000C9470030C9498030C9498030C9498032C
:100010000C9498030C9498030C9498030C949803F4
:100020000C9498030C9498030C94740B0C94E30BAD
:100030000C9498030C9498030C9498030C949803D4
:100040000C9498030C9498030C9498030C949803C4
:100050000C9498030C9498030C9498030C94150E2C
:100060000C9498030C9498030C9498030C949803A4
:100070000C9498030C9498030C9498030C94980394
:100080000C9498030C9498030C9498030C94980384
:100090000C9498030C9498030C9498030C94980374
:1000A0000C9498030C9498030C949803000000009F
:1000B000003E5B4F5B3E3E6B4F6B3E1C3E7C3E1CEE
:1000C000183C7E3C181C577D571C1C5E7F5E1C0034
:1000D000183C1800FFE7C3E7FF0018241800FFE7EB
:1000E000DBE7FF30483A060E2629792926407F05AE
:1000F0000507407F05253F5A3CE73C5A7F3E1C1CC4
:1001000008081C1C3E7F14227F22145F5F005F5F83
:1001100006097F017F006689956A6060606060946F
:10012000A2FFA29408047E040810207E2010080874
:100130002A1C08081C2A08081E101010100C1E0C7F
:100140001E0C30383E3830060E3E0E060000000011
:100150000000005F00000007000700147F147F14F8
:10016000242A7F2A1223130864623649562050003D
:1001700008070300001C2241000041221C002A1C29
:100180007F1C2A08083E0808008070300008080814
:100190000808000060600020100804023E51494534
:1001A0003E00427F400072494949462141494D3352
:1001B0001814127F1027454545393C4A49493141B9
:1001C000211109073649494936464949291E000087
:1001D00014000000403400000008142241141414DC
:1001E0001414004122140802015909063E415D59C8
:1001F0004E7C1211127C7F494949363E41414122D1
:100200007F4141413E7F494949417F090909013EFA
:10021000414151737F0808087F00417F4100204021
:10022000413F017F081422417F404040407F021C33
:10023000027F7F0408107F3E4141413E7F0909094A
:10024000063E4151215E7F09192946264949493216
:1002500003017F01033F4040403F1F2040201F3FDC
:100260004038403F63140814630304780403615961
:10027000494D43007F4141410204081020004141A3
:10028000417F04020102044040404040000307084F
:100290000020545478407F2844443838444444284B
:1002A000384444287F385454541800087E090218F2
:1002B000A4A49C787F0804047800447D400020407A
:1002C000403D007F1028440000417F40007C0478BE
:1002D00004787C080404783844444438FC18242406
:1002E0001818242418FC7C08040408485454542486
:1002F00004043F44243C4040207C1C2040201C3C03
:100300004030403C44281028444C9090907C4464F9
:10031000544C44000836410000007700000041368C
:10032000080002010204023C2623263C1EA1A16112
:10033000123A4040207A3854545559215555794144
:100340002154547841215554784020545579400C1B
:100350001E527212395555555939545454593955FC
:100360005454580000457C410002457D420001453F
:100370007C40F0292429F0F0282528F07C545545AC
:10038000002054547C547C0A097F4932494949323F
:100390003248484832324A4848303A4141217A3A54
:1003A00042402078009DA0A07D39444444393D401E
:1003B00040403D3C24FF2424487E4943662B2FFCCB
:1003C0002F2BFF0929F620C0887E09032054547979
:1003D000410000447D413048484A32384040227A4A
:1003E000007A0A0A727D0D19317D2629292F2826C7
:1003F0002929292630484D402038080808080808CF
:100400000808382F10C8ACBA2F102834FA00007B27
:10041000000008142A142222142A1408950022002D
:1004200095AA005500AAAA55AA55AA000000FF00E7
:10043000101010FF00141414FF001010FF00FF1024
:1004400010F010F0141414FC001414F700FF000056
:10045000FF00FF1414F404FC141417101F10101FD5
:10046000101F1414141F00101010F0000000001FC3
:10047000101010101F10101010F010000000FF10CE
:100480001010101010101010FF10000000FF1400CA
:1004900000FF00FF00001F10170000FC04F41414FC
:1004A0001710171414F404F40000FF00F7141414C8
:1004B00014141414F700F7141414171410101F1048
:1004C0001F141414F4141010F010F000001F101F6B
:1004D0000000001F14000000FC140000F010F010D9
:1004E00010FF10FF141414FF141010101F00000050
:1004F00000F010FFFFFFFFFFF0F0F0F0F0FFFFFF54
:100500000000000000FFFF0F0F0F0F0F38444438AA
:10051000447C2A2A3E147E02020606027E027E02E5
:1005200063554941633844443C04407E201E200604
:10053000027E020299A5E7A5991C2A492A1C4C7241
:1005400001724C304A4D4D303048784830BC625AC8
:10055000463D3E494949007E0101017E2A2A2A2A58
:100560002A44445F444440514A444040444A514034
:100570000000FF0103E080FF000008086B6B0836F5
:1005800012362436060F090F060000181800000066
:100590001010003040FF0101001F01011E00191D55
:1005A0001712003C3C3C3C0000000000F0F89C8E20
:1005B0008783878E9CF8F00000FEFF03030303038C
:1005C000070EFCF80000FEFF0303030303070EFC05
:1005D000F80000FFFF00000000000000FFFF000027
:1005E000FEFF8383838383C7EE7C380000F8FC0E14
:1005F00007030303070EFCF800003F7FE0C0808084
:10060000C0E07F3FFFFF01010101010101FFFF0089
:1006100000FFFF0C0C0C0C1C3E77E3C100007FFFB9
:10062000C0C0C0C0C0E0703F1F00001F3F70E0C0EE
:10063000C0C0E0703F1F00007FFFC1C1C1C1C1E366
:10064000773E1C00001F3F70E0C0C0C0E0703F1F3D
:10065000000000000001FFFF01000000D5F08D1434
:10066000A1C881CFD9F1AF2000080B00020202001F
:100670000009040000010202000005240010010529
:100680002401010104240206052406000107058156
:100690000310004009040100020A000000070502DF
:1006A0000240000007058302400000040309041211
:1006B000010002EF020140412336800001010203E4
:1006C0000141726475696E6F204C4C430041726445
:1006D00075696E6F204C656F6E6172646F00920E6B
:1006E00011241FBECFEFDAE0DEBFCDBF12E0A0E0E5
:1006F000B1E0EAE5F2E302C005900D92A235B10740
:10070000D9F727E0A2E5B2E001C01D92A434B207F8
:10071000E1F713E0C0E7D3E004C02197FE010E9497
:100720001119CF36D107C9F70E94AF0E0C942B19BF
:100730000C940000480F592F511D1416150684F50E
:10074000803891056CF597FF02C090E080E0413859
:10075000510514F040E850E0481BFB01E770FF270B
:1007600021E001C0220FEA95EAF777FF02C0695F36
:100770007F4FFB0133E0F595E7953A95E1F7F69564
:10078000FE2FEE27F795E795E80FF91FE051FD4F93
:10079000415030F08191DF011197822B8C93F8CF7B
:1007A00008952091EE023091EF02232B59F4873007
:1007B000910570F482569E4FFC018081082E000C3A
:1007C000990B08958730910518F489569E4FF4CF00
:1007D00088E090E008952091EE023091EF02232B03
:1007E00059F48730910570F480579E4FFC01808149
:1007F000082E000C990B08958730910518F487573F
:100800009E4FF4CF88E090E00895E0EFF2E0A0E0A2
:10081000B8E000800EBC8111012C1197A0FDFDCF26
:100820000192B9F70DB40895FC018091ED0288237F
:1008300011F13FB7F89482E08093E9002091F20033
:10084000822F90E01816190614F481E090E08823B6
:1008500039F0289844E64093EC024091F10040833F
:10086000222339F02091F200211103C02BE62093BE
:10087000E8003FBF08958FEF9FEF08952FB7F894DA
:1008800083E08093E9009091E800892F807295FFC2
:1008900004C09091F20080E4891B2FBF08958091DD
:1008A000E40281110DC082E08093E00284E0809335
:1008B000E1021092E3021092E20281E08093E402EE
:1008C00080EE92E00895CF93DF931F92CDB7DEB70D
:1008D0006983DC01ED91FC910280F381E02D41E020
:1008E00050E0BE016F5F7F4F09950F90DF91CF9170
:1008F000089583E08093E9008091F200882319F045
:100900008AE38093E80008950E943E0490E00895F1
:10091000CF93DF931F92CDB7DEB7FC018485958519
:1009200097FD08C02FEF3FEF358724870F90DF91A9
:10093000CF910895CE0101960E941404019719F4F5
:10094000898190E0F3CF8FEF9FEFF0CF0F931F934C
:10095000CF93DF931F92CDB7DEB78C01FC01848566
:10096000958597FF0BC0CE0101960E941404019754
:1009700071F4898190E0F80195878487F801848576
:1009800095850F90DF91CF911F910F9108958FEF73
:100990009FEFF1CFFC018485958597FD0BC09FB734
:1009A000F89482E08093E9008091F2009FBF90E08C
:1009B000019608959FB7F89482E08093E9008091B2
:1009C000F2009FBF90E008954091DA025091DB025F
:1009D0002091D8023091D90242175307B4F4909174
:1009E000E8009570E1F39091E80092FD19C08093C2
:1009F000F1008091DA029091DB0201968F739927C2
:100A0000892B19F48EEF8093E8008091DA0290919F
:100A1000DB0201969093DB028093DA0281E0089575
:100A200080E00895DF92EF92FF920F931F93CF9390
:100A3000DF93D82E8A01EB017B01E40EF51ECE1563
:100A4000DF0559F0D7FE12C0FE0184910E94E40434
:100A500021968111F4CF0FEF1FEFC801DF91CF91E5
:100A60001F910F91FF90EF90DF9008958881EECF56
:100A70000F931F93CF93DF931F92CDB7DEB782E022
:100A8000898342E450E069E676E080E80E9412053E
:100A90000E944F04DC0112960D911C910115110565
:100AA00089F0D801ED91FC910280F381E02DBE0127
:100AB0006F5F7F4FC801099597FD04C0F80100855D
:100AC0001185ECCF89810F90DF91CF911F910F910C
:100AD0000895615030F02091F100FC0120830196CF
:100AE000F8CF289884E68093EC0208953FB7F894F5
:100AF0008091D4029091D502A091D602B091D702F4
:100B000026B5A89B05C02F3F19F00196A11DB11D68
:100B10003FBFBA2FA92F982F8827BC01CD01620FA4
:100B2000711D811D911D42E0660F771F881F991F5F
:100B30004A95D1F708958F929F92AF92BF92CF922C
:100B4000DF92EF92FF926B017C010E9476054B01D0
:100B50005C01C114D104E104F104B9F00E947605EE
:100B6000681979098A099B09683E734081059105D6
:100B700080F321E0C21AD108E108F10888EE880E5E
:100B800083E0981EA11CB11CE4CFFF90EF90DF9092
:100B9000CF90BF90AF909F908F9008958F929F922B
:100BA000AF92BF92CF92DF92EF92FF920F931F937B
:100BB000CF93DF936C017B018A0180910C01882324
:100BC00009F45CC08091ED02882309F457C080913C
:100BD000DF0280FF05C08091E00082608093E0002A
:100BE000E801B12C8AEFA82E93E0892E2AE3922EF9
:100BF000209711F4BB20D9F10E943E0481110AC054
:100C0000AA94AA20D9F161E070E080E090E00E940F
:100C10009B05EECF8C171D0611F00CF08C2F9FB7A3
:100C2000F8948092E9002091E80025FD02C09FBF62
:100C3000DFCF282F30E0C21BD30BF701815020F00B
:100C400041914093F100FACFE20EF31EBB2021F058
:100C50009092E800B12CEBCF8091E80085FDE7CFC2
:100C60009092E800BB24B394209709F3F3CF5D98EA
:100C700084E68093DE02101611063CF081E090E0DD
:100C8000F6019383828310E000E0C801DF91CF91E9
:100C90001F910F91FF90EF90DF90CF90BF90AF909A
:100CA0009F908F9008952FB7F8946091D002709123
:100CB000D1028091D2029091D3022FBF0895AF92BA
:100CC000BF92CF92DF92EF92FF920F931F93CF9339
:100CD000DF936C017B018B01040F151FEB015E019B
:100CE000AE18BF08C017D10759F06991D601ED9130
:100CF000FC910190F081E02DC6010995892B79F7CF
:100D0000C501DF91CF911F910F91FF90EF90DF9080
:100D1000CF90BF90AF9008952D9A0895BC0190E0B8
:100D200080E00C949B058FB18095807F669B8860E6
:100D30001C9B846008959091CB02982329F0909198
:100D4000CC02982381E009F080E008959091CB02D5
:100D5000982329F49091CC02982381E009F480E053
:100D60000895CF93C82F0E949306982F9C2381E06B
:100D70009C1380E0CF91089580E00C9405048038A6
:100D80009105B8F460347105A0F420E191E061FDB3
:100D900094E060FD990F62FD9295687F269FD001D7
:100DA0001124A80FA051BD4F8C9140FF03C0892B87
:100DB0008C93089590958923FBCF2F923F924F9269
:100DC0005F926F927F928F929F92AF92BF92CF92DB
:100DD000DF92EF92FF920F931F93CF93DF93EC017B
:100DE0008B017A016901C61AD70AD7FE03C0D194D4
:100DF000C194D10847018C1A9D0A97FE03C09194B3
:100E0000819491088C149D0454F49E2D8F2D7901AA
:100E1000292F382F9C2F8D2FE801092F182FEC1622
:100E2000FD0654F4902F812F8901292F382F9C2FF4
:100E30008D2FE701E92EF82E17012C1A3D0A290102
:100E4000401A510A57FE03C0519441945108310190
:100E500037FE03C08FEF681A780A759467948FEF96
:100E6000021713070CF481E0A82E880FBB08EC16BC
:100E7000FD06A4F041E0BE01C8018C149D0414F0ED
:100E8000B801CE010E94BF066418750877FE04C041
:100E90000A0D1B1D620C731C2196E9CFDF91CF91C7
:100EA0001F910F91FF90EF90DF90CF90BF90AF9088
:100EB0009F908F907F906F905F904F903F902F907A
:100EC00008958F929F92AF92BF92CF92DF92EF924E
:100ED000FF920F931F93CF93DF93EC016B015A01A5
:100EE00049010E94DD069701A801B401C5010E94D5
:100EF000DD069601AE01B701C801DF91CF911F91C8
:100F00000F91FF90EF90DF90CF90BF90AF909F90A8
:100F10008F900C94DD068F929F92AF92BF92CF92EA
:100F2000DF92EF92FF920F931F93CF93DF935C01B9
:100F3000EB01042FE22E6034710510F40E949A0335
:100F4000EC0EFD2EF11CB701615071096034710582
:100F500020F4402FC5010E949A03D7FF02C0D0E0C1
:100F6000C0E04E01670181E4E816F1041CF080E462
:100F7000C82ED12C8C149D044CF441E0B401C50161
:100F80000E94BF068FEF881A980AECCF0A0D1B2D1E
:100F9000111D01501109CC15DD053CF441E0BE01E5
:100FA000C8010E94BF062196F6CFDF91CF911F9115
:100FB0000F91FF90EF90DF90CF90BF90AF909F90F8
:100FC0008F900895EF92FF920F931F93CF93DF932B
:100FD000EC017C01E60EF11CCE15DF0574F407E38D
:100FE00010E041E0B801CE010E94BF060F5F1F4F25
:100FF0000B331105B1F72196EFCFDF91CF911F9100
:101000000F91FF90EF900895CF92DF92EF92FF92B1
:101010000F931F93CF93DF93EC018B01888199810C
:10102000AA81BB81892B8A2B8B2B31F40E9453061A
:10103000688379838A839B830E945306C880D98002
:10104000EA80FB809B01AC012C193D094E095F0928
:1010500069017A0138EEC31633E0D306E104F104E6
:1010600008F524E044E167E370E0C8010E948B07C3
:10107000A4E1B0E0A70196010E94C11828EE33E078
:1010800040E050E00E94CC18622FC8010E94E207A5
:1010900080E0DF91CF911F910F91FF90EF90DF9053
:1010A000CF900895188219821A821B8281E0F1CFB5
:1010B0008F929F92AF92BF92CF92DF92EF92FF9268
:1010C0000F931F93CF93DF936D3089F0C090C902C7
:1010D000D090CA026A30D1F41092C8021092C702AE
:1010E00088E0C80ED11CD092CA02C092C90281E029
:1010F00090E0DF91CF911F910F91FF90EF90DF90E3
:10110000CF90BF90AF909F908F9008950091C702AD
:101110001091C802E5E06E9FE0011124C455DF4F35
:101120004801F12CF5E0E12CFF1629F0CE010196E3
:10113000FE01E490EC01B12CA12C4E2D4170B601C2
:101140006A0D7B1DC4010E94BF06E694FFEFAF1A33
:10115000BF0A88E0A816B10481F7F394EFEF8E1A66
:101160009E0AF6E0FF12DECF0A5F1F4F1093C802FF
:101170000093C702BCCFAF92BF92CF92DF92EF92A3
:10118000FF920F931F93CF93DF936C017B01FA01C2
:10119000C801D601CD91DC91C41BD50BDB01AD900C
:1011A000BC90A21AB30A64E070E00E94FD1882307D
:1011B0009105D1F083309105F9F0019751F4EA19C6
:1011C000FB09D601ED93FC932C0F3D1FF7013183F2
:1011D0002083DF91CF911F910F91FF90EF90DF90CF
:1011E000CF90BF90AF900895EC1BFD0BD601ED930F
:1011F000FC932A193B09EACFEA0DFB1DD601ED93BA
:10120000FC932C1B3D0BE2CFAF92BF92CF92DF92AB
:10121000EF92FF920F931F93CF93DF93CDB7DEB77B
:1012200060970FB6F894DEBF0FBECDBF7901209155
:10123000EE023091EF02232B09F01EC1423051051E
:1012400009F48EC0C4F441155105B1F14130510586
:1012500009F475C060960FB6F894DEBF0FBECDBF1F
:10126000DF91CF911F910F91FF90EF90DF90CF9082
:10127000BF90AF9008954430510509F4E5C00CF4D7
:1012800078C04530510531F76C01E2E0CE0ED11C3B
:101290005B01F2E0AF0EB11C988B8F877E876D8764
:1012A0009C012B5F3F4F3C872B877A876987388764
:1012B0002F836B5F7F4F74C06C012AE0C20ED11C7C
:1012C0005B01E8E0AE0EB11C9C878B879B012F5E13
:1012D0003F4F3A872987449698878F833E832D8393
:1012E000DC82CB827A83698387019501A601BE01E6
:1012F000675F7F4FCE010B960E94BB089501A60148
:10130000BE016B5F7F4FCE0107960E94BB0895011F
:10131000A601BE016F5F7F4FCE0103960E94BB08FE
:10132000E980FA800B811C812D813E814F81588597
:1013300069857A858B859C850E9461078BCF6C01BE
:10134000F5E0CF0ED11C5B0124E0A20EB11C9C87FE
:101350008B879B01285F3F4F3A8729870A96BCCF2E
:101360006C01E5E0CE0ED11C5B01F4E0AF0EB11CC8
:10137000EECF6C0122E0C20ED11C5B01E5E0AE0EA7
:10138000B11C988B8F877E876D879C012B5F3F4FA9
:101390003C872B877A87698738872F83665F7F4FE3
:1013A0007E836D839C838B837A8369838701950118
:1013B000A601BE01635F7F4FCE010F960E94BB085E
:1013C0009501A601BE01675F7F4FCE010B960E947B
:1013D000BB089501A601BE016B5F7F4FCE0107964A
:1013E0000E94BB089501A601BE016F5F7F4FCE0131
:1013F00003960E94BB0829853A854B855C856D85DF
:101400007E858F8598890E94DD062D813E814F81E2
:10141000588569857A858B859C850E94DD062981A2
:101420003A814B815C816D817E818F8198850E949C
:10143000DD062D853E854F85588969817A818B81AE
:101440009C810E94DD0606CF6C01F7E0CF0ED11C17
:101450005B012CE0A20EB11C9C878B877A87698781
:101460009C01215F3F4F38872F837E836D839C8350
:101470008B83675E7F4F36CF4730510508F0EACE49
:101480004A5B554FFA016C010C9411194D0A640A1C
:10149000730A8A0AA10AB00AC70AF6E0CF0ED11C65
:1014A0005B0126E0A20EB11C9C878B877A87698737
:1014B0009C01245F3F4F38872F837E836D839C83FD
:1014C0008B83645F7F4F0ECFE6E0CE0ED11C5B01B5
:1014D000F6E0AF0EB11C9C878B877A8769870C96E4
:1014E00098878F83EACF25E0C20ED11C5B01E5E02F
:1014F000AE0EB11C9C878B877A8769879C01265F1B
:101500003F4F38872F837E836D839C838B83665FF9
:101510007F4FE8CEF4E0CF0ED11C5B0124E0A20E99
:10152000B11C9C878B877A8769879C01285F3F4F16
:1015300038872F837E836D839C838B83685F7F4F87
:10154000D1CEE4E0CE0ED11C5B01F4E0AF0EB11CB5
:101550009C878B877A876987089698878F83EACFDD
:1015600024E0C20ED11C5B01E4E0AE0EB11C988BEE
:101570008F877E876D879C01285F3F4F3C872B8735
:101580007A87698738872F83685F7F4F09CFF6E0B6
:10159000CF0ED11C5B0123E0A20EB11C988B8F876C
:1015A0007E876D879C01265F3F4F3C872B877A871C
:1015B00069872E5F3F4F38872F836A5F7F4F7E8317
:1015C0006D830296EFCE089590E080E008958F92AB
:1015D0009F92AF92BF920F931F93CF93DF93CDB79C
:1015E000DEB7A1970FB6F894DEBF0FBECDBF19A22C
:1015F000423008F44AE08E010F5D1F4F842E912C7B
:10160000B12CA12CA50194010E94CC18E62FB901A0
:10161000CA01EA3044F5E05DD801EE938D01232B39
:10162000242B252B79F790E080E0109769F0FD01DD
:1016300001900020E9F73197AF014A1B5B0BBD0118
:1016400080E497E00E945F06A1960FB6F894DEBF93
:101650000FBECDBFDF91CF911F910F91BF90AF9083
:101660009F908F900895E95CD7CFFC0101900020F6
:10167000E9F73197AF01481B590BBC0180E497E0B3
:101680000C945F06CF92DF92EF92FF92CF93DF939D
:101690006C01990FEE08FF08F7FE19C06DE280E4B7
:1016A00097E00E945808EC0166277727CB016C1958
:1016B0007D098E099F094AE00E94E70A8C0F9D1F51
:1016C000DF91CF91FF90EF90DF90CF9008954AE0A7
:1016D000C701B601DF91CF91FF90EF90DF90CF90DF
:1016E0000C94E70A0C94AB181F920F920FB60F924E
:1016F00011248F939F938091E1009091E100937F5B
:101700009093E10083FF0FC01092E90091E0909365
:10171000EB001092EC0092E39093ED001092ED023A
:1017200098E09093F00082FF22C093E09093E9004C
:101730009091F200992319F09AE39093E800909128
:10174000DE02992341F09091DE0291509093DE02E7
:10175000911101C05D9A9091EC02992341F0909112
:10176000EC0291509093EC02911101C0289A84FFF1
:1017700018C08091E2008E7E81608093E2008091AB
:10178000E1008F7E8093E1008091DF028E7E806198
:101790008093DF029F918F910F900FBE0F901F904B
:1017A000189580FFF7CF8091E2008E7E8061809354
:1017B000E2008091E1008E7E8093E1008091DF0263
:1017C0008E7E8160E5CF1F920F920FB60F9211248B
:1017D000CF92DF92EF92FF920F931F932F933F933D
:1017E0004F935F936F937F938F939F93AF93BF9329
:1017F000EF93FF93CF93DF93CDB7DEB76C97DEBF48
:10180000CDBF1092E9008091E80083FF25C068E019
:10181000CE0145960E94690582EF8093E8008D898C
:1018200087FF39C09091E80090FFFCCF982F907609
:1018300009F034C19E894F89588D2F89F88C9111F8
:1018400031C0803861F58091DD028093F100109203
:10185000F1008EEF8093E8006C960FB6F894DEBF2F
:101860000FBECDBFDF91CF91FF91EF91BF91AF91AF
:101870009F918F917F916F915F914F913F912F91A8
:101880001F910F91FF90EF90DF90CF900F900FBEC0
:101890000F901F9018959EEF9093E800C7CF10927D
:1018A000F100D5CF913059F48111D3CF413051059A
:1018B00081F68091DD028D7F8093DD02CACF933067
:1018C00049F48111C6CF4130510519F68091DD02EE
:1018D0008260F2CF953041F48091E80080FFFCCF28
:1018E00020682093E300B5CF963009F0A9C00B8D96
:1018F0001C8D22E01092E9001092DB021092DA02B5
:10190000F2122EC01092D9021092D8020E9438050D
:101910001F8299E09983FA8291E09E8390EA9887EA
:101920009AEF99872091DA023091DB02275F3F4FCF
:101930003C832B838D831092E9001092DB0210927E
:10194000DA021093D9020093D80249E050E0BE01B8
:101950006F5F7F4F80E00E9412050E94380579CFAB
:101960001093D9020093D8020E944F04DC01129612
:101970000D911C910115110509F451C1D801ED918A
:10198000FC910480F581E02DBE016B5E7F4FC801A4
:101990000995009709F03EC1F80100851185EACF4D
:1019A000F3E0FF120EC08F89882309F440C0823013
:1019B00061F440E860E18DEC96E00E945F0E8111D9
:1019C00048CF81E28093EB0047CF813029F440E893
:1019D0006BE081EC96E0F1CF833099F70E944F04E1
:1019E000DC011296ED90FC908E010F5F1F4F680195
:1019F000E114F10479F0D701ED91FC910680F781B3
:101A0000E02DB801C7010995080F111DF701E08409
:101A1000F184EECFD8011C92F60101900020E9F785
:101A20003197BF016C197D0940E0C601C6CF6BEA52
:101A300076E0FB01449150E080E80E94120509CF56
:101A4000973009F4BECF983021F481E08093F10003
:101A500000CF993009F0FDCE837009F0B2CFE3E8F2
:101A6000F1E081E031E096E32191222371F080934F
:101A7000E9003093EB00DF0111972C912093EC00EB
:101A80009093ED008F5F873079F78EE78093EA00BF
:101A90001092EA008F898093ED02DBCE8B8D9C8DB6
:101AA0001092E9001092DB021092DA029093D902B0
:101AB0008093D802898D811192C08E899D89913A37
:101AC00049F4813209F07DCF47E050E065E071E0F4
:101AD00080E0B3CF913209F074CF833269F48F89FB
:101AE000988DB0E0A0E08093010190930201A09353
:101AF0000301B0930401ADCE803269F48091E80017
:101B000082FFFCCF67E085E091E00E9469058BEFE2
:101B10008093E8009ECE823209F09BCE8F8980931D
:101B20000C01EEEFFFE7859194918B3F9C4D51F1B5
:101B3000E0E0F8E08091050190910601A091070195
:101B4000B0910801803B9440A105B105F1F480916A
:101B50000C0180FD1AC0EE3F8AE0F80789F587E79F
:101B600097E791838083809160008093DC0288E115
:101B70009BE00FB6F894A895809360000FBE9093F9
:101B8000600067CEEEEFFAE0D5CF80819181873794
:101B9000974709F05ECEA895809160008861809398
:101BA00060008091DC0280936000EE3F2AE0F20743
:101BB00089F08091FE0A9091FF0A9183808349CE3B
:101BC000808191818737980751F29093FF0A809323
:101BD000FE0AC5CF1092FF0A1092FE0A3ACE0E946A
:101BE0004F04DC0112960D911C910115110509F4A9
:101BF000E8CED801ED91FC910190F081E02DBE017D
:101C00006B5E7F4FC8010995811123CEF8010085D5
:101C10001185EBCF181619060CF41BCED2CEF1E0CD
:101C2000FF12BECE6FEA76E004CF1F920F920FB67E
:101C30000F9211242F933F938F939F93AF93BF9352
:101C40008091D0029091D102A091D202B091D302A2
:101C50003091CF0223E0230F2D3758F50196A11DB7
:101C6000B11D2093CF028093D0029093D102A09314
:101C7000D202B093D3028091D4029091D502A09168
:101C8000D602B091D7020196A11DB11D8093D40256
:101C90009093D502A093D602B093D702BF91AF9193
:101CA0009F918F913F912F910F900FBE0F901F909A
:101CB000189526E8230F0296A11DB11DD2CFEF92F1
:101CC000FF920F931F93CF93DF93F82E192FE62ED9
:101CD000042F81E0860F880F0E94E40483E00E94B5
:101CE000E404CF2DD12FEC0EFD2EF11CCE15DF0517
:101CF000B9F007FF13C0FE0184910E94E404182F7D
:101D000080E00E94E404812321968111EFCFDF91CE
:101D1000CF911F910F91FF90EF9008958881EDCFA3
:101D200081E0F5CFE0EFF6E01382128288EE93E0D7
:101D3000A0E0B0E084839583A683B78389EA91E02D
:101D4000918380838FEF9FEF95878487E0E4F7E0AE
:101D5000138212828BEB91E0918380830895CF935D
:101D6000DF93CDB7DEB72C970FB6F894DEBF0FBE6A
:101D7000CDBF789484B5826084BD84B5816084BD14
:101D800085B5826085BD85B5816085BD80916E0019
:101D9000816080936E00109281008091810082604A
:101DA0008093810080918100816080938100809187
:101DB0008000816080938000809191008260809398
:101DC00091008091910081608093910080919000BA
:101DD0008160809390008091C10084608093C100F5
:101DE0008091C10082608093C1008091C1008160B8
:101DF0008093C1008091C30081608093C300809173
:101E0000C00082608093C0008091C2008160809396
:101E1000C20080917A00846080937A0080917A0079
:101E2000826080937A0080917A00816080937A004A
:101E300080917A00806880937A001092ED0210926F
:101E4000DD021092DF028091D70081608093D7007D
:101E500080EA8093D80089B5806189BD89B58260A8
:101E600089BD09B400FEFDCF61E070E080E090E044
:101E70000E949B058091D8008F7C80618093D80060
:101E80008091E000807F8093E0008091E1008E7E71
:101E90008093E1008DE08093E200559A209A81ECD6
:101EA00080937C0085B1806F85B984B1877E84B9C9
:101EB00084B1876E84B95E9A5F988AB1806D8AB961
:101EC000769A6E9881B3806F81BB899880B38D704C
:101ED00080BB80E58CBD81E08DBD85E090E00E94F7
:101EE0008E065F9A85E090E00E948E065E985C9870
:101EF000ECE5F6E089E696E024912EBD00000DB4F5
:101F000007FEFDCF31968E179F07B1F75C9A81E8E7
:101F100080936400809165008160809365000E94D9
:101F2000BC0680E80E94B1068823A9F05C9885EA87
:101F30008EBD00000DB407FEFDCF5C9A2E982F9841
:101F40002D988091640080628093640081E083BF5B
:101F5000889513BEFCCF84E00E94B106882309F463
:101F600048C02D9884E80E94B1068823E1F00E94C1
:101F70008C0688EC90E00E948E062F9882E090E01C
:101F80000E94AB188F3F29F06FEF82E090E00E9433
:101F9000B31884EF91E00E948E062F9A84E80E9485
:101FA000B1068111FBCF84E10E94B1068823E1F0E4
:101FB0000E948C0688EC90E00E948E062E9882E0AB
:101FC00090E00E94AB18882329F060E082E090E066
:101FD0000E94B31884EF91E00E948E062E9A84E14D
:101FE0000E94B1068111FBCF88EC90E00E948E0622
:101FF000B2CF0E948C0682E090E00E94720B882390
:1020000009F46BC03E9A3F9A81E090E00E94720B07
:10201000282F2470922E81FF14C021112E9861EF79
:10202000462E55245A9408E010E078E5872E80E487
:102030000E94B106882309F453C02E9A2F9A0E9459
:102040008C0682E390E00E948E060E949306811126
:10205000F8CF81E280930001E6E8F2E090E080E0D2
:1020600072E16CE0AC0143705527749F9001759F3D
:10207000300D1124265F3F4F31832083AC015595ED
:10208000479555954795649F9001659F300D1124A4
:10209000235D3F4F3383228395838483168210868A
:1020A00017820196399687309105E1F6E9E1AE2E67
:1020B000B12CF2E08F2E912C0E945306B091540265
:1020C000B983BB2309F4D7C01092540280E090E09A
:1020D000892B91F30E940000EFCF3E983F9894CF58
:1020E000992031F034E04316510411F42E9A2F98C0
:1020F00081E00E940504920157FE04C02227332785
:102100002419350927703327C20157FC079653E07D
:10211000959587955A95E1F757FE05C00197A80157
:10212000421B530B9A01BC017695762F6627779553
:10213000679560517D4FF12CE12C3801621A730ACA
:102140008E3F5FEF950709F43DC08E9CD0018F9CB8
:10215000B00D112450E040E0A455BA4F5B01E0E817
:10216000AE0EB11C8F3F980791F0FD01E40FF51FF3
:10217000E4916B01C40ED51EF0E01F01022E01C0D8
:10218000220C0A94EAF7F60134882328248A2115C0
:10219000310599F0FD01E40FF51FE4916501C40ECE
:1021A000D51EF0E01F01062C02C0359427940A9436
:1021B000E2F7F60134882328248A4F5F5F4F4835C1
:1021C000510581F6019660587F4FEA94EF2809F097
:1021D0004EC00E94BC068FE090E00E948E062FEF5A
:1021E000421A520A39E14316510409F020CF9920CE
:1021F00011F02F9A2D9880E991E00E948E060E949E
:102200008C0681E090E00E94720B80FF1ACF8AE07A
:1022100090E00E94720B9FEF980F9E3F08F011CF45
:1022200022E330E03093C8022093C70228E330E075
:102230003093CA022093C9024BE050E05A8349838D
:10224000682F80E497E00E94580889819A810E9453
:10225000720BA981BA811196BA83A983519781F72C
:102260000E94BC0688EE93E00E948E06EACEEE2421
:10227000E394F12C65CF80915502E62FE81B8E2F59
:1022800090910001E91748F48F5F891708F01ECF7D
:1022900081E083BF889513BE19CF81E080935402FB
:1022A000609355028091520290915302019690934F
:1022B0005302809352028091CC028093CB020E9401
:1022C00093068093CC02E0EFF2E0298121112FEFF9
:1022D000002421932193219321930394D1F7109209
:1022E000CA021092C9021092C8021092C7028091CD
:1022F000CD029091CE028130910509F49CC08230CC
:10230000910509F4BAC1892B09F089C083E290E0F4
:102310009093C8028093C70248E050E05093CA02ED
:102320004093C90283EC91E00E94350B84E190E078
:102330009093C8028093C70282E190E09093CA0212
:102340008093C9028BEC91E00E94350B2EE130E0C6
:102350004FE750E06EE170E090E080E00E94DD0623
:10236000B092C802A092C70281E290E09093CA02A4
:102370008093C9028091C5029091C602892B09F011
:1023800051C08AED91E00E94350BB092C802A09234
:10239000C7028AE290E09093CA028093C9028091BA
:1023A000C5029091C602019709F03FC082EF91E00B
:1023B0000E94350B80E10E94A606882369F0809177
:1023C000C5029091C602019662E070E00E94FD187D
:1023D0009093C6028093C50280E80E94A6068823D7
:1023E00069F08091C5029091C602019662E070E0AA
:1023F0000E94FD189093C6028093C50288E00E9457
:10240000A606882361F08091C5029091C602892BAF
:1024100079F481E090E09093CE028093CD020E9407
:10242000BC0654CE86EE91E0AECF8CEF91E0C0CFEB
:1024300083E090E0F0CFB092C802A092C7029092E1
:10244000CA028092C90286E092E00E94350B2CE01D
:1024500030E04FE750E06CE070E090E080E00E94F8
:10246000DD061A82198274E1D72E09811A81037060
:10247000112755E0000F111F5A95E1F789819A81C4
:102480009595879595958795D89EB001D99E700DA5
:1024900011247B0152E1E50EF11C8091EE02909136
:1024A000EF02A981BA81A817B90741F4605F7F4F95
:1024B0002EE04CE1C80103960E948B07035F1F4F7B
:1024C0001093C8020093C702F092CA02E092C902B8
:1024D000E981FA813196FA83E983CF010E94420BA8
:1024E00029813A812830310509F0BFCF4FE050E013
:1024F0005093C8024093C70287E390E09093CA02CA
:102500008093C90283E192E00E94350B80E40E942F
:10251000A606882369F08091EE029091EF02019661
:1025200069817A810E94FD189093EF028093EE02F8
:1025300080E20E94A606882369F08091EE029091C5
:10254000EF02079668E070E00E94FD189093EF029A
:102550008093EE0280E10E94A606882361F08091BC
:10256000EE029091EF02843091052CF40496909342
:10257000EF028093EE0280E80E94A606882361F0B5
:102580008091EE029091EF02843091052CF0049737
:102590009093EF028093EE0288E00E94A6068823C3
:1025A00009F460C09092CE028092CD02A3E7B2E01F
:1025B000BA83A9838091EE029091EF024EE0489F8A
:1025C0009001499F300D1124E6E8F2E090E080E0B0
:1025D00002E11CE0BC0163707727069FA001079F02
:1025E000500D1124465F5F4F51834083BC017595A8
:1025F000679575956795169FA001179F500D11243B
:10260000435D5F4F53834283958384831682108694
:102610001782DC01AA0FBB1FA20FB31FAE5EBE4F15
:102620004D915C91A981BA814D935D93BA83A98341
:10263000019639968730910569F610926F021092D3
:102640006E02EFEFFFEFF0937102E09370021092D1
:10265000720285E0EDE0F1E0A1E8B2E001900D92B8
:102660008A95E1F784E00E94A606882309F4D7CE74
:102670001092CE021092CD02D2CE24E630E03093FA
:10268000C8022093C7029093CA028093C90282E2D3
:1026900092E00E94350BE0916E02F0916F02EE0F16
:1026A000FF1FED58FD4F808191810E94420B42E354
:1026B00050E05093C8024093C7021092CA02109291
:1026C000C90287E292E00E94350BE0916E02F09120
:1026D0006F028091EE029091EF02892B09F059C1AF
:1026E000E330F1050CF01DC1E130F1050CF039C10A
:1026F000EF2B09F426C185E090E09093C802809307
:10270000C7029092CA028092C9028BE292E00E94B4
:10271000350B8091EE029091EF0201960E94420BE0
:102720002CE030E04FE750E06CE070E090E080E0BB
:102730000E94DD06A6E8B2E0BA83A983E981FA81A6
:102740008681882351F027813085448155816281BB
:102750007381808191810E94040929813A81275FD8
:102760003F4F3A832983255C324041F750917202F2
:1027700059835523B1F0809170029091710229E044
:10278000289FF001299FF00D1124EA57FD4F278162
:1027900030854481558162817381808191810E945D
:1027A0000409809185028B83882379F099819111A6
:1027B0000CC0609183027091840222E042E080911B
:1027C0008102909182020E948B0788E00E94A606F7
:1027D000882379F00E945306609356027093570243
:1027E000809358029093590281E080935E02109288
:1027F000600284E00E94A606882379F00E945306B6
:1028000060935A0270935B0280935C0290935D0226
:1028100081E080935F0210926102A981A1114BC3F4
:10282000BB81B1113AC080915E028823B1F188E08A
:102830000E94B106882389F10E9453060091560236
:102840001091570220915802309159026B017C017E
:10285000C01AD10AE20AF30AE4EFCE16E1E0DE067E
:10286000E104F10408F0F6C024E044E167E370E01D
:1028700082E390E00E948B07A4E1B0E0A7019601FB
:102880000E94C11824EF31E040E050E00E94CC18D3
:10289000622F82E390E00E94E20780915F0288232A
:1028A00009F4F7C0F0918502F98384E00E94B10633
:1028B000882309F4EEC00E94530600915A02109139
:1028C0005B0220915C0230915D026B017C01C01AB9
:1028D000D10AE20AF30A2981222309F48CC134EFD8
:1028E000C31631E0D306E104F10408F0C9C024E0C6
:1028F00044E167E370E080E590E00E948B07A4E18B
:10290000B0E0A70196010E94C11824EF31E040E039
:1029100050E00E94CC18622F80E590E00E94E20710
:10292000B8C0E430F10559F144F123E0359709F0DE
:10293000E2CE43E062E070E086E490E00E948B0724
:10294000DACEF2E0EF2EF12C0AE410E028E030E0DD
:102950004EE450E068E070E086E490E00E94610799
:10296000CACEE2E0EE2EF12C08E410E025E030E0E3
:102970004AE450E065E070E0EFCF26E0DACF78E09F
:10298000E72EF12C06E410E022E030E04AE450E0CB
:1029900018C0E730F10508F0AECEEF52FB4E0C94B4
:1029A0001119D814E414EA14F414F814FE140115DF
:1029B00068E0E62EF12C06E410E022E030E04CE482
:1029C00050E062E070E0C8CF58E0E52EF12C0CE456
:1029D00010E0F3CF47E0E42EF12C06E410E022E013
:1029E00030E04BE450E0EDCF36E0E32EF12CCACFDF
:1029F00026E0E22EF12C0AE410E0C6CF24E044E009
:102A000099CF22E030E04BE450E062E070E086E4F1
:102A100090E00E94DD0625E030E04CE450E062E00A
:102A200070E08BE490E00E94DD0625E030E047E4B2
:102A300050E065E070E08CE490E00E94DD0622E06A
:102A400030E046E450E065E070E087E490E00E940A
:102A5000DD0651CE8091600281111FCF81E080930D
:102A600060028093850280E490E0909382028093DC
:102A7000810285E290E090938402809383020DCFDF
:102A80008091610281110AC081E0809361021092FD
:102A9000850280918502882309F470C180E20E943A
:102AA000B106882361F080918102909182028B307F
:102AB00091052CF00197909382028093810280E42B
:102AC0000E94B106882361F0809181029091820278
:102AD000863791052CF401969093820280938102AF
:102AE00080E80E94B106882361F080918302909172
:102AF0008402853191052CF0019790938402809394
:102B0000830280E10E94B106882361F080918302F4
:102B100090918402873391052CF40196909384025E
:102B20008093830288E00E949B06882309F4A9C051
:102B300020905E02222009F4A4C03090600231107F
:102B40009CC080918102909182029C838B834090F3
:102B5000830250908402A6E8B2E0BC87AB87712C58
:102B6000612C019698878F83F2013196FA87E98765
:102B7000AB85BC8516968C91811196C00B811C810A
:102B8000EF81F885E017F1070CF48EC072012985FA
:102B90003A852E153F050CF484C0AB85BC85CD90DD
:102BA000DC9011971496ED91FC91FA83E983CF01A3
:102BB0000E94EB039E838D8389819A810E94D103B9
:102BC0000C151D05A4F02D813E81C20ED31EC0162A
:102BD000D1066CF0AB85BC8512962D913C91E21626
:102BE000F3062CF0820F931F8E159F0564F5BFEF3F
:102BF000EB1AFB0ACCCF48EEC41643E0D406E1043E
:102C0000F10498F424E044E167E370E080E590E0AB
:102C10000E948B07A4E1B0E0A70196010E94C118B1
:102C200028EE33E040E050E074CE809161028111E3
:102C3000A5C081E08093610281E090E09093CE0294
:102C40008093CD0226CF709271026092700281E073
:102C50008093720210928502322C1092C802109258
:102C6000C70247E350E05093CA024093C9023320A1
:102C700051F180E392E00E94350B10925E021092B7
:102C8000600284E00E949B06882309F4C8CB8091EF
:102C90005F02882309F4C3CB10925F021092610295
:102CA000BECB0F5F1F4F6CCFEFEF6E1A7E0A2B85E6
:102CB0003C85275F3F4F3C872B8737E063167104C5
:102CC00009F056CFCACF8BE392E00E94350B1092E9
:102CD000C8021092C70280E390E09093CA028093EA
:102CE000C90286E492E00E94350B809181029091A6
:102CF00082020E94420B89E492E00E94350B80918F
:102D00008302909184020E94420B88E290E09093AB
:102D1000C8028093C702A0E3B0E0B093CA02A093B8
:102D2000C9028BE492E00E94350B8091860290915B
:102D300087020E94420B89E492E00E94350B809149
:102D40008802909189020E94420B89E392E00E94DE
:102D5000350B80918A0290918B020E94EB030E94B6
:102D6000420B8FE492E00E94350B80918A02909191
:102D70008B020E94D1030E94420B7FCF80E40E940D
:102D8000A606882369F080916E0290916F020196E9
:102D900067E070E00E94FD1890936F0280936E02CE
:102DA00080E20E94A606882369F080916E029091CD
:102DB0006F02069667E070E00E94FD1890936F0224
:102DC00080936E0288E00E949B06882309F459CF05
:102DD00080915E02882309F454CF809160028111B2
:102DE0004CCF60916E0270916F02AB01440F551F82
:102DF000FA01ED58FD4F20813181121613060CF0B7
:102E00003CCFE6E8F2E090E080E0A681A11124C08A
:102E1000A9E0A89FF001A99FF00D1124EA57FD4FEA
:102E20007583648360E470E07183608365E270E0C1
:102E30007383628316821086178290937102809347
:102E4000700281E0809372024D585D4F215031092C
:102E5000FA013183208311CF01963996873091058D
:102E6000A1F60BCF109266021092670210926802D0
:102E70001092690243C1209170023091710249E0C1
:102E8000429FC001439F900D11248A579D4F21E01E
:102E9000DC0116962C931092720210925E02109230
:102EA00060022CC110926A0210926B0210926C02A6
:102EB00010926D02B4CA80E20E94B1068823A1F08C
:102EC000809170029091710229E0289FF001299F62
:102ED000F00D1124EA57FD4F8081918118161906D3
:102EE0001CF401979183808380E40E94B1068823BB
:102EF00021F1809170029091710229E0289FA00138
:102F0000299F500D11244A575D4F5A834983DA0196
:102F10000D911C91119714968D919C910E94EB0339
:102F200020E830E0281B390B0217130734F40F5F39
:102F30001F4FE981FA811183008380E80E94B10666
:102F40008823A1F0809170029091710229E0289F5E
:102F5000F001299FF00D1124EA57FD4F82819381E2
:102F60008E3091051CF001979383828380E10E944B
:102F7000B106882329F1809170029091710229E0B5
:102F8000289FA001299F500D11244A575D4F5A8355
:102F90004983DA0112960D911C91139714968D9125
:102FA0009C910E94D10320E430E0281B390B0217CA
:102FB000130734F40F5F1F4FE981FA8113830283F3
:102FC0000E9453066B017C01809162029091630222
:102FD000A0916402B0916502A7019601281B390BEC
:102FE0004A0B5B0BDA01C9018D329140A105B10595
:102FF00008F476C084E00E949B068823B1F180919A
:103000005F02882391F10E94530600915A021091A9
:103010005B0220915C0230915D02601B710B820BA0
:10302000930B6C32714081059105E8F48091700238
:103030009091710229E0289FF001299FF00D112441
:10304000EA57FD4F87819085019664E070E00E9409
:10305000FD1890878783C0926202D0926302E0924B
:103060006402F092650210925F0288E00E949B0663
:103070008823B1F180915E02882391F10E9453066A
:103080000091560210915702209158023091590236
:10309000601B710B820B930B6C32714081059105A3
:1030A000E8F4809170029091710229E0289FF0016C
:1030B000299FF00D1124EA57FD4F878190850396D3
:1030C00064E070E00E94FD1890878783C0926202DE
:1030D000D0926302E0926402F092650210925E0266
:1030E00088E00E94B106882309F4BCCE62E370E058
:1030F00086E692E00E9404088111BDCE84E00E9421
:10310000B106882309F4CECE60E570E08AE692E04D
:103110000E940408882309F482C98091700290916A
:10312000710229E0289FD001299FB00D1124AA57D0
:10313000BD4F1496ED91FC91159716961C92109226
:103140007202EE0FFF1FED58FD4F808191810196B5
:1031500091838083A1CDF999FECF92BD81BDF89A6C
:10316000992780B50895262FF999FECF1FBA92BDF1
:1031700081BD20BD0FB6F894FA9AF99A0FBE019658
:1031800008950E94EE18A59F900DB49F900DA49FE6
:10319000800D911D11240895A1E21A2EAA1BBB1BBC
:1031A000FD010DC0AA1FBB1FEE1FFF1FA217B30713
:1031B000E407F50720F0A21BB30BE40BF50B661F29
:1031C000771F881F991F1A9469F7609570958095ED
:1031D00090959B01AC01BD01CF010895A29FB00164
:1031E000B39FC001A39F700D811D1124911DB29F3B
:1031F000700D811D1124911D089597FB072E16F463
:10320000009407D077FD09D00E94171907FC05D05C
:103210003EF4909581959F4F0895709561957F4FED
:103220000895EE0FFF1F0590F491E02D0994AA1B5D
:10323000BB1B51E107C0AA1FBB1FA617B70710F0A1
:10324000A61BB70B881F991F5A95A9F780959095D3
:0A325000BC01CD010895F894FFCFF2
:10325A0010FFFFFFFF00E100000000000040002512
:10326A00000001000100010001000100010000004E
:10327A000200020001000200020001000100020037
:10328A00000001000000020001000000010001002E
:10329A00000002000000010001000000000002001E
:1032AA00020002000100000002000200000000000B
:1032BA000000000001000100000001000100000000
:1032CA0001000100000002000100010001000000ED
:1032DA00010000C180810000000C0C0A0808080CDB
:1032EA00140A0A050F05000C0C0A0808080611083A
:1032FA00080A190500000000006304CE0584047959
:10330A0004CA048804A6040000000058085F06E402
:10331A000AE30A54414E4752414D00434C4153532C
:10332A0049432050555A5A4C45003E20504C415969
:10333A002047414D45002020504C41592047414DDE
:10334A0045003E2053414E44424F580020205341ED
:10335A004E44424F580053454C454354204C455621
:10336A00454C00413A506C61792020423A426163EF
:10337A006B00636E743A0073683A006C766C5F0097
:10338A004849543A207472756520004849543A20D5
:10339A0066616C736500433A002C0050303A00783D
:0233AA00000021
:00000001FF
