:100000000C9470030C9498030C9498030C9498032C
:100010000C9498030C9498030C9498030C949803F4
:100020000C9498030C9498030C94740B0C94E30BAD
:100030000C9498030C9498030C9498030C949803D4
:100040000C9498030C9498030C9498030C949803C4
:100050000C9498030C9498030C9498030C94150E2C
:100060000C9498030C9498030C9498030C949803A4
:100070000C9498030C9498030C9498030C94980394
:100080000C9498030C9498030C9498030C94980384
:100090000C9498030C9498030C9498030C94980374
:1000A0000C9498030C9498030C949803000000009F
:1000B000003E5B4F5B3E3E6B4F6B3E1C3E7C3E1CEE
:1000C000183C7E3C181C577D571C1C5E7F5E1C0034
:1000D000183C1800FFE7C3E7FF0018241800FFE7EB
:1000E000DBE7FF30483A060E2629792926407F05AE
:1000F0000507407F05253F5A3CE73C5A7F3E1C1CC4
:1001000008081C1C3E7F14227F22145F5F005F5F83
:1001100006097F017F006689956A6060606060946F
:10012000A2FFA29408047E040810207E2010080874
:100130002A1C08081C2A08081E101010100C1E0C7F
:100140001E0C30383E3830060E3E0E060000000011
:100150000000005F00000007000700147F147F14F8
:10016000242A7F2A1223130864623649562050003D
:1001700008070300001C2241000041221C002A1C29
:100180007F1C2A08083E0808008070300008080814
:100190000808000060600020100804023E51494534
:1001A0003E00427F400072494949462141494D3352
:1001B0001814127F1027454545393C4A49493141B9
:1001C000211109073649494936464949291E000087
:1001D00014000000403400000008142241141414DC
:1001E0001414004122140802015909063E415D59C8
:1001F0004E7C1211127C7F494949363E41414122D1
:100200007F4141413E7F494949417F090909013EFA
:10021000414151737F0808087F00417F4100204021
:10022000413F017F081422417F404040407F021C33
:10023000027F7F0408107F3E4141413E7F0909094A
:10024000063E4151215E7F09192946264949493216
:1002500003017F01033F4040403F1F2040201F3FDC
:100260004038403F63140814630304780403615961
:10027000494D43007F4141410204081020004141A3
:10028000417F04020102044040404040000307084F
:100290000020545478407F2844443838444444284B
:1002A000384444287F385454541800087E090218F2
:1002B000A4A49C787F0804047800447D400020407A
:1002C000403D007F1028440000417F40007C0478BE
:1002D00004787C080404783844444438FC18242406
:1002E0001818242418FC7C08040408485454542486
:1002F00004043F44243C4040207C1C2040201C3C03
:100300004030403C44281028444C9090907C4464F9
:10031000544C44000836410000007700000041368C
:10032000080002010204023C2623263C1EA1A16112
:10033000123A4040207A3854545559215555794144
:100340002154547841215554784020545579400C1B
:100350001E527212395555555939545454593955FC
:100360005454580000457C410002457D420001453F
:100370007C40F0292429F0F0282528F07C545545AC
:10038000002054547C547C0A097F4932494949323F
:100390003248484832324A4848303A4141217A3A54
:1003A00042402078009DA0A07D39444444393D401E
:1003B00040403D3C24FF2424487E4943662B2FFCCB
:1003C0002F2BFF0929F620C0887E09032054547979
:1003D000410000447D413048484A32384040227A4A
:1003E000007A0A0A727D0D19317D2629292F2826C7
:1003F0002929292630484D402038080808080808CF
:100400000808382F10C8ACBA2F102834FA00007B27
:10041000000008142A142222142A1408950022002D
:1004200095AA005500AAAA55AA55AA000000FF00E7
:10043000101010FF00141414FF001010FF00FF1024
:1004400010F010F0141414FC001414F700FF000056
:10045000FF00FF1414F404FC141417101F10101FD5
:10046000101F1414141F00101010F0000000001FC3
:10047000101010101F10101010F010000000FF10CE
:100480001010101010101010FF10000000FF1400CA
:1004900000FF00FF00001F10170000FC04F41414FC
:1004A0001710171414F404F40000FF00F7141414C8
:1004B00014141414F700F7141414171410101F1048
:1004C0001F141414F4141010F010F000001F101F6B
:1004D0000000001F14000000FC140000F010F010D9
:1004E00010FF10FF141414FF141010101F00000050
:1004F00000F010FFFFFFFFFFF0F0F0F0F0FFFFFF54
:100500000000000000FFFF0F0F0F0F0F38444438AA
:10051000447C2A2A3E147E02020606027E027E02E5
:1005200063554941633844443C04407E201E200604
:10053000027E020299A5E7A5991C2A492A1C4C7241
:1005400001724C304A4D4D303048784830BC625AC8
:10055000463D3E494949007E0101017E2A2A2A2A58
:100560002A44445F444440514A444040444A514034
:100570000000FF0103E080FF000008086B6B0836F5
:1005800012362436060F090F060000181800000066
:100590001010003040FF0101001F01011E00191D55
:1005A0001712003C3C3C3C0000000000F0F89C8E20
:1005B0008783878E9CF8F00000FEFF03030303038C
:1005C000070EFCF80000FEFF0303030303070EFC05
:1005D000F80000FFFF00000000000000FFFF000027
:1005E000FEFF8383838383C7EE7C380000F8FC0E14
:1005F00007030303070EFCF800003F7FE0C0808084
:10060000C0E07F3FFFFF01010101010101FFFF0089
:1006100000FFFF0C0C0C0C1C3E77E3C100007FFFB9
:10062000C0C0C0C0C0E0703F1F00001F3F70E0C0EE
:10063000C0C0E0703F1F00007FFFC1C1C1C1C1E366
:10064000773E1C00001F3F70E0C0C0C0E0703F1F3D
:10065000000000000001FFFF01000000D5F08D1434
:10066000A1C881CFD9F1AF2000080B00020202001F
:100670000009040000010202000005240010010529
:100680002401010104240206052406000107058156
:100690000310004009040100020A000000070502DF
:1006A0000240000007058302400000040309041211
:1006B000010002EF020140412336800001010203E4
:1006C0000141726475696E6F204C4C430041726445
:1006D00075696E6F204C656F6E6172646F00920E6B
:1006E00011241FBECFEFDAE0DEBFCDBF12E0A0E0E5
:1006F000B1E0E0E3F5E302C005900D92AC3BB10739
:10070000D9F727E0ACEBB2E001C01D92AE3AB207D8
:10071000E1F713E0C0E7D3E004C02197FE010E9497
:100720007C1ACF36D107C9F70E94AF0E0C94961AE7
:100730000C940000480F592F511D1416150684F50E
:10074000803891056CF597FF02C090E080E0413859
:10075000510514F040E850E0481BFB01E770FF270B
:1007600021E001C0220FEA95EAF777FF02C0695F36
:100770007F4FFB0133E0F595E7953A95E1F7F69564
:10078000FE2FEE27F795E795E80FF91FE65AFC4F85
:10079000415030F08191DF011197822B8C93F8CF7B
:1007A00008952091580330915903232B59F4873031
:1007B000910570F482569E4FFC018081082E000C3A
:1007C000990B08958730910518F489569E4FF4CF00
:1007D00088E090E008952091580330915903232B2D
:1007E00059F48730910570F480579E4FFC01808149
:1007F000082E000C990B08958730910518F487573F
:100800009E4FF4CF88E090E00895EAE5F3E0A0E0A1
:10081000B8E000800EBC8111012C1197A0FDFDCF26
:100820000192B9F70DB40895FC0180915703882314
:1008300011F13FB7F89482E08093E9002091F20033
:10084000822F90E01816190614F481E090E08823B6
:1008500039F0289844E6409356034091F1004083D4
:10086000222339F02091F200211103C02BE62093BE
:10087000E8003FBF08958FEF9FEF08952FB7F894DA
:1008800083E08093E9009091E800892F807295FFC2
:1008900004C09091F20080E4891B2FBF08958091DD
:1008A0004E0381110DC082E080934A0384E080935F
:1008B0004B0310924D0310924C0381E080934E0342
:1008C0008AE493E00895CF93DF931F92CDB7DEB70C
:1008D0006983DC01ED91FC910280F381E02D41E020
:1008E00050E0BE016F5F7F4F09950F90DF91CF9170
:1008F000089583E08093E9008091F200882319F045
:100900008AE38093E80008950E943E0490E00895F1
:10091000CF93DF931F92CDB7DEB7FC018485958519
:1009200097FD08C02FEF3FEF358724870F90DF91A9
:10093000CF910895CE0101960E941404019719F4F5
:10094000898190E0F3CF8FEF9FEFF0CF0F931F934C
:10095000CF93DF931F92CDB7DEB78C01FC01848566
:10096000958597FF0BC0CE0101960E941404019754
:1009700071F4898190E0F80195878487F801848576
:1009800095850F90DF91CF911F910F9108958FEF73
:100990009FEFF1CFFC018485958597FD0BC09FB734
:1009A000F89482E08093E9008091F2009FBF90E08C
:1009B000019608959FB7F89482E08093E9008091B2
:1009C000F2009FBF90E00895409144035091450389
:1009D000209142033091430342175307B4F490919E
:1009E000E8009570E1F39091E80092FD19C08093C2
:1009F000F100809144039091450301968F739927EC
:100A0000892B19F48EEF8093E80080914403909134
:100A100045030196909345038093440381E0089534
:100A200080E00895DF92EF92FF920F931F93CF9390
:100A3000DF93D82E8A01EB017B01E40EF51ECE1563
:100A4000DF0559F0D7FE12C0FE0184910E94E40434
:100A500021968111F4CF0FEF1FEFC801DF91CF91E5
:100A60001F910F91FF90EF90DF9008958881EECF56
:100A70000F931F93CF93DF931F92CDB7DEB782E022
:100A8000898342E450E069E676E080E80E9412053E
:100A90000E944F04DC0112960D911C910115110565
:100AA00089F0D801ED91FC910280F381E02DBE0127
:100AB0006F5F7F4FC801099597FD04C0F80100855D
:100AC0001185ECCF89810F90DF91CF911F910F910C
:100AD0000895615030F02091F100FC0120830196CF
:100AE000F8CF289884E68093560308953FB7F8948A
:100AF00080913E0390913F03A0914003B091410348
:100B000026B5A89B05C02F3F19F00196A11DB11D68
:100B10003FBFBA2FA92F982F8827BC01CD01620FA4
:100B2000711D811D911D42E0660F771F881F991F5F
:100B30004A95D1F708958F929F92AF92BF92CF922C
:100B4000DF92EF92FF926B017C010E9476054B01D0
:100B50005C01C114D104E104F104B9F00E947605EE
:100B6000681979098A099B09683E734081059105D6
:100B700080F321E0C21AD108E108F10888EE880E5E
:100B800083E0981EA11CB11CE4CFFF90EF90DF9092
:100B9000CF90BF90AF909F908F9008958F929F922B
:100BA000AF92BF92CF92DF92EF92FF920F931F937B
:100BB000CF93DF936C017B018A0180910C01882324
:100BC00009F45CC080915703882309F457C08091D1
:100BD000490380FF05C08091E00082608093E000BF
:100BE000E801B12C8AEFA82E93E0892E2AE3922EF9
:100BF000209711F4BB20D9F10E943E0481110AC054
:100C0000AA94AA20D9F161E070E080E090E00E940F
:100C10009B05EECF8C171D0611F00CF08C2F9FB7A3
:100C2000F8948092E9002091E80025FD02C09FBF62
:100C3000DFCF282F30E0C21BD30BF701815020F00B
:100C400041914093F100FACFE20EF31EBB2021F058
:100C50009092E800B12CEBCF8091E80085FDE7CFC2
:100C60009092E800BB24B394209709F3F3CF5D98EA
:100C700084E680934803101611063CF081E090E072
:100C8000F6019383828310E000E0C801DF91CF91E9
:100C90001F910F91FF90EF90DF90CF90BF90AF909A
:100CA0009F908F9008952FB7F89460913A037091B8
:100CB0003B0380913C0390913D032FBF0895AF9279
:100CC000BF92CF92DF92EF92FF920F931F93CF9339
:100CD000DF936C017B018B01040F151FEB015E019B
:100CE000AE18BF08C017D10759F06991D601ED9130
:100CF000FC910190F081E02DC6010995892B79F7CF
:100D0000C501DF91CF911F910F91FF90EF90DF9080
:100D1000CF90BF90AF9008952D9A0895BC0190E0B8
:100D200080E00C949B058FB18095807F669B8860E6
:100D30001C9B8460089590913503982329F090912D
:100D40003603982381E009F080E0089590913503FF
:100D5000982329F490913603982381E009F480E0E8
:100D60000895CF93C82F0E949306982F9C2381E06B
:100D70009C1380E0CF91089580E00C9405048038A6
:100D80009105B8F460347105A0F420E191E061FDB3
:100D900094E060FD990F62FD9295687F269FD001D7
:100DA0001124A80FA65ABC4F8C9140FF03C0892B79
:100DB0008C93089590958923FBCF8F929F92AF9249
:100DC000BF92CF92DF92EF92FF920F931F93CF9338
:100DD000DF935C01EB01042FE22E6034710510F407
:100DE0000E949A03EC0EFD2EF11CB70161507109AF
:100DF0006034710520F4402FC5010E949A03D7FF8B
:100E000002C0D0E0C0E04E01670181E4E816F104C1
:100E10001CF080E4C82ED12C8C149D044CF441E0CD
:100E2000B401C5010E94BF068FEF881A980AECCF63
:100E30000A0D1B2D111D01501109CC15DD053CF4C7
:100E400041E0BE01C8010E94BF062196F6CFDF91A6
:100E5000CF911F910F91FF90EF90DF90CF90BF90B7
:100E6000AF909F908F900895EF92FF920F931F93F2
:100E7000CF93DF93EC017C01E60EF11CCE15DF056C
:100E800074F407E310E041E0B801CE010E94BF0610
:100E90000F5F1F4F0B331105B1F72196EFCFDF9195
:100EA000CF911F910F91FF90EF900895CF92DF9215
:100EB000EF92FF920F931F93CF93DF93EC018B017F
:100EC00088819981AA81BB81892B8A2B8B2B31F454
:100ED0000E945306688379838A839B830E9453060A
:100EE000C880D980EA80FB809B01AC012C193D09A8
:100EF0004E095F0969017A0138EEC31633E0D30663
:100F0000E104F10408F524E044E167E370E0C8017E
:100F10000E94DD06A4E1B0E0A70196010E942C1A10
:100F200028EE33E040E050E00E94371A622FC801FB
:100F30000E94340780E0DF91CF911F910F91FF90C5
:100F4000EF90DF90CF900895188219821A821B8249
:100F500081E0F1CF2F923F924F925F926F927F92FA
:100F60008F929F92AF92BF92CF92DF92EF92FF92B9
:100F70000F931F93CF93DF93EC018B017A016901EB
:100F8000C61AD70AD7FE03C0D194C194D10847012D
:100F90008C1A9D0A97FE03C09194819491088C1439
:100FA0009D0454F49E2D8F2D7901292F382F9C2FCD
:100FB0008D2FE801092F182FEC16FD0654F4902F01
:100FC000812F8901292F382F9C2F8D2FE701E92EA2
:100FD000F82E17012C1A3D0A2901401A510A57FE12
:100FE00003C0519441945108310137FE03C08FEF83
:100FF000681A780A759467948FEF021713070CF438
:1010000081E0A82E880FBB08EC16FD06A4F041E095
:10101000BE01C8018C149D0414F0B801CE010E94D9
:10102000BF066418750877FE04C00A0D1B1D620C0C
:10103000731C2196E9CFDF91CF911F910F91FF9003
:10104000EF90DF90CF90BF90AF909F908F907F9068
:101050006F905F904F903F902F9008958F929F9246
:10106000AF92BF92CF92DF92EF92FF920F931F93B6
:10107000CF93DF93EC016B015A0149010E94AA074B
:101080009701A801B401C5010E94AA079601AE010B
:10109000B701C801DF91CF911F910F91FF90EF90A1
:1010A000DF90CF90BF90AF909F908F900C94AA0745
:1010B0008F929F92AF92BF92CF92DF92EF92FF9268
:1010C0000F931F93CF93DF936D3089F0C09033035C
:1010D000D09034036A30D1F410923203109231036D
:1010E00088E0C80ED11CD0923403C092330381E053
:1010F00090E0DF91CF911F910F91FF90EF90DF90E3
:10110000CF90BF90AF909F908F9008950091310342
:1011100010913203E5E06E9FE0011124C455DF4FCA
:101120004801F12CF5E0E12CFF1629F0CE010196E3
:10113000FE01E490EC01B12CA12C4E2D4170B601C2
:101140006A0D7B1DC4010E94BF06E694FFEFAF1A33
:10115000BF0A88E0A816B10481F7F394EFEF8E1A66
:101160009E0AF6E0FF12DECF0A5F1F4F1093320394
:1011700000933103BCCF089590E080E00895AF92D2
:10118000BF92CF92DF92EF92FF920F931F93CF9374
:10119000DF936C017B01FA01C801D601CD91DC918E
:1011A000C41BD50BDB01AD90BC90A21AB30A64E05E
:1011B00070E00E94681A82309105D1F08330910569
:1011C000F9F0019751F4EA19FB09D601ED93FC936C
:1011D0002C0F3D1FF70131832083DF91CF911F91A9
:1011E0000F91FF90EF90DF90CF90BF90AF90089558
:1011F000EC1BFD0BD601ED93FC932A193B09EACFBA
:10120000EA0DFB1DD601ED93FC932C1B3D0BE2CFA9
:10121000AF92BF92CF92DF92EF92FF920F931F9304
:10122000CF93DF93CDB7DEB760970FB6F894DEBFEC
:101230000FBECDBF79012091580330915903232B64
:1012400009F01EC14230510509F48EC0C4F44115A5
:101250005105B1F14130510509F475C060960FB6E2
:10126000F894DEBF0FBECDBFDF91CF911F910F91DC
:10127000FF90EF90DF90CF90BF90AF9008954430F3
:10128000510509F4E5C00CF478C04530510531F73B
:101290006C01E2E0CE0ED11C5B01F2E0AF0EB11C9E
:1012A000988B8F877E876D879C012B5F3F4F3C8794
:1012B0002B877A87698738872F836B5F7F4F74C04E
:1012C0006C012AE0C20ED11C5B01E8E0AE0EB11C3D
:1012D0009C878B879B012F5E3F4F3A8729874496D7
:1012E00098878F833E832D83DC82CB827A836983C8
:1012F00087019501A601BE01675F7F4FCE010B9666
:101300000E94BF089501A601BE016B5F7F4FCE0111
:1013100007960E94BF089501A601BE016F5F7F4F2F
:10132000CE0103960E94BF08E980FA800B811C81E0
:101330002D813E814F81588569857A858B859C8575
:101340000E942E088BCF6C01F5E0CF0ED11C5B0103
:1013500024E0A20EB11C9C878B879B01285F3F4F26
:101360003A8729870A96BCCF6C01E5E0CE0ED11CE6
:101370005B01F4E0AF0EB11CEECF6C0122E0C20EB7
:10138000D11C5B01E5E0AE0EB11C988B8F877E8788
:101390006D879C012B5F3F4F3C872B877A8769873E
:1013A00038872F83665F7F4F7E836D839C838B831B
:1013B0007A83698387019501A601BE01635F7F4F30
:1013C000CE010F960E94BF089501A601BE01675F7E
:1013D0007F4FCE010B960E94BF089501A601BE016A
:1013E0006B5F7F4FCE0107960E94BF089501A60153
:1013F000BE016F5F7F4FCE0103960E94BF08298513
:101400003A854B855C856D857E858F8598890E94A0
:10141000AA072D813E814F81588569857A858B8504
:101420009C850E94AA0729813A814B815C816D814C
:101430007E818F8198850E94AA072D853E854F85E4
:10144000588969817A818B819C810E94AA0706CF85
:101450006C01F7E0CF0ED11C5B012CE0A20EB11C99
:101460009C878B877A8769879C01215F3F4F3887EC
:101470002F837E836D839C838B83675E7F4F36CF04
:101480004730510508F0EACE465B554FFA016C0132
:101490000C947C1A510A680A770A8E0AA50AB40AC3
:1014A000CB0AF6E0CF0ED11C5B0126E0A20EB11CE8
:1014B0009C878B877A8769879C01245F3F4F388799
:1014C0002F837E836D839C838B83645F7F4F0ECFDE
:1014D000E6E0CE0ED11C5B01F6E0AF0EB11C9C879E
:1014E0008B877A8769870C9698878F83EACF25E068
:1014F000C20ED11C5B01E5E0AE0EB11C9C878B8750
:101500007A8769879C01265F3F4F38872F837E83C8
:101510006D839C838B83665F7F4FE8CEF4E0CF0EB4
:10152000D11C5B0124E0A20EB11C9C878B877A87BB
:1015300069879C01285F3F4F38872F837E836D83A7
:101540009C838B83685F7F4FD1CEE4E0CE0ED11CAD
:101550005B01F4E0AF0EB11C9C878B877A876987AB
:10156000089698878F83EACF24E0C20ED11C5B01D6
:10157000E4E0AE0EB11C988B8F877E876D879C014F
:10158000285F3F4F3C872B877A87698738872F836F
:10159000685F7F4F09CFF6E0CF0ED11C5B0123E0DF
:1015A000A20EB11C988B8F877E876D879C01265F6A
:1015B0003F4F3C872B877A8769872E5F3F4F38875D
:1015C0002F836A5F7F4F7E836D830296EFCE8F926B
:1015D0009F92AF92BF920F931F93CF93DF93CDB79C
:1015E000DEB7A1970FB6F894DEBF0FBECDBF19A22C
:1015F000423008F44AE08E010F5D1F4F842E912C7B
:10160000B12CA12CA50194010E94371AE62FB90133
:10161000CA01EA3044F5E05DD801EE938D01232B39
:10162000242B252B79F790E080E0109769F0FD01DD
:1016300001900020E9F73197AF014A1B5B0BBD0118
:101640008AEA97E00E945F06A1960FB6F894DEBF83
:101650000FBECDBFDF91CF911F910F91BF90AF9083
:101660009F908F900895E95CD7CFFC0101900020F6
:10167000E9F73197AF01481B590BBC018AEA97E0A3
:101680000C945F06CF92DF92EF92FF92CF93DF939D
:101690006C01990FEE08FF08F7FE19C06DE28AEAA7
:1016A00097E00E945808EC0166277727CB016C1958
:1016B0007D098E099F094AE00E94E70A8C0F9D1F51
:1016C000DF91CF91FF90EF90DF90CF9008954AE0A7
:1016D000C701B601DF91CF91FF90EF90DF90CF90DF
:1016E0000C94E70A0C94161A1F920F920FB60F92E1
:1016F00011248F939F938091E1009091E100937F5B
:101700009093E10083FF0FC01092E90091E0909365
:10171000EB001092EC0092E39093ED0010925703CF
:1017200098E09093F00082FF22C093E09093E9004C
:101730009091F200992319F09AE39093E800909128
:101740004803992341F090914803915090934803A6
:10175000911101C05D9A90915603992341F09091A7
:101760005603915090935603911101C0289A84FF1B
:1017700018C08091E2008E7E81608093E2008091AB
:10178000E1008F7E8093E100809149038E7E80612D
:10179000809349039F918F910F900FBE0F901F90E0
:1017A000189580FFF7CF8091E2008E7E8061809354
:1017B000E2008091E1008E7E8093E10080914903F8
:1017C0008E7E8160E5CF1F920F920FB60F9211248B
:1017D000CF92DF92EF92FF920F931F932F933F933D
:1017E0004F935F936F937F938F939F93AF93BF9329
:1017F000EF93FF93CF93DF93CDB7DEB76C97DEBF48
:10180000CDBF1092E9008091E80083FF25C068E019
:10181000CE0145960E94690582EF8093E8008D898C
:1018200087FF39C09091E80090FFFCCF982F907609
:1018300009F034C19E894F89588D2F89F88C9111F8
:1018400031C0803861F5809147038093F100109298
:10185000F1008EEF8093E8006C960FB6F894DEBF2F
:101860000FBECDBFDF91CF91FF91EF91BF91AF91AF
:101870009F918F917F916F915F914F913F912F91A8
:101880001F910F91FF90EF90DF90CF900F900FBEC0
:101890000F901F9018959EEF9093E800C7CF10927D
:1018A000F100D5CF913059F48111D3CF413051059A
:1018B00081F6809147038D7F80934703CACF933091
:1018C00049F48111C6CF4130510519F68091470383
:1018D0008260F2CF953041F48091E80080FFFCCF28
:1018E00020682093E300B5CF963009F0A9C00B8D96
:1018F0001C8D22E01092E9001092450310924403DF
:10190000F2122EC010924303109242030E94380537
:101910001F8299E09983FA8291E09E8390EA9887EA
:101920009AEF99872091440330914503275F3F4FF9
:101930003C832B838D831092E90010924503109213
:101940004403109343030093420349E050E0BE0177
:101950006F5F7F4F80E00E9412050E94380579CFAB
:1019600010934303009342030E944F04DC0112963C
:101970000D911C910115110509F451C1D801ED918A
:10198000FC910480F581E02DBE016B5E7F4FC801A4
:101990000995009709F03EC1F80100851185EACF4D
:1019A000F3E0FF120EC08F89882309F440C0823013
:1019B00061F440E860E18DEC96E00E945F0E8111D9
:1019C00048CF81E28093EB0047CF813029F440E893
:1019D0006BE081EC96E0F1CF833099F70E944F04E1
:1019E000DC011296ED90FC908E010F5F1F4F680195
:1019F000E114F10479F0D701ED91FC910680F781B3
:101A0000E02DB801C7010995080F111DF701E08409
:101A1000F184EECFD8011C92F60101900020E9F785
:101A20003197BF016C197D0940E0C601C6CF6BEA52
:101A300076E0FB01449150E080E80E94120509CF56
:101A4000973009F4BECF983021F481E08093F10003
:101A500000CF993009F0FDCE837009F0B2CFE3E8F2
:101A6000F1E081E031E096E32191222371F080934F
:101A7000E9003093EB00DF0111972C912093EC00EB
:101A80009093ED008F5F873079F78EE78093EA00BF
:101A90001092EA008F8980935703DBCE8B8D9C8D4B
:101AA0001092E9001092450310924403909343036F
:101AB00080934203898D811192C08E899D89913ACC
:101AC00049F4813209F07DCF47E050E065E071E0F4
:101AD00080E0B3CF913209F074CF833269F48F89FB
:101AE000988DB0E0A0E08093010190930201A09353
:101AF0000301B0930401ADCE803269F48091E80017
:101B000082FFFCCF67E085E091E00E9469058BEFE2
:101B10008093E8009ECE823209F09BCE8F8980931D
:101B20000C01EEEFFFE7859194918B3F9C4D51F1B5
:101B3000E0E0F8E08091050190910601A091070195
:101B4000B0910801803B9440A105B105F1F480916A
:101B50000C0180FD1AC0EE3F8AE0F80789F587E79F
:101B600097E791838083809160008093460388E1AA
:101B70009BE00FB6F894A895809360000FBE9093F9
:101B8000600067CEEEEFFAE0D5CF80819181873794
:101B9000974709F05ECEA895809160008861809398
:101BA00060008091460380936000EE3F2AE0F207D8
:101BB00089F08091FE0A9091FF0A9183808349CE3B
:101BC000808191818737980751F29093FF0A809323
:101BD000FE0AC5CF1092FF0A1092FE0A3ACE0E946A
:101BE0004F04DC0112960D911C910115110509F4A9
:101BF000E8CED801ED91FC910190F081E02DBE017D
:101C00006B5E7F4FC8010995811123CEF8010085D5
:101C10001185EBCF181619060CF41BCED2CEF1E0CD
:101C2000FF12BECE6FEA76E004CF1F920F920FB67E
:101C30000F9211242F933F938F939F93AF93BF9352
:101C400080913A0390913B03A0913C03B0913D03F6
:101C50003091390323E0230F2D3758F50196A11D4C
:101C6000B11D2093390380933A0390933B03A093D3
:101C70003C03B0933D0380913E0390913F03A091BC
:101C80004003B09141030196A11DB11D80933E0315
:101C900090933F03A0934003B0934103BF91AF9152
:101CA0009F918F913F912F910F900FBE0F901F909A
:101CB000189526E8230F0296A11DB11DD2CFEF92F1
:101CC000FF920F931F93CF93DF93F82E192FE62ED9
:101CD000042F81E0860F880F0E94E40483E00E94B5
:101CE000E404CF2DD12FEC0EFD2EF11CCE15DF0517
:101CF000B9F007FF13C0FE0184910E94E404182F7D
:101D000080E00E94E404812321968111EFCFDF91CE
:101D1000CF911F910F91FF90EF9008958881EDCFA3
:101D200081E0F5CFEAE5F7E01382128288EE93E0D6
:101D3000A0E0B0E084839583A683B78389EA91E02D
:101D4000918380838FEF9FEF95878487EAEAF7E09E
:101D5000138212828BEB91E0918380830895CF935D
:101D6000DF93CDB7DEB72A970FB6F894DEBF0FBE6C
:101D7000CDBF789484B5826084BD84B5816084BD14
:101D800085B5826085BD85B5816085BD80916E0019
:101D9000816080936E00109281008091810082604A
:101DA0008093810080918100816080938100809187
:101DB0008000816080938000809191008260809398
:101DC00091008091910081608093910080919000BA
:101DD0008160809390008091C10084608093C100F5
:101DE0008091C10082608093C1008091C1008160B8
:101DF0008093C1008091C30081608093C300809173
:101E0000C00082608093C0008091C2008160809396
:101E1000C20080917A00846080937A0080917A0079
:101E2000826080937A0080917A00816080937A004A
:101E300080917A00806880937A0010925703109204
:101E40004703109249038091D70081608093D700A7
:101E500080EA8093D80089B5806189BD89B58260A8
:101E600089BD09B400FEFDCF61E070E080E090E044
:101E70000E949B058091D8008F7C80618093D80060
:101E80008091E000807F8093E0008091E1008E7E71
:101E90008093E1008DE08093E200559A209A81ECD6
:101EA00080937C0085B1806F85B984B1877E84B9C9
:101EB00084B1876E84B95E9A5F988AB1806D8AB961
:101EC000769A6E9881B3806F81BB899880B38D704C
:101ED00080BB80E58CBD81E08DBD85E090E00E94F7
:101EE0008E065F9A85E090E00E948E065E985C9870
:101EF000ECE5F6E089E696E024912EBD00000DB4F5
:101F000007FEFDCF31968E179F07B1F75C9A81E8E7
:101F100080936400809165008160809365000E94D9
:101F2000BC0680E80E94B1068823A9F05C9885EA87
:101F30008EBD00000DB407FEFDCF5C9A2E982F9841
:101F40002D988091640080628093640081E083BF5B
:101F5000889513BEFCCF84E00E94B106882309F463
:101F600048C02D9884E80E94B1068823E1F00E94C1
:101F70008C0688EC90E00E948E062F9882E090E01C
:101F80000E94161A8F3F29F06FEF82E090E00E94C6
:101F90001E1A84EF91E00E948E062F9A84E80E9418
:101FA000B1068111FBCF84E10E94B1068823E1F0E4
:101FB0000E948C0688EC90E00E948E062E9882E0AB
:101FC00090E00E94161A882329F060E082E090E0F9
:101FD0000E941E1A84EF91E00E948E062E9A84E1E0
:101FE0000E94B1068111FBCF88EC90E00E948E0622
:101FF000B2CF0E948C0682E090E00E94720B882390
:1020000009F46EC03E9A3F9A81E090E00E94720B04
:10201000282F2470922E81FF14C021112E9871EF69
:10202000472E55245A9408E010E0E8E58E2E80E40F
:102030000E94B106882309F456C02E9A2F9A0E9456
:102040008C0682E390E00E948E060E949306811126
:10205000F8CF81E280930001E0EFF2E090E080E0D1
:1020600072E16CE0AC0143705527749F9001759F3D
:10207000300D1124265F3F4F31832083AC015595ED
:10208000479555954795649F9001659F300D1124A4
:10209000235D3F4F3383228395838483168210868A
:1020A00017820196399687309105E1F6A7E34A2E0B
:1020B000512CB2E08B2E912CF5E0AF2EB12C0E946A
:1020C0005306B091BE02B983BB2309F4D7C0109266
:1020D000BE0280E090E0892B91F30E940000ECCFDB
:1020E0003E983F9891CF992031F034E04316510447
:1020F00011F42E9A2F9881E00E940504920157FE58
:1021000004C0222733272419350927703327C20139
:1021100057FC079663E0959587956A95E1F757FE1A
:1021200005C00197A801421B530B9A01BC0176958B
:10213000762F662777956795665A7C4FF12CE12CB0
:102140003801621A730A8E3F5FEF950709F43DC0AC
:102150008E9CD0018F9CB00D112450E040E0A4551E
:10216000BA4F5B01E0E8AE0EB11C8F3F980791F0CB
:10217000FD01E40FF51FE4916B01C40ED51EF0E0E4
:102180001F01022E01C0220C0A94EAF7F6013488DE
:102190002328248A2115310599F0FD01E40FF51F4C
:1021A000E4916501C40ED51EF0E01F01062C02C0AB
:1021B000359427940A94E2F7F60134882328248A78
:1021C0004F5F5F4F4835510581F6019660587F4F4C
:1021D000EA94EF2809F04EC00E94BC068FE090E020
:1021E0000E948E062FEF421A520A39E1431651041B
:1021F00009F01DCF992011F02F9A2D9880E991E0D8
:102200000E948E060E948C0681E090E00E94720B74
:1022100080FF17CF8AE090E00E94720B9FEF980F2B
:102220009E3F08F00ECF22E330E03093320320933C
:10223000310328E330E030933403209333034BE041
:1022400050E05A834983682F8AEA97E00E94580831
:1022500089819A810E94720BA981BA811196BA83F1
:10226000A983519781F70E94BC0688EE93E00E94F3
:102270008E06E7CEEE24E394F12C65CF8091BF0269
:10228000E62FE81B8E2F90910001E91748F48F5F2D
:10229000891708F01ECF81E083BF889513BE19CF40
:1022A00081E08093BE026093BF028091BC02909156
:1022B000BD0201969093BD028093BC0280913603CB
:1022C000809335030E94930680933603EAE5F3E09A
:1022D000298121112FEF0024219321932193219310
:1022E0000394D1F710923403109233031092320307
:1022F000109231038091370390913803813091051A
:1023000009F415C134F4892B09F476C00E94BC0687
:10231000E0CE8230910509F429C20497B9F78EE125
:1023200090E0909332038093310390923403809233
:10233000330382E092E00E94350B2CE030E04FE75F
:1023400050E06CE070E090E080E00E94AA07B0925C
:102350003203A0923103EFE0F0E0F0933403E09316
:10236000330380E692E00E94350BB0923203A092D4
:10237000310387E190E0909334038093330380E747
:1023800092E00E94350BB0923203A09231038FE1AC
:1023900090E090933403809333038FE792E00E94A0
:1023A000350BB0923203A092310387E290E0909314
:1023B0003403809333038CE892E00E94350BB09293
:1023C0003203A09231038FE290E090933403809324
:1023D000330388E992E00E94350B88E290E0909305
:1023E00032038093310350923403409233038CEADA
:1023F00092E00E94350BAFC183E290E090933203EC
:102400008093310348E050E050933403409333030A
:1024100083EC91E00E94350B84E190E090933203CD
:102420008093310382E190E09093340380933303EF
:102430008BEC91E00E94350B2EE130E04FE750E04D
:102440006EE170E090E080E00E94AA0789E190E0F0
:10245000909332038093310381E290E090933403B0
:102460008093330380912F0390913003892B09F0DF
:1024700051C08AED91E00E94350BA9E1B0E0B09324
:102480003203A09331038AE290E090933403809367
:10249000330380912F03909130030197F1F582EF80
:1024A00091E00E94350B80E10E94A606882369F026
:1024B00080912F0390913003019662E070E00E94BA
:1024C000681A9093300380932F0380E80E94A60639
:1024D000882369F080912F0390913003019662E088
:1024E00070E00E94681A9093300380932F0388E075
:1024F0000E94A606882309F409CF80912F039091AA
:102500003003892B69F4E1E0F0E0F0933803E093C5
:102510003703FCCE86EE91E0AECF80E092E0C1CFF3
:1025200084E090E09093380380933703EFCE29E165
:1025300030E0309332032093310390923403809241
:1025400033038EE092E00E94350B2CE030E04FE741
:1025500050E06CE070E090E080E00E94AA071A82F0
:102560001982E4E1DE2E09811A810370112765E0EA
:10257000000F111F6A95E1F789819A8195958795DA
:1025800095958795D89EB001D99E700D11247B0139
:1025900032E1E30EF11C8091580390915903498177
:1025A0005A814817590741F4605F7F4F2EE04CE194
:1025B000C80103960E94DD06035F1F4F109332038C
:1025C00000933103F0923403E092330389819A81BE
:1025D00001969A8389830E94420BA981BA81189738
:1025E00011F6EFE0F0E0F0933203E0933103509204
:1025F0003403409233038BE192E00E94350B80E478
:102600000E94A606882369F080915803909159038F
:10261000019669817A810E94681A90935903809388
:10262000580380E20E94A606882369F0809158032F
:1026300090915903079668E070E00E94681A9093A1
:1026400059038093580380E10E94A606882361F015
:102650008091580390915903843091052CF404968D
:10266000909359038093580380E80E94A60688231C
:1026700061F08091580390915903843091052CF0BA
:102680000497909359038093580388E00E94A6060C
:10269000882309F460C090923803809237032DEDAF
:1026A00032E03A83298380915803909159034EE098
:1026B000489F9001499F300D1124E0EFF2E090E037
:1026C00080E002E11CE0BC0163707727069FA00157
:1026D000079F500D1124465F5F4F51834083BC011B
:1026E0007595679575956795169FA001179F500D75
:1026F0001124435D5F4F5383428395838483168205
:1027000010861782DC01AA0FBB1FA20FB31FAE5E9B
:10271000BE4F4D915C91A981BA814D935D93BA836F
:10272000A983019639968730910569F61092D902EE
:102730001092D802EFEFFFEFF093DB02E093DA02A2
:102740001092DC0285E0EDE0F1E0ABEEB2E001904A
:102750000D928A95E1F784E00E94A606882309F489
:10276000D5CD1092380310923703D0CD24E630E057
:1027700030933203209331039093340380933303D7
:102780008AE292E00E94350BE091D802F091D902E2
:10279000EE0FFF1FE352FD4F808191810E94420B9B
:1027A00042E350E0509332034093310310923403DC
:1027B000109233038FE292E00E94350BE091D80231
:1027C000F091D9028091580390915903892B09F017
:1027D000F4C1E330F1050CF0B8C1E130F1050CF0C3
:1027E000D4C1EF2B09F4C1C1B0923203A0923103DE
:1027F000909234038092330383E392E00E94350B7E
:10280000809158039091590301960E94420B2CE04D
:1028100030E04FE750E06CE070E090E080E00E9434
:10282000AA0780915803909159039A838983813034
:10283000910509F423C28230910509F437C2892B2E
:1028400009F06AC229E130E042E350E064E170E05F
:1028500088E290E00E94AA0723E230E042E350E0E1
:1028600069E170E082E390E00E94AA0723E230E091
:1028700040E550E063E270E082E390E00E94AA0746
:1028800029E130E048E250E064E170E088E290E065
:102890000E94AA0729E130E04EE150E069E170E0D2
:1028A00088E290E00E94AA072EE130E04EE150E07D
:1028B00069E170E08EE190E00E94AA072EE130E02D
:1028C00048E250E06EE170E08EE190E00E94AA07DD
:1028D00022E330E048E250E06EE170E088E290E010
:1028E0000E94AA0722E330E04BE450E068E270E087
:1028F0008BE490E00E94AA0723E230E042E350E03C
:1029000062E370E08BE490E00E94AA0728E230E0E6
:1029100047E350E062E370E088E290E00E94AA079B
:1029200028E230E040E550E063E270E080E590E0CE
:102930000E94AA0728E230E04BE450E068E270E031
:1029400080E590E00E94AA07A0EFB2E0BA83A983D5
:10295000E981FA818681882351F02781308544817D
:10296000558162817381808191810E94080929814A
:102970003A81275F3F4F3A8329832F52334041F7F3
:102980005091DC0259835523B1F08091DA02909185
:10299000DB0229E0289FF001299FF00D1124E0516E
:1029A000FD4F27813085448155816281738180810B
:1029B00091810E9408098091EF028B83882379F02E
:1029C000998191110CC06091ED027091EE0222E0AC
:1029D00042E08091EB029091EC020E94DD0680E8DB
:1029E0000E94B106882329F080E10E94B10681117E
:1029F0008ACD88E00E94A606882379F00E945306BB
:102A00006093C0027093C1028093C2029093C3028C
:102A100081E08093C8021092CA0284E00E94A60658
:102A2000882379F00E9453066093C4027093C50214
:102A30008093C6029093C70281E08093C9021092EE
:102A4000CB02A981A111A7C3BB81B1113AC080916A
:102A5000C8028823B1F188E00E94B106882389F179
:102A60000E9453060091C0021091C1022091C2023F
:102A70003091C3026B017C01C01AD10AE20AF30A49
:102A8000E4EFCE16E1E0DE06E104F10408F05AC1FD
:102A900024E044E167E370E082E390E00E94DD0619
:102AA000A4E1B0E0A70196010E942C1A24EF31E0C6
:102AB00040E050E00E94371A622F82E390E00E94CB
:102AC00034078091C902882309F45BC1F091EF02B9
:102AD000F98384E00E94B106882309F452C10E9460
:102AE00053060091C4021091C5022091C602309194
:102AF000C7026B017C01C01AD10AE20AF30A2981DC
:102B0000222309F4EAC134EFC31631E0D306E1040D
:102B1000F10408F02DC124E044E167E370E080E5B2
:102B200090E00E94DD06A4E1B0E0A70196010E94BA
:102B30002C1A24EF31E040E050E00E94371A622F57
:102B400080E590E00E9434071CC1E430F10559F1A2
:102B500044F123E0359709F047CE43E062E070E0AE
:102B600086E490E00E94DD063FCE02E0E02EF12CEC
:102B70000AE410E028E030E04EE450E068E070E065
:102B800086E490E00E942E082FCE12E0E12EF12C78
:102B900008E410E025E030E04AE450E065E070E051
:102BA000EFCF26E0DACFB8E0EB2EF12C06E410E010
:102BB00022E030E04AE450E018C0E730F10508F0C8
:102BC00013CEEB51FA4E0C947C1AEC15F815FE1549
:102BD00008160C1612161516A8E0EA2EF12C06E4BB
:102BE00010E022E030E04CE450E062E070E0C8CF5A
:102BF000F8E0EF2EF12C0CE410E0F3CFE7E0EE2E3E
:102C0000F12C06E410E022E030E04BE450E0EDCFA0
:102C100076E0E72EF12CCACF66E0E62EF12C0AE42E
:102C200010E0C6CF24E044E099CF22E030E04BE44E
:102C300050E062E070E086E490E00E94AA0725E0A0
:102C400030E04CE450E062E070E08BE490E00E9401
:102C5000AA0725E030E047E450E065E070E08CE44E
:102C600090E00E94AA0722E030E046E450E065E0F0
:102C700070E087E490E00E94AA07B6CD2AE044E124
:102C80006EE170E088E290E00E94DD0658E2E52EF9
:102C9000F12C0CE310E023E230E046E450E06EE17A
:102CA00070E08CE390E00E942E084ECE23E2E22EEC
:102CB000F12C0CE310E023E230E048E250E069E15F
:102CC00070E082E390E00E942E083DE2E32EF12CBA
:102CD00001E410E02DE230E043E250E06EE170E00C
:102CE00082E390E00E942E0847E3E42EF12C06E4F4
:102CF00010E027E330E04EE150E068E270E082E36C
:102D000090E00E942E0825E046E067E370E08FE245
:102D100090E00E94DD0618CE83E290E090933203AB
:102D2000809331038EE190E09093340380933303DA
:102D300088E392E00E94350B89819A8101960E9476
:102D4000420B02CE8091CA028111BBCE81E08093FA
:102D5000CA028093EF0280E490E09093EC028093AB
:102D6000EB0285E290E09093EE028093ED02A9CE13
:102D70008091CB0281110AC081E08093CB02109236
:102D8000EF028091EF02882309F468C180E20E947B
:102D9000B106882361F08091EB029091EC028B30B8
:102DA00091052CF001979093EC028093EB0280E464
:102DB0000E94B106882361F08091EB029091EC02B1
:102DC000863791052CF401969093EC028093EB02E8
:102DD00080E80E94B106882361F08091ED02909115
:102DE000EE02853191052CF001979093EE028093CD
:102DF000ED0280E10E94B106882361F08091ED022E
:102E00009091EE02873391052CF401969093EE0297
:102E10008093ED0288E00E949B06882309F4A1C0FC
:102E20002090C802222009F49CC03090CA023110C0
:102E300094C0A0EFB2E0BA87A987712C612CE98514
:102E4000FA8586818111A0C00091EB021091EC02FD
:102E500098012F5F3F4F3E832D834D815E81401748
:102E600051070CF491C0E090ED02F090EE02C70122
:102E7000019698878F83AF81B885AE15BF050CF496
:102E800080C0E985FA85C080D180248135813A836C
:102E90002983C9010E94EB039C838B8389819A81DA
:102EA0000E94D1030C151D05A4F04B815C81C40E5A
:102EB000D51EC016D1066CF0A985BA8512962D9143
:102EC0003C91E216F3062CF0820F931F8E159F059E
:102ED00064F5BFEFEB1AFB0ACECF48EEC41643E011
:102EE000D406E104F10498F424E044E167E370E0DF
:102EF00080E590E00E94DD06A4E1B0E0A701960124
:102F00000E942C1A28EE33E040E050E016CE80916B
:102F1000CB028111A3C081E08093CB0281E090E0DD
:102F200090933803809337032CCF7092DB0260922A
:102F3000DA0281E08093DC021092EF02322C1092D0
:102F40003203109231035092340340923303332002
:102F500051F18FE392E00E94350B1092C80210925B
:102F6000CA0284E00E949B06882309F4CFC980919D
:102F7000C902882309F4CAC91092C9021092CB026F
:102F8000C5C90F5F1F4F69CFEFEF6E1A7E0A298503
:102F90003A85275F3F4F3A87298737E063167104E8
:102FA00009F04DCFCCCF8AE492E00E94350B10920D
:102FB00032031092310340E350E0509334034093C6
:102FC000330385E592E00E94350B8091EB029091EE
:102FD000EC020E94420B88E592E00E94350B809142
:102FE000ED029091EE020E94420B88E290E09093F5
:102FF00032038093310380E390E090933403809315
:1030000033038AE592E00E94350B8091F0029091A3
:10301000F1020E94420B88E592E00E94350B8091FC
:10302000F2029091F3020E94420B8DE392E00E9423
:10303000350B8091F4029091F5020E94EB030E94FF
:10304000420B8EE592E00E94350B8091F402909144
:10305000F5020E94D1030E94420B7FCF80E40E94C0
:10306000A606882369F08091D8029091D902019632
:1030700067E070E00E94681A9093D9028093D802AA
:1030800080E20E94A606882369F08091D802909180
:10309000D902069667E070E00E94681A9093D90200
:1030A0008093D80288E00E949B06882309F459CFB8
:1030B0008091C802882309F454CF8091CA028111FB
:1030C0004CCF6091D8027091D902AB01440F551FCB
:1030D000FA01E352FD4F20813181121613060CF0E4
:1030E0003CCFE0EFF2E090E080E0A681A11124C0A7
:1030F000A9E0A89FF001A99FF00D1124E051FD4F18
:103100007583648360E470E07183608365E270E0DE
:10311000738362831682108617829093DB028093FA
:10312000DA0281E08093DC0243525D4F2150310985
:10313000DA012D933C9311CF019639968730910592
:10314000A1F60BCF1092D0021092D1021092D202AF
:103150001092D3023DC12091DA023091DB0249E0A6
:10316000429FC001439F900D112480519D4F21E04B
:10317000DC0116962C931092DC021092C802109279
:10318000CA0226C11092D4021092D5021092D60221
:103190001092D702BBC880E20E94B1068823A1F03A
:1031A0008091DA029091DB0229E0289FF001299FAB
:1031B000F00D1124E051FD4F808191818B309105FC
:1031C0001CF001979183808380E40E94B1068823DC
:1031D00009F18091DA029091DB0229E0289FF00149
:1031E000299FF00D1124E051FD4FFA83E9830081FE
:1031F0001181848195810E94EB0326E730E0281B32
:10320000390B0217130734F40F5F1F4FA981BA81DE
:103210000D931C9380E80E94B1068823A1F0809151
:10322000DA029091DB0229E0289FF001299FF00D3E
:103230001124E051FD4F82819381853191051CF06D
:1032400001979383828380E10E94B106882311F164
:103250008091DA029091DB0229E0289FF001299FFA
:10326000F00D1124E051FD4FFA83E98302811381AF
:10327000848195810E94D1039201281B390B02178A
:10328000130744F40F5F1F4FA981BA8113961C9353
:103290000E9312970E9453066B017C018091CC0221
:1032A0009091CD02A091CE02B091CF02A7019601DC
:1032B000281B390B4A0B5B0BDA01C9018D32914097
:1032C000A105B10508F476C084E00E949B0688231E
:1032D000B1F18091C902882391F10E9453060091B7
:1032E000C4021091C5022091C6023091C702601B32
:1032F000710B820B930B6C32714081059105E8F4E0
:103300008091DA029091DB0229E0289FF001299F49
:10331000F00D1124E051FD4F87819085019664E006
:1033200070E00E94681A90878783C092CC02D09286
:10333000CD02E092CE02F092CF021092C90288E054
:103340000E949B068823B1F18091C802882391F1E5
:103350000E9453060091C0021091C1022091C20246
:103360003091C302601B710B820B930B6C32714066
:1033700081059105E8F48091DA029091DB0229E061
:10338000289FF001299FF00D1124E051FD4F878106
:103390009085039664E070E00E94681A90878783A6
:1033A000C092CC02D092CD02E092CE02F092CF0237
:1033B0001092C80288E00E94B106882309F4C2CEA8
:1033C00062E370E080ED92E00E9456078111C3CE67
:1033D00084E00E94B106882309F4D4CE60E570E051
:1033E00084ED92E00E945607882311F40C94861114
:1033F0008091DA029091DB0229E0289FD001299F79
:10340000B00D1124A051BD4F1496ED91FC9115976C
:1034100016961C921092DC02EE0FFF1FE352FD4F36
:1034200080819181019691838083A6CDF999FECF09
:1034300092BD81BDF89A992780B50895262FF999F4
:10344000FECF1FBA92BD81BD20BD0FB6F894FA9A87
:10345000F99A0FBE019608950E94591AA59F900DE2
:10346000B49F900DA49F800D911D11240895A1E299
:103470001A2EAA1BBB1BFD010DC0AA1FBB1FEE1FEE
:10348000FF1FA217B307E407F50720F0A21BB30B39
:10349000E40BF50B661F771F881F991F1A9469F7B5
:1034A00060957095809590959B01AC01BD01CF0111
:1034B0000895A29FB001B39FC001A39F700D811D0D
:1034C0001124911DB29F700D811D1124911D08952D
:1034D00097FB072E16F4009407D077FD09D00E94C1
:1034E000821A07FC05D03EF4909581959F4F089570
:1034F000709561957F4F0895EE0FFF1F0590F49131
:10350000E02D0994AA1BBB1B51E107C0AA1FBB1FDA
:10351000A617B70710F0A61BB70B881F991F5A955F
:10352000A9F780959095BC01CD010895F894FFCF3F
:1035300010FFFFFFFF00E100000000000040002539
:103540000000020002000100020002000100010070
:103550000100010001000100010001000100020062
:103560000000010000000200010000000100010055
:103570000000020000000100010000000000020045
:103580000200020001000000020002000000000032
:103590000000000001000100000001000100000027
:1035A0000100010000000200010001000100000014
:1035B000010000C180810000000C0C0A0808080C02
:1035C000140A0A050F05000C0C0A08080806110861
:1035D000080A190500000000006304CE0584047980
:1035E00004CA048804A6040000000058085F06BC52
:1035F00008BB0854414E4752414D00434C41535380
:1036000049432050555A5A4C45003E20504C415990
:103610002047414D45002020504C41592047414D05
:1036200045003E20494E535452554354494F4E0095
:103630002020494E535452554354494F4E00534550
:103640004C454354204C4556454C00413A506C6122
:10365000792020423A4261636B00636E743A0073D2
:10366000683A006C766C5F004C4556454C2000482B
:1036700049543A207472756520004849543A2066CE
:10368000616C736500433A002C0050303A007800BA
:10369000413A204372656174652070696563650015
:1036A000423A2043616E63656C2F4578697400412E
:1036B00072726F77733A204D6F766500412F423AF0
:1036C00020526F74617465004C6F6E6720413A2020
:1036D000506C61636520736861706500423A2042F6
:0C36E00061636B20746F204D656E7500F7
:00000001FF
