:100000000C9470030C9498030C9498030C9498032C
:100010000C9498030C9498030C9498030C949803F4
:100020000C9498030C9498030C94FB080C946A09A4
:100030000C9498030C9498030C9498030C949803D4
:100040000C9498030C9498030C9498030C949803C4
:100050000C9498030C9498030C9498030C949C0BA8
:100060000C9498030C9498030C9498030C949803A4
:100070000C9498030C9498030C9498030C94980394
:100080000C9498030C9498030C9498030C94980384
:100090000C9498030C9498030C9498030C94980374
:1000A0000C9498030C9498030C949803000000009F
:1000B000003E5B4F5B3E3E6B4F6B3E1C3E7C3E1CEE
:1000C000183C7E3C181C577D571C1C5E7F5E1C0034
:1000D000183C1800FFE7C3E7FF0018241800FFE7EB
:1000E000DBE7FF30483A060E2629792926407F05AE
:1000F0000507407F05253F5A3CE73C5A7F3E1C1CC4
:1001000008081C1C3E7F14227F22145F5F005F5F83
:1001100006097F017F006689956A6060606060946F
:10012000A2FFA29408047E040810207E2010080874
:100130002A1C08081C2A08081E101010100C1E0C7F
:100140001E0C30383E3830060E3E0E060000000011
:100150000000005F00000007000700147F147F14F8
:10016000242A7F2A1223130864623649562050003D
:1001700008070300001C2241000041221C002A1C29
:100180007F1C2A08083E0808008070300008080814
:100190000808000060600020100804023E51494534
:1001A0003E00427F400072494949462141494D3352
:1001B0001814127F1027454545393C4A49493141B9
:1001C000211109073649494936464949291E000087
:1001D00014000000403400000008142241141414DC
:1001E0001414004122140802015909063E415D59C8
:1001F0004E7C1211127C7F494949363E41414122D1
:100200007F4141413E7F494949417F090909013EFA
:10021000414151737F0808087F00417F4100204021
:10022000413F017F081422417F404040407F021C33
:10023000027F7F0408107F3E4141413E7F0909094A
:10024000063E4151215E7F09192946264949493216
:1002500003017F01033F4040403F1F2040201F3FDC
:100260004038403F63140814630304780403615961
:10027000494D43007F4141410204081020004141A3
:10028000417F04020102044040404040000307084F
:100290000020545478407F2844443838444444284B
:1002A000384444287F385454541800087E090218F2
:1002B000A4A49C787F0804047800447D400020407A
:1002C000403D007F1028440000417F40007C0478BE
:1002D00004787C080404783844444438FC18242406
:1002E0001818242418FC7C08040408485454542486
:1002F00004043F44243C4040207C1C2040201C3C03
:100300004030403C44281028444C9090907C4464F9
:10031000544C44000836410000007700000041368C
:10032000080002010204023C2623263C1EA1A16112
:10033000123A4040207A3854545559215555794144
:100340002154547841215554784020545579400C1B
:100350001E527212395555555939545454593955FC
:100360005454580000457C410002457D420001453F
:100370007C40F0292429F0F0282528F07C545545AC
:10038000002054547C547C0A097F4932494949323F
:100390003248484832324A4848303A4141217A3A54
:1003A00042402078009DA0A07D39444444393D401E
:1003B00040403D3C24FF2424487E4943662B2FFCCB
:1003C0002F2BFF0929F620C0887E09032054547979
:1003D000410000447D413048484A32384040227A4A
:1003E000007A0A0A727D0D19317D2629292F2826C7
:1003F0002929292630484D402038080808080808CF
:100400000808382F10C8ACBA2F102834FA00007B27
:10041000000008142A142222142A1408950022002D
:1004200095AA005500AAAA55AA55AA000000FF00E7
:10043000101010FF00141414FF001010FF00FF1024
:1004400010F010F0141414FC001414F700FF000056
:10045000FF00FF1414F404FC141417101F10101FD5
:10046000101F1414141F00101010F0000000001FC3
:10047000101010101F10101010F010000000FF10CE
:100480001010101010101010FF10000000FF1400CA
:1004900000FF00FF00001F10170000FC04F41414FC
:1004A0001710171414F404F40000FF00F7141414C8
:1004B00014141414F700F7141414171410101F1048
:1004C0001F141414F4141010F010F000001F101F6B
:1004D0000000001F14000000FC140000F010F010D9
:1004E00010FF10FF141414FF141010101F00000050
:1004F00000F010FFFFFFFFFFF0F0F0F0F0FFFFFF54
:100500000000000000FFFF0F0F0F0F0F38444438AA
:10051000447C2A2A3E147E02020606027E027E02E5
:1005200063554941633844443C04407E201E200604
:10053000027E020299A5E7A5991C2A492A1C4C7241
:1005400001724C304A4D4D303048784830BC625AC8
:10055000463D3E494949007E0101017E2A2A2A2A58
:100560002A44445F444440514A444040444A514034
:100570000000FF0103E080FF000008086B6B0836F5
:1005800012362436060F090F060000181800000066
:100590001010003040FF0101001F01011E00191D55
:1005A0001712003C3C3C3C0000000000F0F89C8E20
:1005B0008783878E9CF8F00000FEFF03030303038C
:1005C000070EFCF80000FEFF0303030303070EFC05
:1005D000F80000FFFF00000000000000FFFF000027
:1005E000FEFF8383838383C7EE7C380000F8FC0E14
:1005F00007030303070EFCF800003F7FE0C0808084
:10060000C0E07F3FFFFF01010101010101FFFF0089
:1006100000FFFF0C0C0C0C1C3E77E3C100007FFFB9
:10062000C0C0C0C0C0E0703F1F00001F3F70E0C0EE
:10063000C0C0E0703F1F00007FFFC1C1C1C1C1E366
:10064000773E1C00001F3F70E0C0C0C0E0703F1F3D
:10065000000000000001FFFF01000000D5F08D1434
:10066000A1C881CFD9F1AF2000080B00020202001F
:100670000009040000010202000005240010010529
:100680002401010104240206052406000107058156
:100690000310004009040100020A000000070502DF
:1006A0000240000007058302400000040309041211
:1006B000010002EF020140412336800001010203E4
:1006C0000141726475696E6F204C4C430041726445
:1006D00075696E6F204C656F6E6172646F00190CE6
:1006E00011241FBECFEFDAE0DEBFCDBF11E0A0E0E6
:1006F000B1E0E4E3F1E202C005900D92AA38B1073F
:10070000D9F726E0AAE8B1E001C01D92A934B207EA
:10071000E1F713E0C0E7D3E004C02197FE010E9497
:100720009210CF36D107C9F70E94360C0C9498105E
:100730000C940000E5EFF1E0A0E0B8E000800EBC12
:100740008111012C1197A0FDFDCF0192B9F70DB4D5
:1007500008959C01265F3F4F121613066CF597FF14
:1007600002C090E080E02138310514F020E830E04C
:10077000281BAB014770552731E001C0330F4A9564
:10078000EAF777FF02C0695F7F4FFB0143E0F59511
:10079000E7954A95E1F7F695FE2FEE27F795E79551
:1007A000E80FF91FEB50FE4F215030F08191DF012F
:1007B0001197832B8C93F8CF0895FC018091F4015D
:1007C000882311F13FB7F89482E08093E9002091EB
:1007D000F200822F90E01816190614F481E090E0E0
:1007E000882339F0289844E64093F3014091F100C2
:1007F0004083222339F02091F200211103C02BE61F
:100800002093E8003FBF08958FEF9FEF08952FB723
:10081000F89483E08093E9009091E800892F80723A
:1008200095FF04C09091F20080E4891B2FBF0895CA
:100830008091EB0181110DC082E08093E70184E09B
:100840008093E8011092EA011092E90181E080931F
:10085000EB0187EE91E00895CF93DF931F92CDB720
:10086000DEB76983DC01ED91FC910280F381E02D1C
:1008700041E050E0BE016F5F7F4F09950F90DF911F
:10088000CF91089583E08093E9008091F20088235E
:1008900019F08AE38093E80008950E94070490E02D
:1008A0000895CF93DF931F92CDB7DEB7FC01848507
:1008B000958597FD08C02FEF3FEF358724870F9070
:1008C000DF91CF910895CE0101960E94DD0301973B
:1008D00019F4898190E0F3CF8FEF9FEFF0CF0F9362
:1008E0001F93CF93DF931F92CDB7DEB78C01FC012E
:1008F0008485958597FF0BC0CE0101960E94DD038C
:10090000019771F4898190E0F80195878487F80157
:10091000848595850F90DF91CF911F910F91089558
:100920008FEF9FEFF1CFFC018485958597FD0BC07C
:100930009FB7F89482E08093E9008091F2009FBF16
:1009400090E0019608959FB7F89482E08093E900C3
:100950008091F2009FBF90E008954091E101509195
:10096000E2012091DF013091E00142175307B4F416
:100970009091E8009570E1F39091E80092FD19C024
:100980008093F1008091E1019091E20101968F73D3
:100990009927892B19F48EEF8093E8008091E1016B
:1009A0009091E20101969093E2018093E10181E050
:1009B000089580E00895DF92EF92FF920F931F93C6
:1009C000CF93DF93D82E8A01EB017B01E40EF51E55
:1009D000CE15DF0559F0D7FE12C0FE0184910E94AA
:1009E000AD0421968111F4CF0FEF1FEFC801DF9105
:1009F000CF911F910F91FF90EF90DF900895888124
:100A0000EECF0F931F93CF93DF931F92CDB7DEB737
:100A100082E0898342E450E069E676E080E80E9463
:100A2000DB040E941804DC0112960D911C91011543
:100A3000110589F0D801ED91FC910280F381E02D40
:100A4000BE016F5F7F4FC801099597FD04C0F80193
:100A500000851185ECCF89810F90DF91CF911F9197
:100A60000F910895615030F02091F100FC01208336
:100A70000196F8CF289884E68093F30108953FB754
:100A8000F8948091DB019091DC01A091DD01B0919F
:100A9000DE0126B5A89B05C02F3F19F00196A11DC8
:100AA000B11D3FBFBA2FA92F982F8827BC01CD01B8
:100AB000620F711D811D911D42E0660F771F881F17
:100AC000991F4A95D1F708958F929F92AF92BF9246
:100AD000CF92DF92EF92FF926B017C010E943F0563
:100AE0004B015C01C114D104E104F104B9F00E948E
:100AF0003F05681979098A099B09683E7340810599
:100B0000910580F321E0C21AD108E108F10888EECE
:100B1000880E83E0981EA11CB11CE4CFFF90EF90DB
:100B2000DF90CF90BF90AF909F908F9008958F925D
:100B30009F92AF92BF92CF92DF92EF92FF920F936C
:100B40001F93CF93DF936C017B018A018091100189
:100B5000882309F45CC08091F401882309F457C00C
:100B60008091E60180FF05C08091E0008260809363
:100B7000E000E801B12C8AEFA82E93E0892E2AE349
:100B8000922E209711F4BB20D9F10E940704811105
:100B90000AC0AA94AA20D9F161E070E080E090E058
:100BA0000E946405EECF8C171D0611F00CF08C2FFF
:100BB0009FB7F8948092E9002091E80025FD02C0DB
:100BC0009FBFDFCF282F30E0C21BD30BF70181502E
:100BD00020F041914093F100FACFE20EF31EBB20CA
:100BE00021F09092E800B12CEBCF8091E80085FDD8
:100BF000E7CF9092E800BB24B394209709F3F3CF9A
:100C00005D9884E68093E501101611063CF081E0C2
:100C100090E0F6019383828310E000E0C801DF9149
:100C2000CF911F910F91FF90EF90DF90CF90BF90E9
:100C3000AF909F908F900895AF92BF92CF92DF9226
:100C4000EF92FF920F931F93CF93DF936C017B0181
:100C50008B01040F151FEB015E01AE18BF08C01712
:100C6000D10759F06991D601ED91FC910190F08185
:100C7000E02DC6010995892B79F7C501DF91CF9148
:100C80001F910F91FF90EF90DF90CF90BF90AF90AA
:100C900008952D9A0895BC0190E080E00C946405BD
:100CA0008FB18095807F669B88601C9B84600895CF
:100CB0009091D201982329F49091D301982381E057
:100CC00009F480E00895CF93C82F0E945006982F12
:100CD0009C2381E09C1380E0CF91089580E00C94E8
:100CE0009A0380389105B8F460347105A0F420E1CE
:100CF00091E061FD94E060FD990F62FD9295687F3F
:100D0000269FD0011124A80FAB50BE4F8C9140FFFD
:100D100003C0892B8C93089590958923FBCF2F9244
:100D20003F924F925F926F927F928F929F92AF927B
:100D3000BF92CF92DF92EF92FF920F931F93CF93C8
:100D4000DF93EC018B017A016901C61AD70AD7FE3D
:100D500003C0D194C194D10847018C1A9D0A97FE13
:100D600003C09194819491088C149D0454F49E2D99
:100D70008F2D7901292F382F9C2F8D2FE801092FD6
:100D8000182FEC16FD0654F4902F812F8901292F7E
:100D9000382F9C2F8D2FE701E92EF82E17012C1AE2
:100DA0003D0A2901401A510A57FE03C0519441944B
:100DB0005108310137FE03C08FEF681A780A759425
:100DC00067948FEF021713070CF481E0A82E880FA9
:100DD000BB08EC16FD06A4F041E0BE01C8018C146E
:100DE0009D0414F0B801CE010E94710664187508C4
:100DF00077FE04C00A0D1B1D620C731C2196E9CFFF
:100E0000DF91CF911F910F91FF90EF90DF90CF90E6
:100E1000BF90AF909F908F907F906F905F904F901A
:100E20003F902F9008952F923F924F925F926F9232
:100E30007F928F929F92AF92BF92CF92DF92EF926A
:100E4000FF920F931F93CF93DF9300D000D0CDB7C5
:100E5000DEB78C017C836B836C5F7F4F41E00E9427
:100E600071066B817C816450710941E0C8010E9468
:100E7000710641E06B817C81C80104960E94710675
:100E800041E06B817C81C80104970E94710681E07A
:100E900090E09A838983D12CC12C84E0E82EF12C38
:100EA00098EF292E33243A942DEFA22EBB24BA9426
:100EB0009FEFC91AD90A89819A8102969A838983F8
:100EC000A80EB91E3601600E711E41E08B809C8019
:100ED0008E0C9F1CB401C3010E94710628014C189E
:100EE0005D0841E0B401C2010E94710641E08B80BF
:100EF0009C808E189F08B401C3010E94710641E0D6
:100F0000B401C2010E9471068B809C808C0C9D1CD8
:100F100041E0B40138016E0C7F1CC3010E947106D0
:100F200041E0B40128014E185F08C2010E94710619
:100F30008B809C808C189D0841E0B401C3010E9405
:100F4000710641E0B401C2010E947106CE14DF04B3
:100F5000BCF00F900F900F900F90DF91CF911F91E9
:100F60000F91FF90EF90DF90CF90BF90AF909F9048
:100F70008F907F906F905F904F903F902F9008954B
:100F8000B7FC96CF91E0E91AF10882E0280E311CF7
:100F9000A20CB31C8DCF0F931F93CF93DF93EC0163
:100FA00068E170E00E94A90361E270E0CE010E9456
:100FB000A90308E110E041E0B801CE010E947106EA
:100FC0000F5F1F4F02321105B1F7299608E110E0BB
:100FD00041E0B801CE010E9471060F5F1F4F02323F
:100FE0001105B1F7DF91CF911F910F9108958F9265
:100FF0009F92AF92BF92CF92DF92EF92FF920F93A8
:101000001F93CF93DF936D3089F0C090D001D090C3
:10101000D1016A30D1F41092CF011092CE0188E054
:10102000C80ED11CD092D101C092D00181E090E0D5
:10103000DF91CF911F910F91FF90EF90DF90CF90B4
:10104000BF90AF909F908F9008950091CE01109126
:10105000CF01E5E06E9FE0011124C455DF4F480148
:10106000F12CF5E0E12CFF1629F0CE010196FE01EE
:10107000E490EC01B12CA12C4E2D4170B6016A0D0B
:101080007B1DC4010E947106E694FFEFAF1ABF0AF0
:1010900088E0A816B10481F7F394EFEF8E1A9E0A48
:1010A000F6E0FF12DECF0A5F1F4F1093CF010093CF
:1010B000CE01BCCFAF92BF92CF92DF92EF92FF9260
:1010C0000F931F93CF93DF938C017B01EB01279646
:1010D0005C0184E0A80EB11C9E01A801C5010E941C
:1010E0008F06680188E0C80ED11C9E01A601BE01D2
:1010F000C8010E948F069701A501BE01C601DF91BC
:10110000CF911F910F91FF90EF90DF90CF90BF9004
:10111000AF900C948F06AF92BF92CF92DF92EF9276
:10112000FF920F931F93CF93DF93EC018B01411537
:10113000510529F55C0128E0A20EB11C6B0188E085
:10114000C80ED11CCA15DB05C1F1780117FF02C01A
:10115000F12CE12CC60121E4C216D10414F080E484
:1011600090E0E816F9064CF441E0B701CE010E9488
:1011700071068FEFE81AF80AEDCF2196E3CF4130E0
:10118000510561F4DF91CF911F910F91FF90EF9086
:10119000DF90CF90BF90AF900C945A086C5F7F4F58
:1011A0000496DF91CF911F910F91FF90EF90DF9008
:1011B000CF90BF90AF900C941307DF91CF911F9108
:1011C0000F91FF90EF90DF90CF90BF90AF90089578
:1011D000089590E080E00895FC0101900020E9F777
:1011E0003197AF01481B590BBC0185E496E00C9484
:1011F0001C060C9454101F920F920FB60F921124DC
:101200008F939F938091E1009091E100937F909361
:10121000E10083FF0FC01092E90091E09093EB0092
:101220001092EC0092E39093ED001092F40198E09C
:101230009093F00082FF22C093E09093E900909198
:10124000F200992319F09AE39093E8009091E50158
:10125000992341F09091E50191509093E50191110E
:1012600001C05D9A9091F301992341F09091F301AF
:1012700091509093F301911101C0289A84FF18C0F6
:101280008091E2008E7E81608093E2008091E10097
:101290008F7E8093E1008091E6018E7E8061809355
:1012A000E6019F918F910F900FBE0F901F901895A0
:1012B00080FFF7CF8091E2008E7E80618093E20014
:1012C0008091E1008E7E8093E1008091E6018E7E28
:1012D0008160E5CF1F920F920FB60F921124CF922B
:1012E000DF92EF92FF920F931F932F933F934F93B1
:1012F0005F936F937F938F939F93AF93BF93EF937E
:10130000FF93CF93DF93CDB7DEB76C97DEBFCDBF32
:101310001092E9008091E80083FF25C068E0CE01CB
:1013200045960E94320582EF8093E8008D8987FF01
:1013300039C09091E80090FFFCCF982F907609F08B
:1013400034C19E894F89588D2F89F88C911131C0F5
:10135000803861F58091E4018093F1001092F100F2
:101360008EEF8093E8006C960FB6F894DEBF0FBE48
:10137000CDBFDF91CF91FF91EF91BF91AF919F9141
:101380008F917F916F915F914F913F912F911F911D
:101390000F91FF90EF90DF90CF900F900FBE0F90C6
:1013A0001F9018959EEF9093E800C7CF1092F10020
:1013B000D5CF913059F48111D3CF4130510581F609
:1013C0008091E4018D7F8093E401CACF933049F48A
:1013D0008111C6CF4130510519F68091E401826038
:1013E000F2CF953041F48091E80080FFFCCF206877
:1013F0002093E300B5CF963009F0A9C00B8D1C8D6A
:1014000022E01092E9001092E2011092E101F21242
:101410002EC01092E0011092DF010E9401051F8290
:1014200099E09983FA8291E09E8390EA98879AEFF7
:1014300099872091E1013091E201275F3F4F3C8382
:101440002B838D831092E9001092E2011092E1014A
:101450001093E0010093DF0149E050E0BE016F5FAF
:101460007F4F80E00E94DB040E94010579CF10933A
:10147000E0010093DF010E941804DC0112960D9137
:101480001C910115110509F451C1D801ED91FC9190
:101490000480F581E02DBE016B5E7F4FC801099588
:1014A000009709F03EC1F80100851185EACFF3E00D
:1014B000FF120EC08F89882309F440C0823061F486
:1014C00040E860E18DEC96E00E94E60B811148CF88
:1014D00081E28093EB0047CF813029F440E86BE054
:1014E00081EC96E0F1CF833099F70E941804DC017B
:1014F0001296ED90FC908E010F5F1F4F6801E11472
:10150000F10479F0D701ED91FC910680F781E02D8F
:10151000B801C7010995080F111DF701E084F18496
:10152000EECFD8011C92F60101900020E9F7319727
:10153000BF016C197D0940E0C601C6CF6BEA76E0B9
:10154000FB01449150E080E80E94DB0409CF973012
:1015500009F4BECF983021F481E08093F10000CFF0
:10156000993009F0FDCE837009F0B2CFE2E1F1E0ED
:1015700081E031E096E32191222371F08093E9002C
:101580003093EB00DF0111972C912093EC009093A6
:10159000ED008F5F873079F78EE78093EA00109235
:1015A000EA008F898093F401DBCE8B8D9C8D1092A5
:1015B000E9001092E2011092E1019093E001809322
:1015C000DF01898D811192C08E899D89913A49F4FC
:1015D000813209F07DCF47E050E069E071E080E0C2
:1015E000B3CF913209F074CF833269F48F89988D2B
:1015F000B0E0A0E08093050190930601A09307015D
:10160000B0930801ADCE803269F48091E80082FF8A
:10161000FCCF67E089E091E00E9432058BEF809378
:10162000E8009ECE823209F09BCE8F898093100114
:10163000EEEFFFE7859194918B3F9C4D51F1E0E0F7
:10164000F8E08091090190910A01A0910B01B091FD
:101650000C01803B9440A105B105F1F4809110018B
:1016600080FD1AC0EE3F8AE0F80789F587E797E723
:1016700091838083809160008093E30188E19BE007
:101680000FB6F894A895809360000FBE9093600009
:1016900067CEEEEFFAE0D5CF80819181873797470B
:1016A00009F05ECEA895809160008861809360000B
:1016B0008091E30180936000EE3F2AE0F20789F019
:1016C0008091FE0A9091FF0A9183808349CE8081A8
:1016D00091818737980751F29093FF0A8093FE0A11
:1016E000C5CF1092FF0A1092FE0A3ACE0E9418044B
:1016F000DC0112960D911C910115110509F4E8CE3B
:10170000D801ED91FC910190F081E02DBE016B5E5E
:101710007F4FC8010995811123CEF80100851185FD
:10172000EBCF181619060CF41BCED2CEF1E0FF1247
:10173000BECE6FEA76E004CF1F920F920FB60F92E3
:1017400011242F933F938F939F93AF93BF938091D7
:10175000D7019091D801A091D901B091DA013091CF
:10176000D60123E0230F2D3758F50196A11DB11D99
:101770002093D6018093D7019093D801A093D901EB
:10178000B093DA018091DB019091DC01A091DD0141
:10179000B091DE010196A11DB11D8093DB019093F4
:1017A000DC01A093DD01B093DE01BF91AF919F9169
:1017B0008F913F912F910F900FBE0F901F90189512
:1017C00026E8230F0296A11DB11DD2CFEF92FF9202
:1017D0000F931F93CF93DF93F82E192FE62E042F2C
:1017E00081E0860F880F0E94AD0483E00E94AD0463
:1017F000CF2DD12FEC0EFD2EF11CCE15DF05B9F04B
:1018000007FF13C0FE0184910E94AD04182F80E0F1
:101810000E94AD04812321968111EFCFDF91CF91FA
:101820001F910F91FF90EF9008958881EDCF81E097
:10183000F5CFE5EFF5E01382128288EE93E0A0E0A9
:10184000B0E084839583A683B7838CE191E0918394
:1018500080838FEF9FEF95878487E5E4F6E013821E
:1018600012828EE291E0918380830895789484B50A
:10187000826084BD84B5816084BD85B5826085BD8C
:1018800085B5816085BD80916E00816080936E001A
:10189000109281008091810082608093810080910C
:1018A00081008160809381008091800081608093BD
:1018B00080008091910082608093910080919100DE
:1018C000816080939100809190008160809390006E
:1018D0008091C10084608093C1008091C1008260CA
:1018E0008093C1008091C10081608093C10080918C
:1018F000C30081608093C3008091C00082608093A8
:10190000C0008091C20081608093C20080917A0003
:10191000846080937A0080917A00826080937A005C
:1019200080917A00816080937A0080917A0080684B
:1019300080937A001092F4011092E4011092E60173
:101940008091D70081608093D70080EA8093D8008F
:1019500089B5806189BD89B5826089BD09B400FE01
:10196000FDCF61E070E080E090E00E94640580912E
:10197000D8008F7C80618093D8008091E000807FC8
:101980008093E0008091E1008E7E8093E1008DE005
:101990008093E200559A209A81EC80937C0085B177
:1019A000806F85B984B1877E84B984B1876E84B92C
:1019B0005E9A5F988AB1806D8AB9769A6E9881B383
:1019C000806F81BB899880B38D7080BB80E58CBDB2
:1019D00081E08DBD85E090E00E944B065F9A85E036
:1019E00090E00E944B065E985C98ECE5F6E089E694
:1019F00096E024912EBD00000DB407FEFDCF319678
:101A00008E179F07B1F75C9A81E8809364008091FC
:101A100065008160809365000E946E0680E80E94E8
:101A200063068823A9F05C9885EA8EBD00000DB49A
:101A300007FEFDCF5C9A2E982F982D988091640018
:101A400080628093640081E083BF889513BEFCCFE1
:101A500084E00E946306882309F448C02D9884E836
:101A60000E9463068823E1F00E94490688EC90E01A
:101A70000E944B062F9882E090E00E9454108F3F06
:101A800029F06FEF82E090E00E945C1084EF91E01B
:101A90000E944B062F9A84E80E9463068111FBCFB7
:101AA00084E10E9463068823E1F00E94490688ECE5
:101AB00090E00E944B062E9882E090E00E94541025
:101AC000882329F060E082E090E00E945C1084EFBF
:101AD00091E00E944B062E9A84E10E9463068111D8
:101AE000FBCF88EC90E00E944B06B2CF0E944906E3
:101AF00082E090E00E94F908882309F44DC03E9AE4
:101B00003F9A81E090E00E94F908482F4470742EBB
:101B100081FF12C041112E98C1EFDFEF08E010E005
:101B2000ACE6EA2EF12C80E40E9463068823B9F12A
:101B30002E9A2F9A0E94490682E390E00E944B065B
:101B40000E9450068111F8CF81E28093000152E09B
:101B5000652E712C23E0422E512C33E2C32ED12C62
:101B600022242394312C8FB7F8944091D7015091BF
:101B7000D8016091D9017091DA018FBFC0918C01B9
:101B8000CC2309F4CAC010928C0180E090E0892B2C
:101B900051F30E940000DECF3E983F98B2CF7720ED
:101BA00029F0C430D10511F42E9A2F9881E00E94BB
:101BB0009A039E01D7FF04C0222733272C1B3D0B1D
:101BC00027703327CE01D7FD0796F3E095958795CB
:101BD000FA95E1F7D7FF05C00197F801E21BF30B77
:101BE0009F01BC017695762F6627779567956B5098
:101BF0007E4FB0E0A0E02801421A530A8E3FFFEF6B
:101C00009F0709F43CC048E550E0FD01EC5FF94F47
:101C10005F014B01F0E88F0E911C8F3F9807A1F0F8
:101C2000F501E41BF50BE4916701C41AD50AC60E51
:101C3000D71EF0E01F01022E01C0220C0A94EAF721
:101C4000F60160802628208221153105A9F0F501D2
:101C5000E41BF50BE4916701C41AD50AC80CD91C22
:101C6000F0E01F01042C02C0359427940A94E2F797
:101C7000F6016080262820824150510971F60196B4
:101C8000A85ABF4F60587F4FA03BB10509F0B6CFAF
:101C90000E946E068FE090E00E944B062196C931AB
:101CA000D10509F040CF772011F02F9A2D9880E9C7
:101CB00091E00E944B060E94490681E090E00E945C
:101CC000F90880FF39CF8AE090E00E94F9089FEF81
:101CD000980F9E3F08F030CF22E330E03093CF01E1
:101CE0002093CE0128E330E03093D1012093D0013E
:101CF000CBE0D0E0682F85E496E00E94F707CE01A4
:101D00000E94F9082196C131D105A1F70E946E0603
:101D100088EE93E00E944B060FCF80918D01F42F47
:101D2000F81B8F2F90910001F91748F48F5F8917E6
:101D300008F02BCF81E083BF889513BE26CF81E0CA
:101D400080938C0140938D0180918A0190918B0149
:101D5000019690938B0180938A018091D3018093A7
:101D6000D2010E9450068093D301E5EFF1E0C1114A
:101D7000CFEF0024C193C193C193C1930394D1F7D2
:101D80001092D1011092D0011092CF011092CE0189
:101D90008091D4019091D5018130910509F445C01D
:101DA0008230910509F4D1C0892BE1F548E250E079
:101DB0005093CF014093CE018AE090E09093D101FF
:101DC0008093D00186E391E00E94EC08D092CF018D
:101DD000C092CE0189E190E09093D1018093D0012F
:101DE00081E491E00E94EC08D092CF01C092CE0134
:101DF000D092D101C092D0018FE491E00E94EC0812
:101E000088E00E945806882321F07092D5016092E4
:101E1000D40184E00E945806882321F03092D50135
:101E20002092D4010E946E06B0CEEEE1F0E0F09375
:101E3000CF01E093CE0145E050E05093D1014093B3
:101E4000D0018FE591E00E94EC080091CC01109147
:101E5000CD010115110521F483E190E00E94CB072B
:101E6000C4E1D0E099E1E92EF12C41E0B701CE01C7
:101E70000E9471065FEFE51AF50A81E2E816F104A7
:101E8000A1F72196CC31D10569F70130110521F474
:101E90008BE390E00E94CB0769E170E08CE390E077
:101EA0000E945A080230110521F483E690E00E9456
:101EB000CB076DE170E088E690E00E941307EFE049
:101EC000F0E0F093CF01E093CE0142E350E0509375
:101ED000D1014093D0018CE691E00E94EC0880E4AF
:101EE0000E945806882361F08091CC019091CD0129
:101EF0000196B2010E946A109093CD018093CC01AB
:101F000080E20E945806882361F08091CC01909174
:101F1000CD010296B2010E946A109093CD01809388
:101F2000CC0188E00E945806882321F07092D501E8
:101F30006092D40184E00E945806882309F472CF8D
:101F40001092D5011092D4016DCF80E20E946306F9
:101F5000882349F0809103019091040101979093A7
:101F600004018093030180E40E946306882349F002
:101F70008091030190910401019690930401809354
:101F8000030180E80E946306882349F080910101E3
:101F9000909102010197909302018093010180E1E9
:101FA0000E946306882349F080910101909102010B
:101FB0000196909302018093010188E00E945806E7
:101FC0000091030110910401E0900101F0900201E1
:101FD000A090CC01B090CD018823D1F08091CA01AE
:101FE0009091CB018A3091059CF426E0289FF00166
:101FF000299FF00D1124E257FE4F00831183E282E6
:10200000F382B582A48201969093CB018093CA019A
:1020100084E00E945806882321F01092D501109286
:10202000D401E8010937110514F0C8E7D0E0D7FF63
:1020300002C0D0E0C0E0D0930401C0930301870147
:102040000933110514F008E310E017FF02C010E097
:1020500000E010930201009301018EE8E82E81E078
:10206000F82E912C812C8091CA019091CB01881679
:10207000990684F4F70144815581628173818081DE
:1020800091810E948B08FFEF8F1A9F0A46E0E40EB1
:10209000F11CE9CFA501B801CE010E948B088BE7A6
:1020A00091E00E94EC08BECEF999FECF92BD81BDB1
:1020B000F89A992780B50895262FF999FECF1FBA6F
:1020C00092BD81BD20BD0FB6F894FA9AF99A0FBE61
:1020D0000196089597FB072E16F4009407D077FD1C
:1020E00009D00E947E1007FC05D03EF490958195A2
:1020F0009F4F0895709561957F4F0895AA1BBB1B54
:1021000051E107C0AA1FBB1FA617B70710F0A61BF7
:10211000B70B881F991F5A95A9F780959095BC0118
:10212000CD010895EE0FFF1F0590F491E02D099465
:04213000F894FFCF51
:10213400101C003C00FFFFFFFF00E1000000000056
:102144000000C18081000000000000002C049705FD
:102154004D044204930451046F0400000000F70787
:102164001C06E908E8085354414D502047414D45A9
:1021740000413A2053746172742047616D650042D6
:102184003A2053686170652053656C65637400532D
:10219400454C45435420534841504500413A5374FB
:1021A40061727420423A4261636B00413A53746134
:0A21B4006D7020423A4D656E750013
:00000001FF
